:10000000E8110020E5070000C11B0000D107000037
:10001000D1070000D1070000D1070000D107000080
:10002000000000000000000000000000890800003F
:10003000D107000000000000D1070000D107000038
:100040004509000045090000450900004509000078
:100050004509000045090000450900004509000068
:100060004509000045090000450900004509000058
:100070004509000045090000450900004509000048
:100080004509000045090000450900004509000038
:100090004509000045090000450900004509000028
:1000A0004509000045090000450900004509000018
:1000B0004509000045090000450900004509000008
:1000C00045090000450900004509000045090000F8
:1000D00045090000450900004509000045090000E8
:1000E00045090000450900004509000045090000D8
:1000F00045090000450900004509000045090000C8
:1001000045090000450900004509000045090000B7
:1001100045090000450900004509000045090000A7
:100120004509000045090000450900004509000097
:100130004509000045090000450900004509000087
:100140004509000045090000450900004509000077
:100150004509000000000000000000000000000051
:10016000000000000000000000000000000000008F
:10017000000000000000000000000000000000007F
:10018000000000000000000000000000000000006F
:10019000000000000000000000000000000000005F
:1001A000000000000000000000000000000000004F
:1001B000000000000000000000000000000000003F
:1001C000000000000000000000000000000000002F
:1001D000000000000000000000000000000000001F
:1001E000000000000000000000000000000000000F
:1001F00000000000000000000000000000000000FF
:10020000DEE61E284CBBCE8F023500003C0000000D
:1002100000280000010000000000000000000000B5
:10022000FFFF02910000000000000000000000003D
:1002300000000000000000000000000002234FF05A
:1002400080500A4A03F180010133202B42F821003B
:10025000F8D100234FF08050054A03F180010133AB
:10026000102B42F82100F8D100207047002584505F
:100270000028845008B50249024801F086FA00BF00
:100280007016085000160850C04330B50C4D0A4493
:10029000914201D1C04330BD11F8013B83EA000413
:1002A00004F00F0455F8244084EA101080EA131378
:1002B00003F00F0355F8233083EA1010E8E700BF7E
:1002C000E8240000014B1B68184700BFB804002059
:1002D00030B585B004460D4610220021684601F075
:1002E000FBFE02238DF80230044B2A462146684665
:1002F000019300F0EFFF05B030BD00BFC502000064
:100300002DE9F047058B04462807904611D40229B1
:1003100005F0070540F0CC80204601F06DFB78B178
:100320000138218B042811D8DFE800F0C2106D8558
:10033000950001290CBF45F0100545F020052583E7
:1003400088F31188BFF36F8FBDE8F08701F0070ACB
:10035000AA4500F0A5800027B9463E46A368002BB9
:1003600000F0BC8041F00801218388F31188BFF3BD
:100370006F8FA168002900F0BA800D68002900F095
:10038000B680334652462046D1F80480C047002D3F
:1003900076D02B6829461D46F0E701F007035A1F67
:1003A000012A1BD8002221F00701062B276889B2F9
:1003B000C4E9002209D13B4603E0628B013262832B
:1003C0001B68002BF9D141F002012046218301F086
:1003D00013FB00287AD041F0200176E0042B0AD1EB
:1003E00021F0070189B22046218301F005FB10B1FD
:1003F00041F020012183218B01F0070AAA454FD04B
:100400000027B946AAE7236921F0070141F0060158
:10041000062DD3F8009021832DD1B9F1000F3FD0E4
:1004200041F00801218388F31188BFF36F8F2046C4
:100430003949C84729E021F00701236941F0040147
:1004400089B2042DD3F804902183E6D000274FF021
:10045000040A3E4682E721F00701236941F00501C5
:1004600089B2052DD3F808902183D6D000274FF00C
:10047000050A3E4672E700274FF0060A3E466DE742
:100480002B4687E7B9F1000FD1D1EFF31188202374
:1004900083F31288BFF36F8F238B23F0080323832A
:1004A000258BEA062ED525F01003238305F00705DA
:1004B0006669218B002EBFF670AF00232768C4E960
:1004C000003321F0070141F001012183218B4FF01E
:1004D000000901F0070AAA457FF440AF002F9CD025
:1004E00041F00801218388F31188BFF36F8F002F3B
:1004F000C8D03D68394633465246204601F0A8FA36
:100500002F46F4E7AB067FF51BAF25F020032383CE
:1005100005F0070500E700BF7D1A000008B5044894
:1005200001F05DFABDE80840024801F058BA00BF8A
:100530004326000078260000014800F0C5BD00BF3A
:100540002825000030BFFFF7FDBF00BF154B9A6A9A
:1005500012F0007F9A6A14BF1E201D2012F0807FC7
:100560009A6A18BF1F2012F4801F9A6A18BF0220CF
:1005700012F4002F9A6A18BF212012F4802F9A6A71
:1005800018BF222012F4003F9A6A18BF232012F4E9
:10059000803F9A6A18BF24206FEA02426FEA124233
:1005A0009A62704700ED00E010B5194B0246986A58
:1005B0009C6A10F4805F14BF1720162014F4006F9B
:1005C0009C6A18BF1820A40509D5986B986A000486
:1005D00004D51AB19A6A22F400429A6219200C4B8F
:1005E0009A6A12F4806F9A6A18BF1A20D2050CD446
:1005F0009B6A13F4005F18BF1C20054A936A43F4FA
:100600007F43936200230B7010BD1B20F5E700BFF2
:1006100000ED00E010B51C4B0246986A9C6A10F091
:10062000100F14BF1120102014F0080F9C6A18BF7F
:100630001220A40709D5586B986A000604D51AB190
:100640009A6A22F080029A6213200F4B9A6A12F083
:10065000010F9A6A18BF142012F0200F9A6A18BF6F
:100660001520D40658BF9B6A074B9A6A920642BF70
:100670005A6A22F400525A629A6A42F0FF029A625F
:1006800000230B7010BD00BF00ED00E0F0B5474B3C
:1006900004465B6800258BB0C3F3080385F311881B
:1006A000BFF36F8F02F07F40B0F17F4F11D102F0A6
:1006B0000C0008280DD010074CBF0C460125002265
:1006C000033B8DF80720032B05D8DFE803F02462F5
:1006D000665F2C46F3E700239DF80720CAB902AEF7
:1006E00004F12007324620686168083403C2BC4226
:1006F0001646F7D1099A002D53D0C2F3080121B94B
:100700006FEA52226FEA42220992184602A901F0CA
:100710004DFA0BB0F0BD254BDA6A9107DBD4DA6AEB
:10072000002AD8DBDA6A5200D5D55A69A16942F4A9
:1007300080725A61BFF34F8FBFF36F8F5A6931F8E0
:10074000021C22F480725A61BFF34F8FBFF36F8F88
:100750004DF60272914209D09A6AD2B242B101209A
:100760000DF10701FFF756FF0346B5E72368B3E72E
:100770009A6A12F47F4F05D001200DF10701FFF7AF
:1007800013FFF1E79B6AB3F5803FA4D3FFF7DEFECA
:10079000EAE700200DF10701E4E700200DF1070171
:1007A000EDE722F4FF7222F00102ADE700ED00E078
:1007B000064B5A6942F010025A615A6942F480624B
:1007C0005A615A6922F008025A61704700ED00E050
:1007D000EFF30880EFF3098101B57246FFF756FF8A
:1007E00001BD00BF002080F31488BFF36F8F00208D
:1007F00080F30A8880F30B8800F002FA00200E498B
:100800000860BFF34F8F0D4880F3088800F01AF896
:10081000202080F311880A484FF40061401880F3CB
:100820000988EFF314800221084380F31488BFF392
:100830006F8F00F039F8000094ED00E0E81100201F
:10084000E805002072B6002383F313884FF0FF30D1
:100850000C4A03F120010133102B42F82100F8D19A
:1008600000234FF0FF30074A03F160010133102BE2
:1008700042F82100F8D162B6BFF34F8FBFF36F8FFC
:10088000704700BF00E100E01EF0040F0CBFEFF363
:100890000880EFF30980816911F8021C0229FFD05A
:1008A00001B501F089F901BD0B4A08B50B4B22F0E7
:1008B0007F029A60BFF34F8FBFF36F8FD3F888200A
:1008C00022F47002C3F8882000F050FB00F092FB85
:1008D00000F02CF800F056FB0000000000ED00E0F6
:1008E000154680B506460C46002282F30B88094F58
:1008F000A7F5806888F30B8887F309884FF000001C
:1009000005498847204629461A46B047034880478C
:10091000FEE700BFE8110020D91B0000E71B000024
:100920001022014B1A61704700ED00E000232021E6
:100930000348C2180133452B82F80013F9D17047E0
:1009400000E100E008B5EFF30583064A103B02EB37
:10095000C30152F8330049688847BDE8084001F0F8
:1009600036B900BF8C22000008B50649064821F0C0
:100970000701C1F1005202F5E02200F0D6FF00208D
:1009800008BD00BFEF1100204005002000F01F024D
:1009900040090DD001280DD1094B03EB8203D3F898
:1009A000002222F0E04242EA0171C3F800127047CF
:1009B000044BF2E70023803253F82230FFDE00BF01
:1009C000002884500025845038B50124124B134D63
:1009D000C3F8004502230321C5F8D0360020FFF7F5
:1009E000D5FF20460321FFF7D1FF2146C5F8044774
:1009F0001620C5F80449FFF7C9FF21461720FFF765
:100A0000C5FF21461420FFF7C1FF21460620FFF74E
:100A1000BDFF002038BD00BF001000500040005056
:100A200007B50DF1070000F02FFA114B98421CD1C9
:100A30004FF480620F4B1049C3F8B8254FF40062A1
:100A4000C3F83C259DF8070001F0EAFA0B499DF830
:100A5000070001F0E0FA01209DF80730984000F00F
:100A60000DFA002003B05DF804FB6FF00B00F9E70E
:100A70000000AD0B00A002502CA0025028A1025093
:100A80000149024801F007B8302500004C0500205C
:100A90004FF47F032DE9F041D3F830210646072AB1
:100AA0000D46D3F8343120D1023B032B02D8124A31
:100AB000D35CD3B14FF050244FF00108002705203C
:100AC000C4F81886C4F8147600F0A6F94046C4F8B5
:100AD000148600F0A1F9C4F81476C4F818763046EC
:100AE0002B46BDE8F041002118474FF0502300226B
:100AF000C3F81426F3E700BFA62600001FB50023A5
:100B000001930393012369460548029300F0D6FF41
:100B1000029B9B0708BF039B05B05DF804FB00BF69
:100B20004C050020102208B5034BC3F84024FFF702
:100B3000E5FF002008BD00BF003000502DE9F04364
:100B4000224885B001F051FA002604461F4B204F81
:100B5000D3F83880DFF87C90B04503D8002005B08A
:100B6000BDE8F083636A97E807001D6801AB83E87E
:100B700007000C221946284601F0B6FA78B975B17B
:100B800022692B699A420AD1AB69A2699A4206D8B6
:100B9000E2699A4203D963696A6993430CD0256A72
:100BA00075B10D4800F01BFF002383F31188BFF3DC
:100BB0006F8F0423184602DFE36801361C44CBE73D
:100BC000484600F00CFF636A1D60F5E70002000074
:100BD000C024000007270000DE2600004FF47F033A
:100BE000D3F83021D3F83431072A05D1023B032B47
:100BF00002D8024AD05C70470020704742270000AC
:100C000008B5FFF7EBFF58B1784BD3F8202A3AB973
:100C10000D21C3F8201A0121C3F81C19C3F81C299F
:100C20000022D30003F57F03D3F80013013107D06E
:100C3000D3F800130132D3F80433202A0B60F0D12B
:100C4000FFF7CCFF002840F0B980FFF7C7FF40B1A5
:100C5000674B684AC3F830254FF050230122C3F890
:100C600058254FF47F03D3F83021D3F83431072AC5
:100C700009D1023B032B06D85F4AD35C1BB100228B
:100C80005E4BC3F84C25FFF7A9FF50B14FF050233E
:100C9000D3F80024D00742BF0022C3F81421C3F8C0
:100CA00018214FF47F03D3F83021D3F83431072AC9
:100CB00009D14FF05023D3F80024D10744BF6FF07F
:100CC0000102C3F80024FFF789FF18B16522474BE2
:100CD000C3F80C274FF47F03D3F83021D3F8343115
:100CE000072A16D1454BD3F82034002B11DA4FF0E8
:100CF00050230322C3F8182501229A60D3F8042157
:100D0000002AFBD00022C3F804210122DA60C3F8D4
:100D100018254FF47F03D3F83021D3F83431072A54
:100D200023D1023B032B02D8354AD35CEBB17E22A0
:100D30002E4B2F49C3F80C27C3F83C297F23314A97
:100D4000C2F818310023C1F8043EC1F8083E01F58D
:100D50004821C1F81031C2F82431C2F82C3102F513
:100D6000FF1202F58052C2F8A032274B9A6AD207CE
:100D70002CD501211E4AC2F80415D2F8001400290E
:100D8000FBD09A6A22F001029A62194BD3F8002430
:100D9000002AFBD00022C3F80425D3F80024002A3F
:100DA000FBD0BFF34F8F1949194BCA6802F4E062B8
:100DB0001343CB60BFF34F8F00BFFDE729220B4BDE
:100DC000C3F80C270322C3F83C273EE70F49D1F8AC
:100DD0008C2042F44062C1F88C2019680D4AC2F898
:100DE0004415DB69C2F84C3508BD00BF0040005017
:100DF000009003504400EFBE3E2700000020035047
:100E00003A270000002000500080FF0000ED00E0C5
:100E10000400FA050060005048B1054B054A1B6804
:100E2000B3FBF2F35843044B43F0010318477047F8
:100E3000BC04002040420F00E024000030B50468EC
:100E4000ACB1B4FA84F30122C3F11F03DBB29A40C0
:100E500024EA0202D0E8EF5FA54204D1C0E8EC2FFB
:100E6000BCF1000FF6D1EAD102480B7030BD024848
:100E7000FCE700BF0000AD0B0200AD0B014BC3F857
:100E800004057047007001500146014800F002B8A7
:100E9000C00400200079024B03EB0010FFF7CEBF27
:100EA000C804002008B5144BA8220021184601F000
:100EB00013F90322114902614261114A8161C26141
:100EC0004FF480620262002282624262C262016664
:100ED0000C4903464166102181660267C26642677B
:100EE000BFF35F8F084911F8010D98540132102AA1
:100EF000F9D1BFF35F8F08BD100400204627000022
:100F000010000020000000205F27000038B5094BCA
:100F100053F82040013053F82050A54200D838BD86
:100F2000636823B1204601F0ADF80834F5E7236883
:100F30009847FAE7A0250000012208B5094B0320D5
:100F40001A70FFF7E3FFFFF7E9FA01F0B7F80420A2
:100F5000FFF7DCFFFFF78EF9034A137B23F0010351
:100F6000137308BDE50500206805002008B5034897
:100F7000034A0021121A01F09DF808BD4005002027
:100F8000E805002008B50020FFF7C0FF164B03F569
:100F9000006282F3088883F30A880025E023134C5B
:100FA00084F82230E57725766576A57684F820509A
:100FB000636A43F4E023636284F82350FFF7F8FB8D
:100FC000FFF7AEFC4FF0FF33A362E36201F034F8A9
:100FD0000120FFF79BFF0220FFF798FF2B462A46D0
:100FE00029460348FFF77CFCE805002000ED00E0FF
:100FF000390F000008B50648064A0749121A01F0E1
:101000005BF8BDE80840054A0549064801F054B8B8
:10101000B8040020400500207427000000000000F4
:1010200074270000B804002010B50A4C23681BB1D7
:1010300001232360002010BD00F04EF80028F7D0F7
:101040000138072803D8044B53F8200010BD03488B
:1010500010BD00BFCC050020B8250000FE8FFFFFAB
:10106000BFF34F8F0549064BCA6802F4E062134391
:10107000CB60BFF34F8F00BFFDE700BF00ED00E086
:101080000400FA0530B44FF0FE3200250B4B0C4C37
:101090000C494968C3F80024C3F80424C3F80824A1
:1010A000C3F80C24C3F81024C3F81424C3F818247C
:1010B000C3F81C24C4F8005530BC084700508450C5
:1010C00000408450D8040020024BD0E90012C3E94C
:1010D00000127047D804002008B500F011F830B9AC
:1010E00000F010F838B9054AC2F80C0A08BD00F043
:1010F00037F8032008BD042008BD00BF005084500D
:101100000020704710B5114800F048F800B110BD3C
:101110000F4800F043F80028F9D10E4C204600F0AB
:101120003DF80028F3D10C4B0C481C6000F036F859
:1011300001460028EBD100F02DF8044608B1204606
:1011400010BD00F03FF82046FAE700BFF004002091
:10115000EC040020E8040020E0040020E404002067
:1011600008B5084800F024F8074800F021F80748BF
:1011700000F01EF8064800F01BF8BDE8084000F03B
:101180000BB800BFF0040020EC040020E8040020AD
:10119000E404002000207047704700BF08B5034BEF
:1011A00002681B6810689847002008BD08050020E9
:1011B00008B5034B02685B6810689847002008BDBB
:1011C0000805002070B5094C094D2069AB689847A7
:1011D00018B1084B08485B6898470021074AEB683C
:1011E00011602069BDE87040184700BFF40400207A
:1011F00008050020D8040020D8250000D0050020D4
:1012000010B5044650B1636813F0685F05D0064A14
:10121000934202D000236260236010BD034B044858
:101220005B689847EFE700BF2C5F5CA9D8040020FB
:10123000F8250000C8B143680D4A934213D013F05B
:10124000685F0ED0012350E8002F194640E8001CCB
:101250009CF0000FF7D1012AF5D0BFF35F8F00207B
:10126000704704487047044870476FF4E040704787
:101270002C5F5CA9E98FFFFFEA8FFFFF034680B177
:10128000426809498A420AD012F0685F05D0BFF36C
:101290005F8F002210461A60704704487047044868
:1012A00070476FF4E04070472C5F5CA9E98FFFFF47
:1012B000EA8FFFFF10B5044620B10023034A2360E4
:1012C000626010BD0248FFF7DDFEF6E73A00003A23
:1012D000202600002DE9F04F43688DB0154680466A
:1012E000029383789A0740F10D8100240E78002E36
:1012F00000F00A81252E0BD04B1C0393013441468C
:101300003046029B98470028C0F2F6800399EDE72B
:101310004E788B1C252E0393F0D00027B946BB4690
:10132000BBF11F0F38D8A6F12003102B0AD8DFE835
:1013300003F02A0909300909092109090928092D99
:1013400009091F00A6F13003092B33D92A2E37D102
:101350001BF0400F55F8043B40F08280002BA7BFE4
:101360004BF0200B9946C3F100094BF0280B01E02C
:101370004BF0010B039B13F8016B0393002ECFD1AD
:1013800030E04BF0020B4BF0040BF3E74BF0080B93
:10139000F0E74BF0100BEDE7BBF17F0F19D8A6F18A
:1013A0003003092BD2D81BF0400F03D00A2101FBD8
:1013B0000737DFE70A214BF0200B01FB0939D9E79A
:1013C0002E2E06D11BF0400F40F09E804BF0400BBC
:1013D000D0E76C2E31D02BD8682E36D06A2E3CD078
:1013E0004C2E3AD0002F46F02003B8BF2BF040021D
:1013F000A3F16501BCBF00271FFA82FB022901D9B6
:10140000612B2FD107350727DFF8ACA225F00705A0
:1014100008351BF0080F66D00AEB070B56465E45F1
:1014200063D1A4EB0A0AA9EB070906EB0A026FE1F4
:10143000742E9FD07A2E9DD0D4E71BF0800F18BF5A
:101440004BF4007B4BF0800B94E71BF4807F18BFBC
:101450004BF4007B4BF4807B8CE74BF4207B89E7DB
:101460001F4687E7A6F16301122900F2F080DFE84A
:1014700011F013004F00EE00EE00EE00EE004F0002
:10148000EE00EE00EE00EE00EE00FE00E900EE00E1
:10149000EE001B00EE00AF0055F8043B01270DF1F4
:1014A000180A8DF81830B4E755F804AB834BBAF13D
:1014B000000F08BF9A461BF0400F504614BF394634
:1014C0004FF0FF3100F020FE0746A2E74146202002
:1014D000029B984700280FDB013EB742F6D34C44ED
:1014E000B146A41B98E74E46F7E7414616F8010BB4
:1014F000029B9847002892DA98F8023043F00403E0
:1015000088F802304FF0FF3420460DB0BDE8F08F70
:101510001BF0800F34D01BF4007F2CD0073525F052
:101520000705AA4669685AF8080B2BF01005002930
:10153000ADB237DA404245F4806561EB41010DF10F
:10154000180B0A235A4600F0EBFDA0EB0B030193A6
:101550006B0662D5019B25F001019F4289B240F3E1
:10156000A180002E00F0998015F0100240F09C80C0
:10157000BB460D4623E0AA465AF8040BC117D4E730
:10158000AA461BF4807F5AF8041B01D10846F5E7F0
:101590001BF4007F19BF48B241F3C01108B241F3F8
:1015A000C031C2E750EA0103C9D11BF0400FC6D0D9
:1015B000002FC4D12BF01102BB46019795B240F227
:1015C000064115EA01021CBF0BF1010B00222CE0C1
:1015D0002BF010020A231FFA82FB1BF0800C49D06B
:1015E0001BF4007115BF0735AA4625F007055AF808
:1015F000040B1EBFAA4669685AF8080B50EA010599
:1016000045D12BF016051BF0400FADB242D0002F94
:1016100040D12BF01702019795B215F0100248D077
:10162000019B002E42D103F1010B29075AD4EB078D
:1016300006D5D9456FDDA9EB0B030199CB465F18A1
:101640005B4649E04BF0100B10237826C5E7782B5A
:1016500004D1C6F1780343F01003BEE741462520CC
:10166000029B98470028FFF647AF023447E608235D
:101670000026B2E7AA461BF480715AF8040BBDD0CD
:101680001BF400711ABFC0B2614680B2B6E72BF0FE
:10169000060295B20DF1180B54E725F01105BB4673
:1016A000ADB28CE70D46B8E73B460D4603F1020BA1
:1016B000BBE7DDF804B082E7672700006027000081
:1016C000CDE9043241462020029B98470028FFF6CE
:1016D00013AF049B059A01339945F1DCA4EB0B0190
:1016E0009B46CC180AB341463020029B98470028FD
:1016F000FFF602AF8EB901342744391B019B994292
:1017000024DC1D4655BB019AA9EB0B095546224422
:101710001446914433E0019F92E70234414630463B
:10172000029B98470028E7DAE6E640F206410D42C0
:10173000E2D015F0020F04F10104414614BF2B2042
:10174000202015F4806F18BF2D20E9E74146302096
:10175000029B013498470028CFDACDE606AB013D65
:101760004146585D029B98470028CBDAC4E64146C3
:101770002020029B013498470028FFF6BDAEA9EB5C
:101780000403002BF3DCC1E5704772B6002340F878
:10179000103B8842FBD9BFF34F8F30BFFDE70A44AF
:1017A0008A4200D1704711F8013B40BA80B25840DC
:1017B000C0F303134340180380B24340580100F4C0
:1017C000FF505840ECE7F0B50144054618469DF837
:1017D00014608D4200D1F0BD15F8013B584008233C
:1017E0005EB100F001075C1E400897B182EA000379
:1017F000D8B22346002CF4D1EBE710F0800F4FEA6B
:101800004000C0B203F1FF3318BF5040002BF4D1A9
:10181000DFE72346002CE3D1DBE7836800EBC1015F
:10182000B3F5004F2CBF51F8220031F81200704779
:1018300000EBC1018068B0F5004F2CBF41F82230A9
:1018400021F812307047012208B5FFF7E6FFD040BB
:1018500008BD836800EBC101B3F5004F08D34B68A6
:101860001AB143F001034B60704723F00103FAE71C
:101870004B881AB143F001034B80704723F00103FA
:10188000FAE753000122FFF7D3BFB0F5004F34BF92
:1018900004230823481C0833A0EBD300B0FA80F0DF
:1018A000C0F11F0070472DE9F0410D4686680446DF
:1018B000FFF7C9FFB6F5004F014601D3012832D02A
:1018C0003046FFF7E2FF04EB80010E6996B9012272
:1018D000E36882401343E36002220D612B462946F0
:1018E0002046FFF7A5FF032229462046BDE8F04128
:1018F000FFF79EBF022231462046FFF78EFF0746C4
:10190000034629462046FFF793FF03223346294624
:101910002046FFF78DFF39462B462046FFF788FF0C
:1019200002223146E1E7BDE8F081B2F5802F2CBFFD
:10193000082304232DE9F0410026D21A8C18CD1D6E
:1019400025F0070524F00704641BE4080560214620
:101950002046AC60EE60FFF798FF421D9200013018
:1019600002F107074FEAD7073146A2F1100205F14D
:101970001000B8BF324600F0AFFB3A463146284669
:10198000FFF77FFF3346324631462846FFF750FFC8
:10199000A4EB0708284631460122FFF75AFF4246CA
:1019A0003946FFF76EFF3B46324639462846FFF779
:1019B0003FFF21462846FFF764FF43463246214653
:1019C0002846FFF735FF214628460122FFF741FF51
:1019D0003946BDE8F041FFF766BF002070470FB4FD
:1019E00007B504A951F8040B0191FEF771FC03B08F
:1019F0005DF804EB04B07047038B13F0070305D1C7
:101A00000368002B0CBF002003207047022B05D178
:101A1000408BB0FA80F0400980007047012B05D15F
:101A20000368002B0CBF0020052070470020704782
:101A300010B50C4600B111B96FF0150010BD081DAE
:101A400000F093F80028F9D1A368032BF6D9F3E747
:101A50002DE9F0410D4607461946281D90461E46C1
:101A600000F094F8044638B13346424629463846D9
:101A7000A446BDE8F0416047BDE8F08110B4EFF343
:101A80001182202484F31288BFF36F8F416110BC50
:101A90000121FEF735BC38B50C46054658B151B1A9
:101AA0000B6843B14B6833B11C22002100F014FBDA
:101AB00000202C6138BD6FF01500FBE770B50546BE
:101AC0000E46FFF7B5FF041E14DBEFF3118220234F
:101AD00083F31288BFF36F8F4FF6FF716B8B2C8BE4
:101AE0008B4204F0070407D182F31188BFF36F8F94
:101AF0006FF00A04204670BD022C0CD101336B83B9
:101B000082F31188BFF36F8F0023224631462846A7
:101B1000FFF79EFFEEE7062C14D8DFE804F004136D
:101B20001313041A0400002333606B683BB9C5E942
:101B30000066ACB902212846FEF7E2FBDAE71E6038
:101B40006E60F6E782F31188BFF36F8F6FF00404C5
:101B5000D0E782F31188BFF36F8F6FF08504C9E778
:101B600082F31188BFF36F8FC4E7034658B1426810
:101B700002F00302012A03D0032A04D1026812B141
:101B80000020986070476FF0150070474268034668
:101B900002F00302032A4FF00002816014BF1046D6
:101BA00000685A6070477047FEE77047012801D10E
:101BB000EFF3058300F057BA01460068FFF7F6BF60
:101BC00008B5FEF7BFFCBDE8084000F000B870475C
:101BD00000210120FFF7EABF61B662B680F31188E9
:101BE000BFF36F8F7047EFF31180202383F31288C8
:101BF000BFF36F8F70470B464FF050220121C2F8A0
:101C00001416002118472DE9F04106460D461746E7
:101C10001C46ABB1D0F80880D8F800309847002DAA
:101C200011DB84420FD8031BAB420CD3D8F804E07D
:101C300023463A4629463046F446BDE8F04160471F
:101C40001846BDE8F0816FF01500FAE72DE9F04184
:101C500006460D4617461C46ABB1D0F80880D8F8AA
:101C600000309847002D11DB84420FD8031BAB4294
:101C70000CD3D8F808E023463A4629463046F446C5
:101C8000BDE8F04160471846BDE8F0816FF01500EF
:101C9000FAE74368D3E90203C01A704770B4002919
:101CA0001C4640680DDBD0E902560C44AD1BAC422B
:101CB00007D844682144447C0068214470BCFFF785
:101CC000A2BF6FF0150070BC70477FB50024066995
:101CD000456810220021684600F0FEF92046347065
:101CE000AB68A34201D804B070BD1B1B6968102B00
:101CF00028BF10236A4628682144FFF7A7FF002861
:101D0000F1DBAB681B1B102B94BFE4181034E7E722
:101D100010B54468206800F090F970B120688368BD
:101D20001B689847002807DBD4E90132134483423B
:101D30008CBF6FF01500002010BD6FF01200FBE7A4
:101D40002DE9F047037C05465A1E012A0C4686B051
:101D500001D9042B3FD14FF0000A6FF057086F688C
:101D60006E7CAA683E441744FF1AC4F800A0B7422C
:101D700003D8404606B0BDE8F087A7EB0609B9F1E5
:101D8000100F28BF4FF0100931464B46286802AAB1
:101D9000FFF739FFB0F10008EBDB2B7C012B0AD1F8
:101DA000CDF800A012224946237802A8FFF70BFDC8
:101DB00020604E44DBE7022B05D14A46208802A969
:101DC000FFF7EDFCF4E7042BF3D14A46206802A9A3
:101DD000FEF75AFAECE76FF05708CAE72DE9F04131
:101DE00044688046238A86B0002B5DD0637C33B183
:101DF00000260769657CB54205DC01233B70267C23
:101E0000EEB9012016E0AD1B102D28BF102561682A
:101E10002B46206802AA3144FFF7F5FE002809DBB3
:101E200006F112002A4602A9204400F05DF920B113
:101E30000020387006B0BDE8F0812E44DAE70023B8
:101E4000CDE90133D8F8040001A9A568FFF778FFB0
:101E50000028EFDB237CA91B012B10D160680DF15A
:101E6000020201442068FFF7CEFE9DF80230029383
:101E70000028DFDBDDE901239A42DBD1C1E7022B39
:101E800009D160680DF1020201442068FFF7BBFE32
:101E9000BDF80230EBE7042BECD1606802AA0144E4
:101EA0002068FFF7B0FEE3E76FF08500C2E7F7B503
:101EB000054600296C682E694CDBD4E9027003EBFF
:101EC000010C3F1ABC4545D860680144607C014460
:101ED0002068FFF7BBFE002826DB637C5BB132780D
:101EE0004AB9D4E9000104F11202FFF7AFFE00285D
:101EF0001ADB01233370237CB3B10023686801A986
:101F00000193FFF71DFF00280EDB237C012B0DD171
:101F1000019A8DF80220D4E90112114401390DF122
:101F200002022068FFF792FE03B0F0BD022B09D138
:101F3000019AADF80220D4E90112114402390DF1E1
:101F40000202EEE7042BEFD1D4E901121144043967
:101F500001AAE6E76FF01500E6E700207047436846
:101F60005868704708B5436800215A68186800F03F
:101F7000B3F8002008BD10B50C4611464268106841
:101F80001A46204400F09BF8002010BD10B504460E
:101F90001046626814681A46214400F090F8002048
:101FA00010BD0020704743685868704708B5436803
:101FB00000215A68186800F08FF8002008BD10B59D
:101FC0000C461146426810681A46204400F077F823
:101FD000002010BD10B504461046626814681A4609
:101FE000214400F06CF8002010BD03465A6B00231A
:101FF0003C309A4200D17047C16801330844F8E789
:10200000FFF712B808B5FEF797FAFFF7CEFDBDE867
:102010000840FFF709B840F00040C1F88000704761
:1020200040F00040C1F880007047FEF73BBF08B5A4
:10203000FFF7FBFF002008BD704740B1C368587828
:1020400010F001001EBF1878B0FA80F04009704708
:10205000EFF31183202383F31288BFF36F8FFEE722
:1020600008B5FFF7F5FF10B5EFF31184202383F3D4
:102070001288BFF36F8FFFF7F3FF84F31188BFF36C
:102080006F8F10BD10B5D0E9003433B90020E2687D
:10209000537843F00103537010BD20469847002841
:1020A000F4D00028B8BF4042FF28A8BFFF20E36853
:1020B0001870ECE700F010B800F001B870470A445F
:1020C000431E914200D1704710B511F8014B914267
:1020D00003F8014FF9D110BD02440346934200D1E9
:1020E000704703F8011BF9E70139024410B590422B
:1020F00001D1002005E0037811F8014FA34201D07F
:10210000181B10BD0130F2E70246014410B58A42A7
:10211000134603D01C780132002CF8D1181A10BDD8
:10212000F0B5C3F13707044603F01F031046FFB2B2
:10213000082BE6B232D0102B3DD06508A40845EA42
:10214000C17544EA81748A082D1942EB51022909AC
:1021500041EA02716D1842EB1212290A41EA02614A
:102160006D1842EB1222290C41EA02416D1842EB34
:102170001242AD1842F10002EC0844EA4274D10860
:1021800004EB8402A6EB4205EDB2092D0CD9013413
:10219000A5F10A0541F10001EDB212E0E40806F0F4
:1021A000070544EA4174C908303554EA010200F8D1
:1021B000015BBDD1F0BD240906F00F0544EA0174AE
:1021C0000909092D84BFED19EDB2EDE7C909000039
:1021D00000000000810A0000000000003D02000035
:1021E000000000002F20000000000000012000007F
:1021F00000000000210A0000000000006909000042
:10220000000000005B1F0000502200005B1F000068
:102210003C220000A31F00006422000005200000F3
:1022200000000000250B000000000000111D000050
:10223000782200003D0B000000000000B6260000E0
:1022400068250000782500003A0500200000000005
:10225000C426000070250000782500003C05002001
:1022600000000000D2260000882500009025000014
:102270003E05002000000000AA2600003C250000CA
:102280005425000038050020E4050020000000006F
:10229000D11B000000000000D11B00000000000066
:1022A000D11B000000000000D11B00000000000056
:1022B000D11B000000000000D11B00000000000046
:1022C000D11B000000000000D11B00000000000036
:1022D000D11B000000000000D11B00000000000026
:1022E000D11B000000000000D11B00000000000016
:1022F000D11B000000000000D11B00000000000006
:10230000D11B000000000000D11B000000000000F5
:10231000D11B000000000000D11B000000000000E5
:10232000D11B000000000000D11B000000000000D5
:10233000D11B000000000000D11B000000000000C5
:10234000D11B000000000000D11B000000000000B5
:10235000D11B000000000000D11B000000000000A5
:10236000D11B000000000000D11B00000000000095
:10237000D11B000000000000D11B00000000000085
:10238000D11B000000000000D11B00000000000075
:10239000D11B000000000000D11B00000000000065
:1023A000D11B000000000000D11B00000000000055
:1023B000D11B000000000000D11B00000000000045
:1023C000D11B000000000000D11B00000000000035
:1023D000D11B000000000000D11B00000000000025
:1023E000D11B000000000000D11B00000000000015
:1023F000D11B000000000000D11B00000000000005
:10240000D11B000000000000D11B000000000000F4
:10241000D11B000000000000D11B000000000000E4
:10242000D11B000000000000D11B000000000000D4
:10243000D11B000000000000D11B000000000000C4
:10244000D11B000000000000D11B000000000000B4
:10245000D11B000000000000D11B000000000000A4
:10246000D11B000000000000D11B00000000000094
:10247000D11B000000000000D11B00000000000084
:10248000D11B000000000000D11B00000000000074
:10249000D11B000000000000D11B00000000000064
:1024A000D11B000000000000D11B00000000000054
:0424B000D11B00003C
:1024C000DEE61E28EAAC45B802350000DEE61E282E
:1024D0004CBBCE8F02350000000000000000000061
:1024E0000338FDD870470000000000006410B71DDD
:1024F000C8206E3BAC30D9269041DC76F4516B6B32
:102500005861B24D3C7105502083B8ED44930FF0F3
:10251000E8A3D6D68CB361CBB0C2649BD4D2D386A9
:1025200078E20AA01CF2BDBD00000000A91B00005B
:10253000910A0000F71B0000000000006422000068
:102540000000000000010000030000000102080478
:1025500000000000931C0000DD1D00009D1C000019
:10256000AF1E0000CB1C00002055005001000000F1
:102570001C550050010000005F1F00008D1F00006F
:10258000771F0000651F000000FC0720000400000A
:10259000A71F0000D51F0000BF1F0000AD1F0000D7
:1025A000CC210000CC210000F4210000F421000027
:1025B0003C2200003C220000FF8FFFFFFF8FFFFF47
:1025C000FE8FFFFFFE8FFFFFFD8FFFFFFC8FFFFFE2
:1025D000FC8FFFFFFB8FFFFF436F756C64206E6FF6
:1025E00074206C6F636B20706F77657220736176F7
:1025F00065206D75746578006D757465785F6672B9
:1026000065652063616C6C65642077697468204E31
:10261000554C4C20706172616D65746572000000EC
:1026200043616E277420696E697469616C697A65AB
:10263000206D757465782C20776173204E554C4C55
:102640000D0A002A2A2A20426F6F74696E67206E75
:10265000524620436F6E6E6563742053444B207660
:10266000322E392E302D37373837623236343938FA
:102670003430202A2A2A0A002A2A2A205573696E11
:1026800067205A6570687972204F532076332E3751
:102690002E39392D3935623462373530383937645F
:1026A000202A2A2A0A0000000001626F6F745F6D01
:1026B0006F646540300067707265677265743240A0
:1026C000353230006770726567726574314035313C
:1026D000630072657461696E65646D656D00455275
:1026E000524F523A2043616E6E6F742066756C666D
:1026F000696C6C204558545F415049207265717572
:102700006573742E0D0A005741524E494E473A20C8
:102710004F7074696F6E616C204558545F41504929
:102720002072657175657374206E6F742066756CA8
:1027300066696C6C65642E0D0A00000000010101E1
:102740000000010000005465726D696E616C00004C
:1027500000000000005454522052454747455300A2
:10276000286E756C6C29002A666C6F61742A0000F3
:1027700000000000DB1900000090D0030070015041
:1027800000000000FFFFFFFF3F000000FFFFFFFF12
:102790003F0000000000000061100000E80400207D
:1027A00004050020FC040020F8040020F4040020AC
:1027B0003005002028050020200500200000000032
:1027C00018050020B51200000112000035120000AB
:1027D0007D120000D40500203A00003AD805002000
:1027E0003A00003ADC0500203A00003AE0050020FB
:1027F0003A00003A000000000000000015E015E07B
:00000001FF
