:020000040000FA
:10000000808D0020C1C80100174D0200ADC801005D
:10001000ADC80100ADC80100ADC80100000000007E
:100020000000000000000000000000002DCA0100D8
:10003000ADC8010000000000C9C90100ADC8010041
:10004000E1CB0100D55F0200E1CB0100E1CB010073
:10005000E1CB0100E1CB0100E1CB0100E1CB0100EC
:100060008B5F0200E1CB0100E1CB0100BF5F02002A
:10007000E1CB0100E1CB0100E1CB0100E1CB0100CC
:10008000E1CB0100E1CB0100E1CB0100E1CB0100BC
:10009000E1CB0100E1CB0100E1CB0100E1CB0100AC
:1000A000E1CB0100E1CB0100E1CB0100E1CB01009C
:1000B000E1CB0100E1CB0100E1CB0100E1CB01008C
:1000C000E1CB0100E1CB0100E1CB0100E1CB01007C
:1000D000E1CB0100E1CB0100E1CB0100E1CB01006C
:1000E000E1CB0100E1CB0100E1CB0100E1CB01005C
:1000F000E1CB0100E1CB0100E1CB0100E1CB01004C
:10010000074B1B78002B4FF0000383600360054B07
:10011000436014BF02220122FF23C27103727047A1
:10012000100A002028010800064B074A9B7802604D
:100130004FF412728280C37108220023827103720D
:10014000704700BF100A00204BB70100064B074A5A
:10015000DB7802604FF432728280C3710822002380
:1001600082710372704700BF100A002061B5010060
:10017000064B074A1B7902604FF4B4728280C37148
:100180000822FF2382710372704700BF100A00200B
:100190000BB101002DE9F341C41D002824F0070430
:1001A000064614BF2046002000F040FD071E04DA7A
:1001B0006FF00B0002B0BDE8F0810EB9FC42F7D43D
:1001C000364D698928896B7B2A7B0331033089B2DC
:1001D00080B217F030FB0028EADBA978EB783C44CA
:1001E0000334002E194424F0030400FB01F114BF72
:1001F0002046002000F0A6FE20440EB90028D7DBE0
:100200002B790446B3B1697D19446B791944FF29F0
:10021000CEDC0330002E20F0030414BF2046002063
:100220002A8AC9B200F0FEFE0028C1DB04440EB9E0
:10023000002CBDDB012000F0EFFCC8B1A97BB9B1F7
:1002400095F82C300734002B15BF402325234FF49D
:100250008172282224F00704002E14BF20460020BB
:1002600006F07CFD0028A3DB04440EB9002C9FDBC4
:10027000AB7CE3B12B799BB10734002E24F007044B
:1002800014BF20460020A97C0DF03CF900288FDB2C
:10029000044466B9002C0ADA8AE700BF100A00207D
:1002A000012000F0B9FC10B1AB7B002BE4D1724B04
:1002B0001B6893B1A97981B10334002E24F00304A3
:1002C00014BF20460020EA7C98470028FFF670AF54
:1002D000044416B9002CFFF66BAF684B1B688BB15A
:1002E000297D79B10334002E24F0030414BF204685
:1002F000002098470028FFF65BAF044416B9002C95
:10030000FFF656AF5E4B1F68AFB1697D99B10334FC
:10031000002E2B7E009324F0030414BF20460020FF
:10032000EB7DAA7DB8470028FFF642AF044416B91A
:10033000002CFFF63DAF072000F06EFC98B1A979C4
:1003400089B10334002E24F0030414BF204600209A
:10035000AA7E00F055FF0028FFF62AAF044416B924
:10036000002CFFF625AF95F82500B6FA86F77F0931
:10037000A0B1EB7F297F033424F00704194444F033
:1003800004043B462246C9B200F07CFF0028FFF679
:100390000FAF044416B9002CFFF60AAF95F82610EB
:1003A000002959D00734002E24F0070814BF404616
:1003B00000202A8D17F054FA041EFFF6F9AE4444CB
:1003C00016B9002CFFF6F4AE1EB1298D404612F08E
:1003D000C5FC95F82010002940D095F82430002B5A
:1003E0003CD06A8C0734002E24F0070802F1240266
:1003F00014BF4046002092B217F032FA041EFFF6F6
:10040000D7AE444416B9002CFFF6D2AEAB7F297F9D
:1004100095F82400033424F00704194444F004043C
:100420003B462246C9B200F01FFF0028FFF6C0AECF
:10043000044416B9002CFFF6BBAE3EB16A8C95F8A9
:100440002010083292B2404612F08EFC2B6B5BB14A
:1004500076B12C630020ADE68846B5E7002EF5D0D6
:10046000002211461046EFE7002EF3D12046A1E608
:100470002834FBD59CE600BF5C000020640000200F
:10048000600000201FB572B6184B5D6BE5B9BFF375
:100490004F8F1749174BCA6802F4E0621343CB60D1
:1004A000BFF34F8F00BFFDE7B2FBF6F2DCB20133C2
:1004B000002AF9D104F110036B4403F80C2C0A2232
:1004C00034B901A8A847E2E7024600230A26EDE76F
:1004D000631E04AEDCB256FA83F3B0FBF2F602FB05
:1004E0001600303003F80C0C3046E9E7100A002003
:1004F00000ED00E00400FA0513B5114C637B8DF8A4
:100500000130237B8DF800306389ADF804306846F4
:100510002389ADF802300AF04FFD18B1DB2103202A
:10052000FFF7B0FF207E0AF0ABFD08B1DE21F6E751
:10053000E07D0AF09FFD08B1DF21F0E702B010BDB9
:10054000100A002038B5054600283ED015F0DEFD23
:1005500010B94FF0FF3038BD13F032F8B0F5FA7F24
:10056000F7D81C4C1C486563002500F0CFFA2A22FE
:100570002946A01C84F83850257084F82C50256337
:1005800016F084F91B222281628140F2032240F29C
:100590000113A28103226380A27301231F2223710E
:1005A0002282A3764FF40272F7236282638444F6B8
:1005B0000112FB23E2822385EFF3108472B600F070
:1005C00071FE2CB962B62046C5E76FF01500C2E790
:1005D0002846C0E7100A0020F904000038B5144688
:1005E000002840F0B9805E4D95F83830032B00F0BC
:1005F000B080B1B112B96FF0150038BD01391429BE
:1006000000F2AA80DFE801F00B1C1F345E67853A18
:100610006A6D7F404654598B8E9C9FA2940013783C
:10062000AB700020FFF7B6FD0028B7BF01230223FF
:1006300085F838306FF00B00A8BF85F83830DCE75C
:100640001378EB70EDE71379002BD4D05379002B9E
:10065000D1D01288FB2ACED81A2A6388CBD91B3B6B
:10066000E02BC8D82368AB603E4BA2889A80D8E7BD
:1006700013786A799342BED32B71D2E713782A7923
:100680009342B8D86B71CCE713782A799342B2D8E9
:100690006B75C6E71378002BADD05378013BDBB206
:1006A000F82BA8D81388EB822F4B92789A70B8E772
:1006B0001078687610F0A6FBB3E71378002B9AD079
:1006C000AB76AEE7012000F0A7FA237808B1012B42
:1006D00091D9AB73A5E713882B82A2E71378AB718E
:1006E0009FE7072000F098FA10B92378012B82D9F0
:1006F000072000F091FA18B12378002B3FF47BAF6C
:100700002378EB748DE71378082B3FF674AF2B75C5
:1007100087E71388FF2B3FF66EAFAB7481E7137842
:10072000EB767EE713780E2B3FF665AF2B7778E7F5
:1007300023680E4A2B62636853602389138170E734
:1007400013786B776DE71378EB776AE71378AB77FD
:1007500067E74FF0FF3050E76FF02C004DE700BF28
:10076000100A0020180A0020260A0020300A002063
:10077000F8B50D46064630B329B311F0070422D16F
:10078000124F97F83830012B02D16FF00B00F8BDF3
:10079000032B02D14FF0FF30F9E700F0E7F8002813
:1007A000F8D02846FFF7F6FC0028EEDB1BF0A4F893
:1007B0003046396B0AF03CFDFFF79EFE032387F8B5
:1007C00038302046E3E76FF01500E0E7100A00201C
:1007D00010B5074C94F83830032B03D10AF044FDD0
:1007E0000BF0AEFE17F084F9002084F8380010BD3D
:1007F000100A002050B1074B03F1140253F8041BF8
:1008000040F8041B9342F9D1002070476FF01500A7
:10081000704700BFC878020010B5074B93F8384006
:100820003CB90AF097FC0320044900F0EDF920469A
:1008300010BD4FF0FF30FBE7100A002071010000EF
:1008400010B5074B93F838403CB90AF097FC0220EA
:10085000044900F0D9F9204610BD4FF0FF30FBE706
:10086000100A00204D01000008B50C4B93F8382009
:100870008AB993F82C305BB10AF0BEFC084901201C
:1008800000F0C2F90020074900F0BEF9002008BDC1
:100890000AF096FCF2E74FF0FF30F8E7100A00206C
:1008A000010100002901000010B5054B93F8384004
:1008B0001CB90AF001FC204610BD4FF0FF30FBE7E9
:1008C000100A002010B5054B93F838401CB90AF007
:1008D000E5FB204610BD4FF0FF30FBE7100A00207B
:1008E00010B5054B93F838401CB918F06CFA204647
:1008F00010BD4FF0FF30FBE7100A002010B5054B8C
:1009000093F838401CB918F061FA204610BD4FF03A
:10091000FF30FBE7100A002010B5054B93F8384074
:100920001CB918F056FA204610BD4FF0FF30FBE717
:10093000100A002010B5054B93F838401CB918F088
:100940004AFA204610BD4FF0FF30FBE7100A0020A6
:10095000024B02681A600020704700BF4C0A00205A
:10096000014B1B68184700BF4C0A0020024B186857
:10097000003818BF012070474C0A0020F7B52E4EF2
:100980000446071D2C4837600BF0FAFD0228054687
:1009900006D12949204616F0EEF8284603B0F0BDEE
:1009A000042842D13378092B0AD0262B1ED0314699
:1009B000204616F045F9B0F5817F2DD3722112E063
:1009C00005213E2016F0AAF80028F0D1F3783279FC
:1009D00001A943EA02236846ADF8003016F0E9FCAD
:1009E0000028CFD053210820FFF74CFD1A213E20CC
:1009F00016F094F80028DAD17368C3F30F23ADF82A
:100A000004306946112301A88DF8063016F0F3FC76
:100A10000028B7D06521E6E70028B3D0A178207878
:100A200016F07CF80028B8D1ACE70828B5D1024907
:100A3000204616F0CFF8B0E7500A0020074B4FF0E1
:100A4000FF3141F6FF72C3E9001205490022C1E9F6
:100A500000221F21C3E90212704700BF00000020DE
:100A6000540B00203F280CD801380B4BC0F3421226
:100A700000F01F0053F8223023FA00F000F00100CC
:100A80007047FF2806D04038C0F34212034B00F0F5
:100A90001F00EFE70120704700000020540B0020EA
:100AA0000146074B006849681A4603C240F48C228D
:100AB0001A6041F0107242F4FF625A60704700BF42
:100AC000000000200246024B0068516803C37047D3
:100AD000540B00200246024B0068516803C3704764
:100AE00008000020FD281ABF00F1FF30C0B23F20EF
:100AF000054B420903EB820300F01F009B6823FAB9
:100B000000F000F00100704700000020014B186069
:100B1000704700BF5C0B002010B5FFF78FFF17F088
:100B200068FB034B1B68044603B19847204610BD81
:100B30005C0B00200B880288F0B5C3F30E049EB254
:100B400004F11803C57CC35A02352A442B4497B2DA
:100B500013FA82F3013B4288B3FBF7F313FB07431D
:100B60009BB29A42044A93BF22EA060332401343DF
:100B70009BB20B80F0BD00BF0080FFFF4A1E062A1B
:100B800008B50346084604D84FF4D1711520FFF785
:100B900079FC094A914202D940F2A311F6E711B952
:100BA00003B1196008BD2BB11B680022C3E9012104
:100BB0001A1D1A600430F5E7FAFFFF7F10B5114BDC
:100BC00000EB41041A786389B3FBF2F303FB0223C1
:100BD000013A1A44B2F5706F027928BF00231A4413
:100BE0008378B2FBF3F0194403FB1020091AB1FB20
:100BF000F3F003FB101313446FEA43436FEA5343CC
:100C0000638110BD600B0020024B03EB8003596031
:100C1000704700BF600B0020034B03EB8003586854
:100C2000003818BF01207047600B00202DE9F04FFD
:100C300010F0070A85B0054604D040F26111172074
:100C4000FFF720FC554F07F14006B1460446B04679
:100C50004FF0010B57F8043B8DF80BA03BB101A8F6
:100C600098479DF80A30082B01D9E821E7E79DF85D
:100C70000B1081BB05B13160B94506F10406E9D11D
:100C80002DB3DFF81CE100238EF800301E460F2242
:100C900058F82200013A60B190F804A08178BAF1C6
:100CA000FF0F66D14FF000078E4207713CBFCEB2F6
:100CB0000123511CECD10BB18EF800600F2640F6D9
:100CC000FF6A58F82670002F65D1013EF9D2601BEB
:100CD00005B0BDE8F08F9DF80AC0BCF1020FE646F2
:100CE00001F1050238BF4FF0020E0EF1FF3004EBA8
:100CF00042040444CEF100002040BDF808406444A2
:100D0000013CCCF1000C04EA0C04B4F5803F4FEA3E
:100D1000420301D3F82192E775B1C31A3360997089
:100D20001C8083F803B09DF80C201A71019A1A8177
:100D30004FEA124CA3F806C004FB01049CE758F8E4
:100D40002C90B9F1000F06D099F804B0D34504BF38
:100D500099F802904F440CF1FF3CBCF1000FEEDA21
:100D60003944FF29A0D90BB18EF8006040F2271159
:100D700065E794460027F0E707EB41033846A3F800
:100D80000AA0FFF71BFF09F10109BB785FFA89F19F
:100D90008B42F1D899E74FF00009F6E7640B002089
:100DA000600B0020F8B54FF6FF730380184B03EB80
:100DB00081030546586CB8B186780379B3FBF6F227
:100DC00006FB1233DBB219460A1D00EB4202B2F9F0
:100DD00002705488002F09DB0131B1FBF6F206FBEB
:100DE0001211C9B28B42EFD10020F8BDFF29FBD010
:100DF000C4F30E03C4782B8024B94FF4D5711720A7
:100E0000FFF740FB5380BDE8F84016F0F3BC00BF8D
:100E1000600B00201D4B03EB810370B55C6C054635
:100E200044B3030404D54FF4DC711720FFF72AFB09
:100E30000146204616F0C0FCFF28014604D020469B
:100E4000BDE8704016F0D6BCA078B5FBF0F300FB0F
:100E50001353DBB219460A1D04EB4206B6F90260D1
:100E6000002E09DB0131B1FBF0F200FB1211C9B217
:100E70008B42F0D1002070BDFF29FBD08B4204EBE8
:100E800042021CBF0023E3705580D8E7600B0020AE
:100E9000094B03EB810310B55C6C0146204616F04C
:100EA0008BFCFF28014604D02046BDE8104016F018
:100EB000A1BC002010BD00BF600B0020F8B5104B96
:100EC00003EB810307465C6C0146204616F074FC78
:100ED000FF28054611D0E688238953EA064606D046
:100EE0000146204616F086FC01463846B0472046AB
:100EF0002946FFF763FE0020F8BD0520FCE700BF90
:100F0000600B002038B50E4B827903EB8203044658
:100F1000586C08B9052038BD8278E1799142F9D240
:100F20004B1CE37100EB41035D89B3F90A30002BE0
:100F3000F3DBA58016F05EFC20600020EBE700BF2D
:100F4000600B002070B5044610F003000E4603D07D
:100F50004F211820FFF796FAFFF710FE054624B13F
:100F6000034831460460FFF709FE284670BD00BF04
:100F7000E40B00202DE9F14FDFF870B09DF828A0B8
:100F80009DF82C901E46DBF8003007460D46904633
:100F90001BB961211820FFF775FA52460921404616
:100FA00016F07AFA4A4684B20921304616F074FAED
:100FB00014FA80F1DBF8000016F0D3FB386018B9A2
:100FC000286001B0BDE8F08F04442C6038685346B7
:100FD0004146092216F019FA28684B460922314683
:100FE00001B0BDE8F04F16F010BA00BFE40B0020CE
:100FF00070B50E46044616F062FA0546304616F005
:101000005EFA044B2A1821461868BDE8704016F0B5
:10101000CCBB00BFE40B0020014B186816F095BB59
:10102000E40B00201F2AF8B5044613460ED89200A0
:10103000033222F00303B3F5803F2DD2184DACB13B
:10104000A00710D05F210920FFF71CFAFF2B4FEA01
:10105000420204D9FF339A42A8BF1A46E8E77C2A25
:10106000B8BF7C22E4E729706C602B8122F0030278
:1010700001EB81031204D80001276B68120C0025D4
:10108000EEB28E4200D3F8BD14B126181F705E6018
:10109000104401352833F3E74FF0FF30F3E700BF8A
:1010A000E80B002038B5144A147853680021C8B200
:1010B000844203D8AB210920FFF7E4F91846013137
:1010C00005782833002DF2D0002181700124128987
:1010D000447044688161C161920800F12001051DDE
:1010E00021F8022B994245F8044B1444F8D100230F
:1010F0004361037038BD00BFE80B00200A4B1B8919
:10110000B3F5FF7F4FEA930006D25A089B1A9BB2B1
:10111000984238BF18467047B3F5EE6F01D8FF22EA
:10112000F4E740F27263F3E7E80B00202DE9F8439F
:101130004B7880460C4602F0040602F0FB07D3B160
:10114000DFB12E4BD4F804901D89B7BB0123637027
:10115000AD08A761E76104F120034A46211D04F1AF
:10116000280023F8025B984241F8042B2A44F8D166
:101170000023636101E0002FE3D0FF23A370002E62
:1011800018BF0226A3191B7D032B03D1022F1CBFFE
:101190000136F6B2A31901221A7506F10C0204EB0E
:1011A0008606002324F812307268A370C8F8002065
:1011B000A8F804304046BDE8F8830021142261708D
:1011C000A01815F063FBB5F5FF7F0FD26B08ED1A81
:1011D000ADB209EB0502C4F804902584A2606384D3
:1011E000C4F80C90A5842261E384C6E7B5F5EE6FE0
:1011F0004FF0FF03EBD940F27265EAE7E80B0020FD
:101200002DE9F84305460C46F7200521914616F0D6
:1012100043F9061E22DB1DB914FB06F0BDE8F88376
:1012200015F0030703D098211920FFF72BF9DFF8F9
:101230003480C8F81050A8F81460A5B2BBB29D4223
:10124000EAD9B8F814C0D8F810004B4607FB0C00D8
:101250000522F72116F0D9F80137EFE74FF0FF30FC
:10126000DCE700BFFC0B002007B5CDE900230B46EF
:1012700003490246081D16F015FC03B05DF804FB97
:10128000140C002013B5064CCDE900230B46024692
:1012900004F1080104F10C0016F004FC02B010BDCA
:1012A000140C0020134B012200214FF0FF309A60F4
:1012B000C3F80012C3F80803C3F80015C3F80425E7
:1012C0009A60C3F80803C3F80015C3F804250A4957
:1012D0000A4A03F580334FF40040C3F80825C1F8EB
:1012E0008000BFF34F8FBFF36F8FC1F88001C3F849
:1012F0000825704700F0004000E100E00000F63FE4
:101300008C46322300B50CF8033B054B8E4607CBC9
:10131000CEF80300CCF80410CCF808205DF804FBEC
:10132000300C002010B5154C10F02EFE0FF00EFF03
:10133000636A608C00219847237E9BB9104B628CB6
:1013400093E803000CF068F9E36A18880CF08EF853
:10135000636B94F8301094F831009847002384F8B8
:10136000383010BD94E8070004F10C0383E807004F
:10137000044904F1190018F045FEDFE7240C0020B1
:101380004C0C002001130000034B93F8383003B9D4
:101390007047FFF7C7BF00BF240C002008B540F21C
:1013A00067410620FFF76EF808B5094B93F838201F
:1013B000022A07D1DA7A42F00102DA72BDE8084067
:1013C000FFF7B0BF40F22D212720FFF75BF800BFE9
:1013D000240C002070B5364E96F8283005460BB127
:1013E000012825D001292AD8336C2846984704467D
:1013F00028B396F8303013BB96F8283013B31DBBD2
:1014000096F84420D106C2F300152DD4F26C316D4C
:101410001278C2F3001201B382F00104BBB1738FE2
:101420009A0715D5F36BDC78023C18BF012407E05E
:10143000738F1807D6D5F36BDB78022BD2D101243A
:10144000204670BD012DDBD00024204670BD738F77
:10145000002BF4D1002DF3D0F6E7B6F85410002994
:10146000DAD0002BF3D0DAE7F16B0A7802F003024E
:10147000032A02D1CA78022A18D0B06C16F0A8F854
:1014800048B9F36B1B7803F00303032B06D196F8DE
:1014900028300546BAE796F82830B7E70AF002F98F
:1014A00080F0010596F82830EDB2AFE70025ADE7F2
:1014B000240C002070B5264CE56AE26C95F88C305F
:1014C000A265064694F85C000BB10430C0B295F8F2
:1014D0006D100EB9FF2831D010F08CFA95F88C30D1
:1014E00033B3206E10F06AFE94F82830D5F8E82067
:1014F000216EA06D6267003B18BF012384F87C3029
:10150000D5F8EC30A3670FF0C5FD46B995F86D30FE
:10151000033B012B94BF2820002010F0F9FE95F822
:101520006C10002010F05CFF022384F8383070BD8E
:10153000A06D10F043FE0FF009FEE6E795F86C2071
:101540008A42CDD010F056FA95F88C30C8E700BF2B
:10155000240C00202DE9F0413C4C94F83830E56A29
:10156000012B82B06BD15FFA83F895F87C30064688
:101570000F4673B1638F002143F00403638785F83E
:101580007C10636A0420984794F828300BB185F8E2
:101590007E80E16B0B7803F00303032B30D04B7894
:1015A00053B3022385F8823095F88C30EBB1E36AAF
:1015B00094F8282093F86D30003A18BF0122013BBF
:1015C000DBB284F87C20D5F8E8206267032BD5F8DD
:1015D000EC20A26794F85C2036D81D490020CB5C33
:1015E00000901C4901200FF0DDFC06B9E7B902B0FC
:1015F000BDE8F041FFF796BE012385F88230D3E7BE
:1016000095F8823063B9638F43F002036387022049
:10161000636A9847E16B0B7803F00303032BBED199
:10162000032385F88230BFE731463046FFF7D2FE0C
:101630000028DCD102B0BDE8F041FFF73BBF40F22B
:101640009D412720FEF71EFFFFF7A8FE240C002077
:10165000386E0200880C002070B5824CE56A94F860
:101660005C3095F88C2082B000218DF805100AB10D
:101670000433DBB295F86C1010B9FF2B00F0B18089
:10168000FF2010F0B7F995F88230032B00F2E580C7
:10169000DFE803F0021C807094F8BA30ADF8063031
:1016A0007148A5F85C3009F0D7FF002840F09F8012
:1016B000A06C0DF105020DF1060115F028FFE063A5
:1016C00020B195F8C730002B00F0A9806748E0638F
:1016D00095F883200378D20002F0080203F0F303A8
:1016E000134395F88420920002F00402134303F0A0
:1016F000EF0203F00303032B027002D1C378022B25
:1017000011D0A06C15F064FF48B9E06B027802F0CC
:101710000303032B07D009F0C5FF002878D1E06B45
:10172000027842F01002027095F88B3013B14378C2
:10173000002B41D110F042FD0FF008FDE66B0BF0DD
:1017400021F820B1337803F00303032B63D095F81D
:101750006D10012010F044FEE36B454A188899781B
:10176000A4F84400012384F8BC30917084F8383028
:1017700002B070BD3C4809F06FFF002863D0E06BF9
:10178000C3781B2B14D1012105F1100010F064F96E
:10179000E06B0DE0B5F85C30A06CADF806300DF1F3
:1017A00005020DF1060115F0B2FEE06300284FD0EE
:1017B000012384F8BB308BE7206E10F0FFFC94F817
:1017C0002830D5F8E010D5F8E4206167B3FA83F348
:1017D0005B09E16B206E84F87C30A2670FF05AFC45
:1017E000ACE795F86D308B427FF44AAF4BE7638FDF
:1017F000E16B626A43F480734FF4807063879047B3
:10180000E06B012185F87D10C3781B2BD0D1BBE79D
:10181000E06B027887E7012012F04EF897E79DF819
:10182000053043B1BDF8061018F093FB0123E06BBF
:1018300084F8BB304CE703808370E06B012118F023
:1018400076FAE06BEEE740F2D7212720FEF71AFE8A
:1018500040F2CD212720FEF715FE40F2E52127209A
:10186000FEF710FE240C0020600C0020AC0C0020C1
:10187000680C00202DE9F04FB84C94F83830E76A36
:1018800087B00022022B049240F01482638C0D4634
:1018900013F04001804606D1636A40209847638C6C
:1018A00043F040036384B8F1000F5CD097F88C30AC
:1018B000002B40F05B81D4F858A09AF8013099B21F
:1018C000A4F85410002940F06781002323659AF89A
:1018D0000060638C97F88310C6F3800243F40073B2
:1018E0009142638400F0F780D4F82C9099F882201C
:1018F000FAB1022A00F0B88194F82830002189F862
:10190000821023B199F87E30002B40F0A38199F822
:101910007D30002B40F0808199F88330D4F858A0B6
:10192000012B0CBF0023012389F883309AF8006053
:10193000638C97F88410C6F3C00243F400639142AD
:1019400063844FF0000900F0CE8000260AF01AFFF1
:1019500030B39AF8003003F00303032B20D10120A9
:1019600011F0AAFF1CE097F88C20002A40F01C819F
:1019700043F48063638497F86D3094F8C620033B8A
:101980000132012B84F8C62005D90AF0FBFE8146FE
:10199000002800F0D680012011F08EFF0026B1460D
:1019A00097F88B3013B394F8283097F87620B3FA71
:1019B00083F35B0984F87C3097F86C30013B002A94
:1019C000DBB2D7F8E020626718BF0420D7F8E42024
:1019D000A26708BF0020032B00F27181604A6149B1
:1019E000D35C00220092FB220FF0DCFA45B994F898
:1019F000C6100120FFF7EEFC0546002800F0D88055
:101A000010F042FD0125002E3BD1B9F1000F09D0A5
:101A100094F82830002B40F09680B4F80930013358
:101A2000A4F80930B8F1000F4AD0B4F8053000220C
:101A30000133A4F8053084F8C6204B480BF004FDB0
:101A4000049830B115F061FEE16A002202720AF0DA
:101A5000E1FD36B1E16A002333720C2230460AF010
:101A6000A7FD002D32D1638C1B0607D4636A29467B
:101A700080209847638C43F08003638407B0BDE8FF
:101A8000F08FA16D236D4E78002B00F01A81B4F811
:101A900054201846033214F065FF0DF10E0205A91B
:101AA000A065D4F8C00015F046FE059815F02DFE8F
:101AB000314601220646D4F8C00015F0D3FDA4E754
:101AC000B4F807300133A4F80730B6E7FFF72AFC73
:101AD00007B0BDE8F08F97F88410C6F3C0029142BA
:101AE000C1467FF432AF06F00306032ED4F82CB0C3
:101AF00064D143F480536384638F012043F0010376
:101B0000514663878BF87C00636A9847D4F858A0E5
:101B100000269BF88430013B18BF01238BF88430EA
:101B20009AF80130002B3FF411AFDBF8E8300133B5
:101B3000CBF8E830DBF8EC3043F10003CBF8EC30C5
:101B400004E706462CE7B4F80530B4F80710B7F8F8
:101B500080200B4313433FF465AF5EE7240C002065
:101B6000386E0200880C00204C0C00200FF00AFB9D
:101B7000D4F858A09AF8013000287FF4A0AE002BCA
:101B800065D09AF8002097F88410C2F3C002914201
:101B90007BD099B2A4F85410D4F8C00015F039FDE8
:101BA000D4F858A0206592E60FF02CFB638CDFE69A
:101BB000FFF752FD002E3FF428AF62E7002EA8D0B9
:101BC0009AF80160002EA4D043F4805363849BF8FC
:101BD0008C600FF09BFE042894F8C43006D1002ED0
:101BE00014BF1B221F22934228BF1346D4F858A0CB
:101BF0009AF801209A424ED8266D002E3FF4A6AEE8
:101C000094F8C530002B53D0636A002120209847F8
:101C10000026D4F858A099E6002689F87D6009F0DE
:101C20002BFD002852D0638F43F0080363873146B1
:101C3000636A08209847D9F8E0300133C9F8E030EA
:101C4000D9F8E43043F10003C9F8E43064E6A4F8BD
:101C500054303AE6638F89F87E1043F010036387AF
:101C60001020636A984752E6A06C04A915F072FC34
:101C700088B3D9F8E0300133C9F8E030D9F8E4305E
:101C800043F10003C9F8E43036E6012384F831302B
:101C9000FFF748FBF2E694F83030012043F01003E0
:101CA00084F83030002611F007FED4F858A04DE635
:101CB00046462EE740F211512720FEF7E3FBFFF7DF
:101CC0006DFB40F28E412720FEF7DCFB40F21C4109
:101CD0002720FEF7D7FB40F205412720FEF7D2FB75
:101CE00070B50D4B0D4C0E4A1A6094F838301BB18C
:101CF000DE212720FEF7C6FB03F0FF0206460D4655
:101D000022760BF081FC012104F1880018F00FF815
:101D1000E664256670BD00BF68000020240C00202A
:101D2000CC21000010B5074A92F8383013B10C24CA
:101D3000204610BD03F0FF0414760BF065FC20462E
:101D400010BD00BF240C0020024B012283F8C520E7
:101D5000704700BF240C0020F0B5C24C85B002AD26
:101D600085E8030094F838000A9E002840F0978127
:101D7000002A00F09481002B00F09181002E00F0E9
:101D80008E8100F0FF0184F8C51084F8301084F8CB
:101D9000C61084F8311084F8BC1084F8BB10618739
:101DA000618495E80300236404F1280383E80300B9
:101DB000E56A626266630FF0AFFE0FF0C7F995F94E
:101DC00074000FF0A3FFA86A10F0DCF9286A0FF086
:101DD000A3FF95F89C000FF0A9FF95F87630002B33
:101DE00040F0B38096200FF07BFD94F82800002887
:101DF00000F0B380E36A93F8B831002B40F0028121
:101E000095F86D209D21012010F066F8964B974EB5
:101E1000186810F0BDF96B69D5F8F410D5F8F82002
:101E2000D5F8F000A364D5F8FC30AF69C4F8C070F1
:101E30000FC6E36AD5F8001193F88620C4F87D1028
:101E4000D5F80411C6F80D10A2F12601012940F2BF
:101E5000948093F88710262900F08F80213A012A78
:101E600040F2F080242900F0D08093F86C60032EBB
:101E700008BF042605F134073146384618F081F9C9
:101E8000314617F0C7FBB5F8403095F86D100246A3
:101E9000934228BF1346384684F8BA3018F037F911
:101EA00095F86D1095F88C70B5F84860042908BF56
:101EB000032117F0AFFB0FB9043080B2B04228BF46
:101EC0003046C6B284F8C4600AF05CFC002840F0DA
:101ED0008B8094F8280084F85C60002866D195F81F
:101EE0008B30EBB195F86C3095F87610D5F8E02092
:101EF0006267013B0029DBB2D5F8E420A2674FF00E
:101F0000010118BF0420032B84F87C1000F2CC8060
:101F1000574A0021D35C0091FB2254490FF042F84C
:101F20000120FFF799FB0023C4E90033A3602B6F66
:101F30002988B5F8800095F89C2060802180227166
:101F40000BB101221A6005B0F0BD4D200FF0C8FCA6
:101F500094F8280000287FF44DAF95F86C20444B8E
:101F600003EB42039988434B01F5FA71A3FB01315E
:101F700089096E310FF0B0FF48E794F82820002A55
:101F800039D193F8FA2193F86C60002A3FF472AFCC
:101F9000F31E012B63D9D31E012B60D9012E3FF410
:101FA00069AF012A14BF0226012663E795F88C3039
:101FB000B3B195F86D30D5F8E820D5F8EC10A167ED
:101FC000013BDBB20120032B626784F87C006BD8F5
:101FD0002749CB5C00210091324624490EF0E2FFF4
:101FE0000120FFF767FA9EE70AF0D2FBB04238BF44
:101FF0003046C6B26DE793F8922293F86C60002ADF
:10200000C6D137E70FF076FDFAE694F82820002ACB
:102010003FF42BAF93F8262193F8651093F86C608A
:1020200002EA01035A071AD413F001022BD19B07CD
:102030007FF520AFF31EDBB2012B10D9012E18BFA4
:10204000022617E72429E0D094F82820002A3FF43C
:102050000CAF93F8262193F86C6050070CD504263A
:1020600008E700BF240C002068000020880C002036
:10207000386E0200D34D621012F0010309D19107AE
:102080007FF5F8AED6E7033E012E8CBF1646042638
:10209000F0E6033E012E8CBF1E460426EAE640F21F
:1020A0006D112720FEF7EEF9FFF778F908B5124B0E
:1020B00093F8382092B193F8282022B993F8383059
:1020C000012B14D108BD93F83820022A0AD1DB6A0B
:1020D000D3F8D001BDE8084010F0E6B8BDE80840EC
:1020E000FFF720B940F20F212720FEF7CBF940F28D
:1020F0000B212720FEF7C6F9240C0020FFF712B9A8
:10210000014B1876704700BF240C0020014B93F858
:10211000BC007047240C0020034B93F8BB0010B99F
:10212000588CC0F300307047240C0020024B588CB0
:10213000C0F3C020704700BF240C0020014B93F86F
:10214000C6007047240C00202DE9F0411E4F820785
:10215000FE6A82B0044613D4E3070ED5D6E93A32BC
:1021600096F88410013342F100020129C6E93A329F
:102170000CBF0023012386F8843002B0BDE8F08153
:102180003B6DE3B1B7F854200D46B96D18460332E4
:1021900091F8018014F0E6FB0DF1020201A9B86587
:1021A000D7F8C00015F0C7FA019815F0AEFA012271
:1021B00028604146D7F8C00015F054FACCE740F249
:1021C0008E412720FEF75EF9240C0020A9130000A1
:1021D00075180000551500008913000008B540F27D
:1021E000F2310620FEF74EF92DE9F843002800F001
:1021F000E1800446072900F2D380DFE801F0AB2438
:1022000024A7D11F9ECD0146204618F088FFD4F8A0
:10221000443100F1E5059D4240F2C780E81A3228BA
:1022200038BF3220032113F0EBFBC4F844510646BB
:10223000204619F03BF8002E00F09D802046BDE8B6
:10224000F84319F034B818F0ABFFD4F81421002388
:1022500005460E4684F8403184F84931BAB150EA57
:10226000010314D0CA00C3001B1A42EA507262EB89
:102270000102D4F830115B18D4F8341142EB01029A
:10228000D4E95401834272EB0103C0F09180022330
:1022900004F5A07784F84831384612F003FE002890
:1022A00000F08C8094F8603103F0FF01002B6BD1BB
:1022B000D4E956026FF000439A4208BFB0F1FF3FE5
:1022C00013D02046D4E9549818F029FFD4F8583197
:1022D000D4F85C21B3EB090300F1E50062EB0802DE
:1022E0001B1A62F10002002A4BDB94F810013946F8
:1022F00012F0CAFE00286BD0D4E95401D4E94A3266
:10230000834272EB01071FD255EA06071CD0C01AA0
:1023100061EB020133462A4614F0FAF905FB01F39A
:10232000D4E94A2100FB0636A5FB00535519334476
:1023300043EB0103C4E94A5306E090F8100112F0A0
:102340008BFD002384F83831BDE8F883BDE8F843FD
:1023500010F0AEB80CF048F9D4F84401CB3813F0C3
:10236000BDFA80B3204618F058FF00283FF44BAF69
:10237000204618F09BFFD4E95423C4E94C23BDE860
:10238000F88320460CF038F994F8100112F064FD3F
:10239000002384F83831AFE7FD213020FEF772F8D2
:1023A00040F201113020FEF76DF8C4F84451DFE728
:1023B00001236DE7E0213020FEF764F84FF4D3618C
:1023C0003020FEF75FF840F25A213020FEF75AF82D
:1023D00040F29C613020FEF755F800BF2DE9F04F28
:1023E00004468BB04FF00009029390F86DB0CDF821
:1023F00018900E46904616F0C2FD94F8B9310B2B9A
:1024000000F20684BF4F37F8135094F88730284401
:10241000442B85B215D094F88620442A11D0A3F11C
:102420000E02B2FA82F252090392B8F1000F40F0A4
:10243000BF8294F8FC21032A00F010830123049347
:1024400007E0B8F1000F00F08E800123CDF8109066
:102450000393B4F848A2B4F88090A6EB0A0A0FFAE6
:102460008AFAA6EB0909BAF1000F0FFA89F904F507
:102470000678C0F29382029BA34A127802F0FF0012
:102480005AB9074694F8FC21032A00F2DD83DFE8FD
:1024900012F041010101C6017300059311F084F8A7
:1024A000059B0028EDD0B4F8E821012A40F22083F2
:1024B00094F8FC21022A00F01B8394F812020028F1
:1024C00040F0168394F87620002ADAD194F8B921E6
:1024D0000B2A00F29D8337F8125094F8FC2105F581
:1024E000C865012AADB240F0598394F88A20032AC6
:1024F00040F08183D4F8F401E76A07442946059344
:1025000011F016F802463846D4F8F071C4F8F021FC
:10251000D21BD4F8F871294602FB07F711F008F82E
:10252000D4F80022C4F80002801A07442946E06962
:1025300010F0FEFF94F87620059B02B10230B4F84B
:10254000D421D4F8F8114A44C943A2EB0A020A4440
:10255000D4F80412C4F80402401A00FB02770122E6
:1025600084F812228EE794F8FC31032B00F07C8271
:102570000123CDE903336CE7E169029801FB0AF21C
:10258000002800F01882B4F8D451002D40F01382D6
:1025900084F81352D4F8040200FB1A2A94F8862017
:1025A000CDF818A0262A00F0A58294F88720262AC4
:1025B00000F0A082002B3AD0CDBBD4E98C23D4F814
:1025C0003812D4F83CC28A4273EB0C0380F031839A
:1025D00094F86D30DA1E012A40F2D382184610F0CA
:1025E000C9FA4A4DD4F8381200F5234E0EF1A10E67
:1025F000A5FB0E3ED4E98C2394F86D008439A0F13C
:10260000030C8A1A9244BCF1010FAAEB9E1A40F205
:10261000158310F0AFFA00F2E731A5FB0131D4F8D1
:102620000402B4F8D451890951441039069105EBDC
:10263000090AABF1030300FB0AFADBB20AF1300A24
:10264000012B4FEA4A0A40F29982584610F092FA5A
:102650002E4B00F52340A130A3FB00304FEA901928
:10266000584610F07FFA0AF17405274B4D44284470
:10267000586094F87630002B42D0254AE0695146E4
:1026800006AB17F00CF8204B84F81302069A586832
:10269000E1692BE1D4F80402E269B4F8D431D4F84A
:1026A000F81194F86DB0258E121A99440AFB02F2C3
:1026B000D4F800320692D4F8F021303302FB013313
:1026C000C943894400FB0939ABF10303012B4FEAED
:1026D000490905F1740540F2B681584610F04AFAEE
:1026E0000A4B00F52340A130A3FB00304FEA901ABB
:1026F000584610F037FA4D44034B5544284458606F
:10270000069A8AE0486E0200EC0C0020D34D62105D
:10271000F00C002094F86D1094F8CE0116F0A2FF92
:102720008146E06A2946484410F002FF2946C4F871
:102730000002E06910F0FCFE94F87630002B40F0C7
:10274000D581C4F8040207A908A80FF0A5FE079BCD
:102750000093D4E99001DDE9082313F0BBFB94F862
:102760006D3005930546184610F004FA059BDFF816
:10277000E4A2033B00F55F40012B00F1410094BF50
:1027800028210021AAFB003001EB90118031204666
:1027900017F05AFDD4F84C32E26A94F86D000693B3
:1027A000059210F0E7F94AF2A13B00EB0B03AAFBFC
:1027B0000331069B059AD4F80002943B13441B1A7C
:1027C0004B445B1BA3EB9113069394F86D30B4F864
:1027D0003090DA1E00F13005012A4FEA450509F173
:1027E000960940F22D811846059310F0C3F98344F1
:1027F000AAFB0B3A059B4FEA9A1A184610F0B2F959
:102800004D44954B069A554428445860D4F84C32B0
:10281000D31AB3F5917FC0F00282E16966E0E36A02
:10282000D4F8F4012946184410F082FE2946C4F871
:102830000002E06910F07CFE94F87630002B40F046
:10284000538194F86D90C4F80402484610F092F950
:10285000804D00F55F40A9F10309B9F1010F00F1C6
:102860004100A5FB003094BF2821002101EB90110D
:102870008031204617F0E8FCB4F8D431002B00F08A
:10288000A280D4F8F431E26AD4F8000294F86DA082
:1028900013441B1AAAF103010693C9B2D4F8F0310C
:1028A000D4F8F821B4F8309002FB03053035012943
:1028B0004FEA450509F1740940F2C880504610F00E
:1028C00059F9644B00F52340A130A3FB00304FEAD7
:1028D000901B504610F046F94D445F4B069AE16953
:1028E0005D4428445860012384F8FC31D4F8045234
:1028F0006FF4AD734D1B1D44D21BD4F84072D4F855
:1029000044320692854228BF0546BA1843F10003B7
:10291000C4F82C320023C4F8D051C4F8282284F81B
:10292000183204F1340017F0F0FBD4E98A2305448F
:10293000C4E99023C4F81C52A4F848620CF0E4FAED
:1029400020B1D4F81C321E33C4F81C32B4F8C011C4
:10295000039A8E1B002336B29E4284F82032C4BFF5
:10296000022384F82032002A40F0D080029A002A04
:1029700040F0D08094F8FC31002B40F0EC8094F8CB
:102980001402414612F080FB002800F04381049BB2
:1029900084F8103200200BB0BDE8F08FD4E98C0130
:1029A000002384F81332C4E99001CA46012363E589
:1029B000CDF810904DE594F81302002800F0DB806C
:1029C000254B586892E7029B002B3FF45AAFD4F88E
:1029D000F431E26A94F86D0003EB020B10F0CAF8D0
:1029E00000F52340A130A5FB00304FEA9019D4F840
:1029F0000002D4F8382294F86DA0ABF1940BABEB45
:102A0000000B9344AAF10301D4E98C23C9B2012934
:102A1000ABEB020B40F2BE80504610F0ABF894F8DE
:102A20006DA000F2E732A5FB0235AAF10301D4F84C
:102A30000002AD09C9B2ABEB09022A4406922DE7A8
:102A40004FF0650AD9E64FF0650A51E64FF0650B85
:102A50003FE700BFD34D6210EC0C00200E2B18BFD7
:102A6000CDF80C807FF4EAACB4F89032B3427FF436
:102A70007FADB4F8D421B4F84A321344C4F8F83125
:102A8000D4F80432C4F8F031E369C4F8F4312046D4
:102A90000CF0B8FFD4F8982294F8A43241F64B58C1
:102AA00042458CBF4FF000084FF00108002B40F06A
:102AB0008C80E3699A4204D0208818F0F9FED4F89B
:102AC0009832E361D4F89432E362B4F89232238608
:102AD000D4F89C326362022384F8FC310123CDE9EF
:102AE000033384F87680B4E40230AAE6023028E6A4
:102AF0000027C7E4B4F89022B21A12043FF55AAD89
:102B000094F89322002A18BF934653E5029A002AAC
:102B10003FF435AFB4F8E821D2B1B4F8EA0194F843
:102B2000EC1100FB01118A4200F101007FF727AF91
:102B3000002B3FF424AF002384F82032A4F8EA01EC
:102B400009F02CFE00F00700013084F8EC0116E7D4
:102B5000A4F8EA2113E7E169D4F804324046C91A1F
:102B600016F027FD80B200283FF409AF149B9BB1FB
:102B7000188001200FE7B4F8D4510BE54FF0650938
:102B80006EE5D4E98C23A1F1E90CACEB020C3C21FD
:102B9000E24449E53C254EE70120FCE6E069059367
:102BA000294610F0C5FC94F87620059B02B102304E
:102BB000B4F8D471D4F80422C4F804024F44A7EB4B
:102BC0000A07801A00FB07F7C9E4208818F06DFE99
:102BD00050B3B4F89032B4F8A02262864FF00008E7
:102BE000B4F8A2224381013B03828281D4F8983257
:102BF000A0F80E8065E794F86D1094F8CE01E76AAE
:102C0000059316F02FFD059B0744D4F8F40175E4F5
:102C1000FFF7E4FA40F287513020FDF733FC40F231
:102C2000D2413020FDF72EFC40F232713020FDF70A
:102C300029FC40F226513020FDF724FCB4F8D45191
:102C4000D4F804023C21EFE440F23E513020FDF77D
:102C500019FC00BFF0B585B0002800F010810446D3
:102C6000072900F2F380DFE811F095000800080062
:102C70007E00F10083008B00ED0018F0D5FED4E952
:102C80008C23801A61EB0301012871F10003C0F26B
:102C9000FF806FF00102002382428B41C0F201816C
:102CA000E3690BB1B0FBF3F394F88720442A00F0FA
:102CB0009B800E2A94F8861000F0968043390129F3
:102CC00040F29280B4F88010B4F80E220B449BB20C
:102CD000D11A090400F1C880531C9BB2A4F80E322B
:102CE00094F81132B4F80E12002B00F0B380B4F84F
:102CF000BA00B4F880306D4FB4F84A220344B4F8F7
:102D0000B800013B1B1A9EB23B680132A4F84A226C
:102D100002AD53B1013989B2002220469847B4F878
:102D20000E12014489B2A4F80E12731A1B0462D465
:102D3000002300951A462046FFF750FB40B30128B8
:102D400040F0A180B4F80E12B4F8C031CA1A1004D1
:102D50006ED4BDF80830194489B23B68A4F80E124D
:102D6000002BD7D1E1E705B0BDE8F0400FF0A0BBE4
:102D7000012010F0A1FD05B0BDE8F040FFF7BEB99D
:102D800090F8FC31042B40F08880002380F8FC315F
:102D900005B0F0BD90F81032D3B1B0F80E22B0F803
:102DA00080309A4263D0D31AA0F8C631A0F88020B0
:102DB000D4E98A232046C4E98C230CF043FD94F81F
:102DC000CB31002BE4D005B0BDE8F04018F0EDBBEE
:102DD000B0F80C32B0F88010B0F80C22A0F88020C7
:102DE0005B1AA0F8C631E3E7B4F80E12013189B2DC
:102DF000A4F80E127BE794F88A200394002A0CBFF3
:102E00003E220822012384F8A92028468DF80830A4
:102E10000AF0AAF8204618F0CAFB002384F8FC3117
:102E200094F8140212F018F8202384F81432AFE753
:102E3000BDF80820114489B2721A12F4004F18BF6D
:102E400019468AE7D4213020FDF71CFBD821302019
:102E5000FDF718FBB4F8C4318B427FF448AF013161
:102E600089B2A4F80E1242E701339BB236E7B0F8FC
:102E7000C431A0F880309B1AA0F8C63198E7A82189
:102E80003020FDF7FFFA40F26A613020FDF7FAFAD0
:102E900040F212613020FDF7F5FACE213020FDF727
:102EA000F1FA40F213613020FDF7ECFA6C000020DB
:102EB0002DE9F043D0F814310026D0E9548983B0CD
:102EC00080F8186105460F4683F8CE2180F83861F6
:102ED0000121D0F8140109F00DF8D5F81441C4E926
:102EE0008C8995F8103184F81432C4E99089C4F8BB
:102EF0004C7284F8FC61A4F848623346009632466E
:102F000031462046FFF76AFAD0B9012384F8FC3134
:102F1000C4F8F801C4F8F001A4F80E02A4F80C02F9
:102F200084F81102B4F88030A4F84A02013BA4F8F6
:102F300080300FF0D1F803B0BDE8F04311F0FCBDD4
:102F40004FF4FE713020FDF79DFA00BFD0F8140158
:102F5000704700BF2DE9F04385B000230322CDE97F
:102F60000033FF268DF806206846FDF7CBFF0446A8
:102F700020BB009D95F83831002BF5D085F86061B5
:102F80000121284618F095F995F83831002BEBD03F
:102F900095F8100112F0DAFA95F8100112F058FEC7
:102FA00095F8100111F058FF00283CD085F8384101
:102FB0006846FDF7A7FF04460028DAD0DFF87C80DA
:102FC000012388F80830002502264FF6FF771AE023
:102FD000029BE3B193F81422202A18D01888B84233
:102FE0001BD00221FDF754FF814608B390F814026C
:102FF00012F02EFE99F8140289F8FC4111F02CFF12
:10300000202389F81432CDE902558DF80E6002A80C
:10301000FDF778FF04460028DAD0002388F808304E
:1030200005B0BDE8F0834FF4F4713020FDF72AFAC3
:103030004FF49A713020FDF725FA00BFEC0C002008
:10304000054B0022012142F210705A72588119700A
:103050001A72FFF77FBF00BFEC0C00202DE9F84388
:1030600090F83831002B77D10446884601465648FF
:10307000154603F0FF0711F0BBFE202806466BD073
:103080005822394604F5887013F000FC84F810616A
:10309000C4F81481FF2384F83831B8F1000F06D04A
:1030A00009F094FB00F00700013088F8EC010223DE
:1030B0004FF00008A4F8483184F8408110F08AFAF3
:1030C00000F19E062046B6B218F0A7F8002847D0B7
:1030D00015F055FF00F5CD6189B2284610F028FAA9
:1030E0002844C4F8440118F09FFC301841F1000155
:1030F0004FF00109C4F85001A4F82680C4F8541117
:1031000084F81891204618F09EF8002846D04946C9
:10311000204618F004F86FF49C631D442D1AC4F87F
:103120001C514FF0FF326FF00043C4E9562394F86E
:10313000100104F5A07111F0A7FF00283FD0D4E9D9
:1031400054232046C4E94A23C4E94C23002118F043
:10315000B0F83846BDE8F8830C273846BDE8F88358
:103160000146204617F0DBFFDFF86080E530C4F849
:103170004401B8F80A0008B1E08CB8B9064418F068
:1031800053FC361841F10001C4E95461002DC8D048
:10319000AE1941F10001C4E95661C8E7484618F08C
:1031A0002DF9E53D2D1AC4F81C51BAE709F00EFBC4
:1031B000B8F80A30B0FBF3F202FB1300DEE74FF47D
:1031C000E5713020FDF75EF9E9210000EC0C0020EC
:1031D00090F838310BB90020704710B50446FF2332
:1031E00080F86031012118F064F894F838310BB997
:1031F000002010BD94F8100112F0A8F994F8100105
:1032000012F026FD94F8100111F026FE20B10023E3
:1032100084F83831002010BD4FF4F4713020FDF7F0
:1032200031F900BF014B5872704700BFEC0C002011
:1032300090F8602182B910B502F0FF0490F81821CF
:1032400012B90122104610BDD0E947319942F9D98F
:103250000BF0D2F92246F5E700221046704700BF76
:1032600008B50EF079FB044BDA6882422ABF187A5F
:10327000002080F0010008BDEC0C002008B540F2F1
:10328000FF1116F0E9FFB0F5296F28BF4FF4296050
:1032900080B208BD90F8CB31002B75D1F0B503F0AA
:1032A000FF0590F8FC31032B85B0044601D005B032
:1032B000F0BD18F0B9FBD4E98C23801A61EB03014F
:1032C000012871F10003F2DB6FF00103834275EB1B
:1032D00001035CDBE369B4F88020002B55D0B0FB20
:1032E000F3F080B2531C184480B2A4F80C02B4F876
:1032F0000C22B4F8C4319B1A1BB2002BD7DD94F812
:10330000140212F023F90028D1D0FF2384F81132DF
:10331000B4F88050B4F8BA20B4F8B830214F15444E
:10332000013DED1A3B68ADB20DF10E066BB1B4F87C
:103330000C12013989B2002220469847B4F80C32A9
:1033400010FA83F39BB2A4F80C32B4F80C32EB1AE7
:103350001B04ACD4B4F80C12009689B200230122ED
:103360002046FFF73BF80028A1D0012814D1B4F87B
:103370000C32BDF80E2012FA83F39BB2A4F80C3283
:103380003B68002BD3D1E0E770471846AAE740F22C
:10339000BB513020FDF776F840F202613020FDF796
:1033A00071F800BF6C0000202DE9F043044683B0A3
:1033B000062900F2FE80DFE801F0042512222B32FC
:1033C0007600D0E98C23D0E98E0182428B41C0F097
:1033D00093807A4B1B7A03F0FF02002B7DD00423ED
:1033E00084F8FC310EF078FE11F0A6FBB4F88020D2
:1033F000A4F80E220023A4F84A3284F8113203B054
:10340000BDE8F083032380F8FC3103B0BDE8F0830E
:103410000EF0D0FAC4E98E0103B0BDE8F08390F855
:103420006D30DFF89891C569D0F80422033B40F273
:103430006D1840F24511012B88BF884699F8093074
:1034400095428CBFAD1A00251BB9436B9D4228BF26
:103450001D4604F13400D4F8D07116F056FE07442E
:10346000022012F079FAED1B25EAE575854228BFA6
:1034700005460221284612F0C3FA00B92F444246FD
:103480003946204616F0CEFEE269D4F8D031C9F8AC
:103490000C00D01812F022FA0028B0D140F27E3190
:1034A0003020FCF7EFFF90F86D5028460FF062FBDC
:1034B000033D434900F55F40012D00F14100A1FBB0
:1034C000003094BF2821002101EB9011803120466B
:1034D00003B0BDE8F04316F0B7BEB4F8C4110092D3
:1034E00001232046FEF77AFF00283FF47BAF4FF41C
:1034F000DA613020FCF7C6FF94F81232002B3FF45B
:1035000068AF94F8FC31032B7FF463AF94F86D80BF
:1035100015F035FD94F8B9310B2B48D8294AD4F869
:10352000386232F81330D4F8D091C51803F5C86367
:103530009FB2D4E98C234046B61A0FF013FBA8F1D2
:103540000302012AADB2A9EB00092ED940460FF0C3
:1035500011FB1B4B00F52342A132A3FB02239B0965
:10356000A9EB0303A3F174025208D43B9D3205FB7F
:1035700003F3B3FBF7F36033A2EB53018E424FEA40
:10358000530302D313449E4201D910F013F8E069AB
:1035900029460FF0CDFF94F8763003B102300023B6
:1035A000C4F8040284F8123213E76523D8E7FEF763
:1035B00015FE40F284713020FCF764FFEC0C002013
:1035C000D34D6210486E0200012A70B5064609D03C
:1035D000022A14460D461ED04AB140F2AE71302088
:1035E000FCF750FF0EF0B8F9C6F84C0270BD0EF0B3
:1035F000B3F9224601462846FFF75AFC0F4995F8D1
:103600001001324610F048F90028EFD140F29771CE
:103610003020FCF737FFD0F84C1201222846FFF784
:1036200047FC064995F81001324610F035F900289C
:10363000DCD14FF4F5613020FCF724FF552C00005D
:10364000F8B5044651B101295BD1002380F8183147
:103650000EF042FDBDE8F84011F06EBAC58C002DA9
:1036600047D12046D4E94A7617F09AFD401941F136
:103670000001C01946EB010100220223C4E95401F4
:10368000C4E94A0184F84021A4F8483194F8603133
:1036900003F0FF01002BDBD1D4E956026FF00043A9
:1036A0009A4208BFB0F1FF3F0CD194F8100104F525
:1036B000A07111F0E9FC0028CAD140F2EF6130207E
:1036C000FCF7E0FE2046D4E9545617F028FDD4F864
:1036D0005831D4F85C215B1B00F1E50062EB060277
:1036E0001B1A62F10002002ADFDA20460AF084FF8A
:1036F000AEE709F053F8E58CB0FBF5F303FB1505D5
:10370000AFE740F2BE713020FCF7BCFE90F8380104
:10371000003818BF01207047014B5881704700BF27
:10372000EC0C00200B46062203F8032BB0F809C06E
:10373000C27AA1F803C09A70704700BF08B540F282
:10374000C3213220FCF79EFE10B582B090F8DE3027
:1037500073B903F0FF02ADF804209DF804209DF832
:103760000530002062F3070063F30F2002B010BDA4
:103770000C46363804F060F9182204232270ADF8A4
:103780000430EAE770B5002860D0437A0D4604465D
:10379000002B3AD040890021FDF77AFB064600282D
:1037A00059D0008807F018FF30880021FDF786FB0C
:1037B000002855D194F8546094F8A6302BB194F8B1
:1037C000A7301E43002384F8A630204604F034F9C5
:1037D000B3072BD12B46132203F8032B04F1090264
:1037E0002934166850689168D2F80CC0C3F80CC030
:1037F0001032A2421E605860996003F11003F0D1AC
:10380000117819700022AA7170BD036DD0F80E20D6
:10381000C3F80320428AA3F80720427B036D12F00D
:10382000FD0F14BF012200229A70C3E7002226F088
:10383000040684F854601146204604F083FF0028F3
:10384000C8D14FF44B713220FCF71CFE4FF443718A
:103850003220FCF717FE4FF446713220FCF712FEBF
:103860004FF447713220FCF70DFE00BF044B1B687C
:103870000022A3F8212183F8232183F870207047C8
:10388000FC0C002008B508F001FC034B18700EF08A
:103890007BFB032008BD00BF1000002008B508F026
:1038A000F5FB024B02461A70012008BD10000020F3
:1038B0002DE9F041064615461C46A1B1B3681BB17F
:1038C0002DB12846BDE8F0810120BDE8F081002C33
:1038D000F7D01749B27C0968BDE8F04191F8410082
:1038E000423115F0DCBD124F396891F85A2091F839
:1038F0007E0001F15B03783115F0D1FD7B683A68F9
:103900005B79082B03D092F84E1099420DD000211C
:1039100092F85630012BD1D023B90028CED10029FE
:10392000CCD1D2E70020BDE8F0810121F0E700BF53
:10393000FC0C002038B5114C20686C3003F080FA84
:10394000656803F02DFA63682860186858B103F0C1
:1039500055FA68B10EF032FC00200EF0D9FC636815
:1039600004221A7138BD40F2F7413220FCF78AFD7B
:1039700040F2F9413220FCF785FD00BFFC0C00202D
:1039800008B508F083FB0449044B024648681A70E6
:1039900003F0C8FA012008BDFC0C00201000002034
:1039A000F0B5524C236800221F6D5A72FA690E4618
:1039B00039885981054641F27071A2F57A708842C2
:1039C00083B040F286804A49A1FB0212C2F38F22E3
:1039D0001A84BA8C5A84FA8C9A844FF47F42DA841F
:1039E0004FF6FF721A85002D69D00121304616F07E
:1039F000A3F83278D209236893F8481009B1002A55
:103A00003DD1207B002108285961198343D003F15F
:103A10000E0203F10D0108F0D7F8002861D02368E9
:103A20005A7B42F002025A7303F11A07002D40D16B
:103A300003F1780002683A608288BA8093F95810DE
:103A4000186D08F007FB20682A4916F0D2FA23689F
:103A500029491A6D1088A3F8330092F88E2083F854
:103A6000352003F12A0016F0CDFA2068022105F076
:103A700019F820686C3003F0E3F903B0F0BD427927
:103A800002F0C002402ABCD102685A618288207BC1
:103A90001A830828BBD193F87E00996F5873C3F836
:103AA0000E10B3F87C0058820021C3F81A10D98395
:103AB000C4E70021304616F03FF82368BAE7A06853
:103AC000694615F0ECFEA3681A786846C2F38012C6
:103AD00091E70A49A1FB0212920902F5506292B2E3
:103AE00076E741F2EA313220FCF7CCFCFC0C0020F6
:103AF0005917B7D18537000025370000D34D621024
:103B000008B540F29D313220FCF7BCFC10B50478BA
:103B10008CB004F00F04224602A903F09FFC08F0C9
:103B2000B5FA234A042C107002D003200CB010BD4B
:103B3000204C0399236891F800E093F878C0E6459B
:103B4000F3D191F801E093F879C0E645EDD191F811
:103B500002E093F87AC0E645E7D191F803E093F8E4
:103B60007BC0E645E1D191F804E093F87CC0E645DE
:103B7000DBD191F805C093F87D108C45D5D193F831
:103B80007E309DF819109942CFD17F280DD000903A
:103B90004FF07F0C606882F800C0237C227B02A972
:103BA00003F0C8FB03200CB010BDFFF7A9FF00BF56
:103BB00010000020FC0C00202DE9F04F044687B0D7
:103BC00006290BD8DFE801F0B030100A0A0A040019
:103BD000AC4D68688379002B40F0BD800EF0D4F9BD
:103BE000032007B0BDE8F08F0EF0CEF9A54A1368A8
:103BF00093F854108F07F3D0506881790029EFD0E3
:103C0000A14D95F900107F2900F0E6810291127B09
:103C100001922146FF227F240092423302222C701F
:103C200003F0E0FA0320DCE7964DA27C296868687F
:103C300091F8483090F806A090F80790012A83F098
:103C4000010B00F0B480002691F8542012F0040318
:103C500000F0B78091F84D70002F00F0B28091F81D
:103C60004E70082F40F0AF8091F841704FF000087F
:103C700038467BB3626891F85BC092F800E0E64595
:103C800000F04581002305936A685279082A06D01E
:103C9000059B91F84EC0944508BF01230593B8F1E8
:103CA000000F40F0ED80BBF1000F40F02A8140464C
:103CB000B9F1000F09D02B6893F85630012B02D0D0
:103CC0001BB9059B0BB1002843D10EF05DF92B68A1
:103CD00093F85420930783D00EF056F9BAF1000FF1
:103CE0003FF47EAF2968A36891F84100A27C42317D
:103CF00015F0D5FB18B9B8F1000F00F04581624E00
:103D000096F900307F2B00F0678102932B7BCDE981
:103D10000073D5E9003021467F24012242333470FC
:103D200003F060FA03205CE7564D2B68686893F84F
:103D30005420570734D5C279002A57D0626893F8C7
:103D40005B1016788E4200F0B78093F85620012A57
:103D50001CD10A2045E72B6893F85420960773D5A9
:103D6000494A92F900107F2900F0368102912146DC
:103D70002C7B0194FF2400947F244233147006228C
:103D800003F030FA00232B7409202AE793F84E3011
:103D9000082B02D042799A42DBD00EF0F5F8686821
:103DA00083793BBBC379002B7FF41AAF16E7A26877
:103DB000567906F0C006A6F14006B6FA86F67609F0
:103DC00042E747794DE7384607F00CFE002818BF58
:103DD0008346002E40F0C680296891F8417091F822
:103DE0005420B046384602F0040342E78379002BA2
:103DF0003FF4F4AE2B6893F85420960746D4D007CE
:103E00007FF5EEAE510700F1E0801F4B93F90020E3
:103E10007F2A00F0E18002922A7B0192FF22009229
:103E20007F2018702B68686821464233002203F017
:103E3000D9F903206B68DA79002A7FF4D2AE9B7936
:103E4000002B7FF4CEAEC9E6D1077FF5C7AE53078E
:103E500000F1B8800C4B93F900207F2A00F0BC8061
:103E600002922A7B0192FF2200927F201870D5E9EE
:103E7000003021464233062203F0B4F90320B0E6B5
:103E8000012015E7FC0C002010000020534A92F995
:103E900000107F2900F0A080029121462C7B019424
:103EA000FF2400947F2442331470002203F09AF917
:103EB00001232B740920BDE7567893F85C108E42DD
:103EC0007FF443AF967893F85D108E427FF43DAF58
:103ED000D67893F85E108E427FF437AF167993F858
:103EE0005F108E427FF431AF517993F86020914298
:103EF0007FF42BAF617C93F85A2091427FF425AF79
:103F000027E7A368A27C423115F0C9FAD0E692F8FF
:103F100001E091F85CC0E6457FF4B4AE92F802E0AF
:103F200091F85DC0E6457FF4ADAE92F803E091F8FC
:103F30005EC0E6457FF4A6AE92F804E091F85FC05B
:103F4000E6457FF49FAE92F805C091F86020944555
:103F50007FF498AE637C91F85A209A1A53425341E9
:103F6000059391E6A168384607F01EFF2968804650
:103F700091F8542091F84100B8F1000F28D040F09A
:103F8000020702F0040374E62B6893F85520023A06
:103F9000012A3FF625AE002E3FF422AE0F4E96F9D1
:103FA00000207F2A18D002922A7B6868019221465D
:103FB000FE227F24009242330122347003F012F972
:103FC00003200EE60DF0E0FF44E70DF0DDFF1CE7F7
:103FD000074602F004034CE6FFF792FD10000020B4
:103FE00010B50E4A5368197902290DD91979082993
:103FF0000FD81B79526903F180439268033BBDE8F7
:10400000104052F82330184741F293413220FCF718
:1040100039FA41F294413220FCF734FAFC0C0020CA
:1040200038B5194D6B681B79022B28D82B68027C98
:1040300083F8A420C16899661A44044692F82421A2
:1040400083F820214268C3F88820037A022B0ED01F
:104050000DF062FD0EF0AAF90CF01AFF0B480EF0FD
:1040600097F80B480EF08EF80A480DF055FE637C69
:1040700023B12B685B6E0BB101221A6038BD40F68C
:10408000EA013220FCF7FEF9FC0C00208801002038
:1040900055555500D6BE898E70B53B4C63681A796C
:1040A000032A064631D01A79042A2ED0226892F8C3
:1040B000542092072ED1A568002D42D0236893F892
:1040C0005430002B42D03EB1284615F0F9FD30BBEC
:1040D000284615F010FE10BB63681A79022A3FD9F2
:1040E0001A79082A41D81B79626903F18043526921
:1040F000033B52F8233098470C282CD86369DB68BF
:10410000BDE8704053F820301847186802F076FE7A
:104110000546D1E7186802F073FE0546CCE76368F0
:104120001A79022A26D91A79082A28D81B796269AD
:1041300003F180431269033B284652F82330984725
:10414000DAE741F29B313220FCF79CF941F2A131D0
:104150003220FCF797F941F2B4313220FCF792F9A2
:1041600041F281313220FCF78DF941F28231322067
:10417000FCF788F941F221313220FCF783F941F252
:1041800022313220FCF77EF9FC0C00202DE9F047AB
:104190001A4B93F90090B9F17F0F84B02CD0184CD2
:1041A00067687F221A703B79032B80460E461AD02F
:1041B0003B79062B0CBF4FF0030A4FF0010A23682E
:1041C00003F142050DF0A2FB2B46257B0090CDE9C3
:1041D000029A324641463846019502F0F3FE28B96C
:1041E00004B0BDE8F0874FF0000AE8E7606804B06B
:1041F000BDE8F04702F056BEFFF782FC1000002039
:10420000FC0C002038B505460C4607F077F842074D
:1042100004D4A37803F0E003402B0DD007F06EF830
:10422000830704D4A37803F0E003202B04D0237881
:1042300003F03F03242B01D9002038BD0DF06CFBA7
:1042400094F9003094F802C06278002B0CF01F0340
:10425000ACBF1E214FF4967142EA032301FB03F326
:104260001A1AB2F5877FE7D39842E5D8054A238822
:104270001068A0F8213180F823C12946BDE83840F4
:1042800003F060BCFC0C00202DE9F047344E75684B
:10429000AB7984B06BB3D6F800A09AF89530044699
:1042A000894633B90378002B0CBF012302238AF817
:1042B000953028790628C3B23ED0072B14BF4FF0A3
:1042C00001084FF00208274890F900707F2F45D071
:1042D0007F2303700DF01AFB317B00900191CDE933
:1042E00002780AF142034A462846214602F06AFE55
:1042F00020B90025284604B0BDE8F087657815F0A0
:1043000010051CD0A1690220FFF77CFF0546E8B12B
:104310003268002382F896306369DBB15978C1F3C3
:10432000031182F8971059781B7801F00F0143EAC6
:104330000123A2F89830DDE74FF00308C3E7706867
:1043400002F0B0FD284604B0BDE8F087706802F0C6
:10435000E9FDCFE7FF2382F89730CBE7FFF7D0FBEB
:10436000FC0C00201000002010B504468AB007F0B5
:104370008DFE2378184A03F00F03072B107002D02C
:1043800001200AB010BD6946204603F001F96846D5
:1043900003F0EAF99DF80030002BF1D19DF80130CF
:1043A000DB07EDD50D4C019923689DF8110093F8BA
:1043B0007E20783315F073F80028E1D020680121C1
:1043C000A03014F0ABFDFF216846FFF75DFF002829
:1043D000D6D00220D5E700BF10000020FC0C002042
:1043E0002DE9F04304468BB007F050FE2378424A93
:1043F00003F00F03082B107004D0012528460BB0E2
:10440000BDE8F0836946204603F05AF89DF8005055
:10441000002DF2D19DF8013003F00303032BECD102
:10442000364F3E6896F84D306BB396F84E807B7BE6
:104430006BBB96F87E2001999DF8110006F1780378
:1044400015F02DF80028D8D096F848203E6896F848
:1044500041904236002A3ED19DF81200029901286F
:1044600027D033464A4615F01AF80028C5D03868D8
:104470000121A03014F052FD7B7BABBB2146012013
:10448000FFF78EFABAE77B6893F80580CFE715F05F
:104490004AF808288146CCD0387396F87E200199D6
:1044A0009DF8110006F1780314F0F9FFC145CBD057
:1044B000C8E74B7903F0C003402BD2D133464A46BC
:1044C00014F0EDFF0028D2D10299404607F06CFCB1
:1044D0000028CCD191E7404607F0A0FC00281CBF83
:1044E00006464FF00109B7E70DF060FF0CF0D0FC75
:1044F00000237B73C2E700BF10000020FC0C0020EB
:104500002DE9F04FDFF8E8A0847C9346DAF800202C
:1045100092F84870012C83B006468946984687F089
:10452000010738D000249AF80D502346E5B192F8DF
:104530005410490721D47268A2B3DAF804205579DF
:10454000082D22D02846019307F04CFA019B002841
:1045500018BF0746EBB19AF80F307BB314F0EDFFAC
:10456000002305468AF80F308BF8005089F8004088
:1045700088F8007003B0BDE8F08F92F84D10002964
:10458000D9D092F84E50082DDCD113B19AF80E1004
:10459000D1B10025E8E783685B7903F0C003402BC5
:1045A000C0D1C0E7DAF804200193106802F038FFA8
:1045B000019B0028C1D1002BEBD0E7E72846B1686A
:1045C00007F0F2FB0546CFE7B068019107F014FB56
:1045D00005468AF80D000028C6D014F0A4FF08286C
:1045E000019903D0DAF804305871BDE70D46BBE7F6
:1045F000FC0C002008B5054B586802F053FC07F08E
:1046000045FD034B02461A70012008BDFC0C00203A
:10461000100000202DE9F843764C0546A068D4F838
:104620000080002303800F460DF002FE064600289E
:104630003CD0032D4DD0052D55D0A06808F1780150
:1046400015F034F998F87E10A06815F043F9236846
:1046500093F8482093F8418003F1420792B9A0688B
:10466000394615F015F9A068414615F026F9624B58
:10467000D3F80431002B40F0B880052D1CD0304613
:10468000BDE8F88393F85420520705D593F84D20E0
:1046900012B193F84E0001E06368587907F0BEFB51
:1046A00000281CBF07464FF00108D8E7032007F099
:1046B0009FFF3046BDE8F883236839681A6DC2F859
:1046C0000A10B988D1811B6D83F809803046BDE896
:1046D000F883A0680C234370037823F00F0343F0A2
:1046E00003030370AAE7D4F80890226899F8001031
:1046F00021F02F0141EA471141F00501222389F8F9
:10470000001089F80130136D1B6AC9F80F30116D64
:104710008B6A89F81330180A1B0C89F8140089F881
:10472000153091F87630088E002B4BD1334FA7FB14
:104730000030CB6AA7FB0373800AC3F38F2389F889
:1047400017301B0A89F8160089F81830CB6941F236
:104750007070A3F57A7787423FD92848A0FB0303FE
:10476000C3F38F2389F819301B0A89F81A308B8C10
:1047700089F81B301B0A89F81C30CB8C89F81D3056
:104780001B0A89F81E30D1F88F30C9F81F3091F814
:10479000933089F82330136D99F8242093F89A30D8
:1047A00022F01F0203F01F03134389F8243006F0A0
:1047B000CBFD99F8243003F01F0343EA401389F836
:1047C00024303AE70E4FA7FB0030CB6AA7FB0373F8
:1047D000C0F34710C3F34F13B1E70A48A0FB03032C
:1047E0009B0903F550639BB2BCE740F23F61322066
:1047F000FBF748FEFC0C0020001000405917B7D111
:104800001F85EB51D34D621038B5154C236893F8D2
:1048100054309B0718D1A568E5B12368FF2093F8B1
:1048200020110DF0E7F828460DF0C8FC236893F836
:104830002031033B012B94BF282000200DF068FDA0
:10484000636807221A7138BD6368186802F0D8FAE5
:104850000546E1E740F21E513220FBF713FE00BF90
:10486000FC0C002038B51E4C23680E2093F8201154
:104870000DF0C0F8236893F854309B0724D1A56845
:1048800045B328460DF09AFC236893F82031033B8A
:10489000012B94BF282000200DF03AFD2368681DED
:1048A00093F8205107F0D6F9607348B1033D012D0C
:1048B00094BF552550250CF0CDFA28460DF06AFD21
:1048C000636808221A7138BD6368186802F098FAA4
:1048D0000546D5E740F20B513220FBF7D3FD00BF70
:1048E000FC0C002070B50D4DD5E9000302221A71B1
:1048F00003F050FF00B170BD2E68044606F16C0055
:1049000002F010FBA6F8214186F8234186F870409A
:104910002868BDE8704004F09BB800BFFC0C002084
:1049200010B50A4C07F0B2FB094A637B10701BB943
:104930000DF02AFB032010BD0DF038FD0CF0A8FA95
:10494000002363730DF020FB032010BDFC0C00203E
:104950001000002070B52D4C236893F823210546E4
:104960005F2A93F821019CBF5109294A00F03F00BA
:1049700094BF565C00260DF0D9F9236893F95800CE
:104980000DF0C4F9EDB123683246996E01200DF0A7
:10499000A3FA236893F89630022B0CBF4020FF2027
:1049A00031460DF027F8236893F8542092070ED172
:1049B00093F89530A568A3B12846BDE870400DF086
:1049C000FDBB3246732101200DF086FAE1E76368F2
:1049D000186802F015FA236893F895300546002B05
:1049E000EAD1681D07F036F960730028E4D0033E71
:1049F000012E94BF552450240CF02CFA20460DF0C3
:104A0000C9FC2846BDE870400DF0D8BBFC0C002066
:104A1000606E0200F0B52E4C236893F823215F2AC4
:104A20009EBF51092B4A575C9A6E83B0064688BFD9
:104A30000027002A40D1D3F888000DF035FC256806
:104A400095F854309A0703D595F89620022A2AD073
:104A50005B0724D463681868CEB902F0E1FC636890
:104A60000646186802F0E2FC024605F19A00256845
:104A700095F8963095F820510095314602F01CFECD
:104A80002268002382F82071A37303B0F0BD02F006
:104A9000D9FC014605F19A0002F004FEF0E795F812
:104AA0009630012BD6D1FB1E012B0AD939460020A6
:104AB0000DF096FC2568CDE70120FFF74BFF23683A
:104AC000B9E795F85930012B14BF39460321EEE7B9
:104AD000FC0C0020606E020010B50B4C637B63B9C8
:104AE000A1680020FEF75CFF23680022A3F82121C3
:104AF00083F8232183F8702010BD0DF057FC0CF0D3
:104B0000C7F900236373EBE7FC0C002010B50F4CD2
:104B1000637B9BB9D4E9003000224FF0010C80F890
:104B200004C003F16C00A3F8212183F8232102F0D3
:104B300087F92068BDE8104003F08ABF0DF036FC0D
:104B40000CF0A6F900236373E4E700BFFC0C00201F
:104B50002DE9F04F0729044687B040680D4690467E
:104B600048D100287CD0637C012B00F0BE80AC4E85
:104B700073685879082857D004AA0DF10F0107F07F
:104B800023F8002800F056819DF80F0004A916F0C4
:104B900026F88146316891F854309F0740F0B28082
:104BA00077684FF0000A87F806A091F8543013F0A8
:104BB000040376D1FB719B4B1B6823B14146204611
:104BC000984738727768636843B13268617C82F8CD
:104BD0007E10196891679B88A2F87C303B7A002B85
:104BE00000F02D810123A06808B1072D2ED007B059
:104BF000BDE8F08F002800F09280637C012BB6D1D5
:104C0000437903F0C003402BB1D1854E737B002B59
:104C100075D0776814F087FC7368787158793073B1
:104C200001230828B373A7D16168607C15F0D7FF12
:104C30007268616881460532607C06F0FBFE0346BF
:104C40000028A7D17768F8803872CCE779790829ED
:104C5000CDD0002BCBD006F0EDFF0123F373C6E7D8
:104C60006F4E3168002A5DD091F8543013F003097B
:104C700096D0776891F84CA097F806B08146BBF1C2
:104C8000000F75D06368002B41D1386802F0C8FB73
:104C9000002800F0BB804B464FF00109D6E9001711
:104CA0003AE0062D91F84D3003D8002B82D14B46C7
:104CB00080E797F807A0082D65D8B8F1000F00F03D
:104CC0009780BAF1000F5ED06268002AEDD1386893
:104CD000019302F0A5FB18B9019B002B00F0A68000
:104CE0004FF0010977684B4664E7437903F0C0034E
:104CF000402B7FF43CAF4A4E737B002B45D1736849
:104D0000587937E7062D91F84CA077682ED8BAF17C
:104D1000000F7FF448AF4B46CA46994643E7404EE2
:104D2000814637E791F85430706813F0030218BFDA
:104D3000012213F00403827105D02378A3F101034B
:104D4000B3FA83F35B09C37191F89430002B3FF4FD
:104D50004EAF3368D3F89000503016F074FD002841
:104D60007FF445AF736801221A7240E7082D1CD901
:104D7000002213F00403BA713FF41CAF91F84D30D8
:104D800097F807A097E7002314E7B8F1000F7FF426
:104D900040AF336893F8201101297FF43AAF06F051
:104DA0002BFF70730028AAD033E797F806B0B8F14C
:104DB000000F7FF464AF6268002AA8D16278D00641
:104DC0001CD50120B8715807DDD591F84D3097F802
:104DD00007A00193D30627D4386802F021FB019B7A
:104DE00000283FF47AAFBAF1000F3FF476AF77E7CF
:104DF0006268002A7FF459AF6278EAE7386802F007
:104E00000FFB18B1BBF1000F7FF445AFBAF1000FF3
:104E10007FF441AF06F008FE4B4681463EE700BFF7
:104E2000FC0C0020700000200123C3E606F0FCFD0E
:104E3000814657E740F693313220FBF723FBFB888E
:104E4000003B18BF0123CEE670B5194E8AB0054667
:104E500007F01CF93368174A93F85430107013F0B8
:104E6000060F16D12C7804F00F0422462846694616
:104E700002F0F4FA214600226846FFF769FE214657
:104E80006846FEF799FE737B044643B920460AB094
:104E900070BD0122962100200DF032F8E2E70DF0FE
:104EA00085FA0BF0F5FF0023204673730AB070BD3E
:104EB000FC0C00201000002010B5114C07F0E6F8A3
:104EC000104A637B10709BB9D4E9003000224FF088
:104ED000010C80F804C003F16C00A3F8212183F8D1
:104EE000232101F0ADFF2068BDE8104003F0B0BD04
:104EF0000DF05CFA0BF0CCFF00236373E4E700BF16
:104F0000FC0C00201000002010B5104C606802F06E
:104F100009F8637B9BB9D4E9003000224FF0010C03
:104F200080F804C003F16C00A3F8212183F8232149
:104F300001F086FF2068BDE8104003F089BD0DF048
:104F400035FA0BF0A5FF00236373E4E7FC0C0020A7
:104F500010B5124C606801F0E5FF07F097F8104AB1
:104F6000637B10709BB9D4E9003000224FF0010C34
:104F700080F804C003F16C00A3F8212183F82321F9
:104F800001F05EFF2068BDE8104003F061BD0DF048
:104F90000DFA0BF07DFF00236373E4E7FC0C0020A7
:104FA0001000002010B507F071F8134C134B0246A7
:104FB00020681A700021A03013F0B0FF637B9BB90A
:104FC000D4E9003000224FF0010C80F804C003F156
:104FD0006C00A3F8212183F8232101F031FF206820
:104FE000BDE8104003F034BD0DF0E0F90BF050FFC8
:104FF00000236373E4E700BFFC0C002010000020D6
:1050000010B5154C606801F04DFF07F03FF80246FF
:105010002068124B0021A0301A7013F07FFF637BD1
:105020009BB9D4E9003000224FF0010C80F804C095
:1050300003F16C00A3F8212183F8232101F000FF84
:105040002068BDE8104003F003BD0DF0AFF90BF090
:105050001FFF00236373E4E7FC0C00201000002016
:1050600010B500210320FFF7D5FA164C20B12068B7
:10507000032102F067FDA8B9637BDBB9D4E90030F6
:1050800000224FF0010C80F804C003F16C00A3F87B
:10509000212183F8232101F0D3FE2068BDE81040D0
:1050A00003F0D6BC012108460DF09AF96368092285
:1050B0001A7110BD0DF07AF90BF0EAFE002363734C
:1050C000DCE700BFFC0C002010B51D4CD4E9000348
:1050D0000C2201211A7103F0E5FC00210520FFF7E5
:1050E00099FA20B12068062102F02CFDA8B9637B53
:1050F000FBB9D4E9003000224FF0010C80F804C065
:1051000003F16C00A3F8212183F8232101F098FE1C
:105110002068BDE8104003F09BBC2368012093F891
:1051200020110DF05DF923681B6D012283F88E209C
:1051300010BD0DF03BF90BF0ABFE00236373D8E715
:10514000FC0C002070B5234C236893F823215F2AC0
:105150009EBF5109204A565C9A6E88BF00266ABBE2
:10516000D3F888000DF0A0F8256895F854309A0718
:1051700003D595F89620022A17D05B0703D595F83A
:105180009630012B11D06368186802F05BF9014674
:1051900005F19A0002F086FAD4E900130022A27306
:1051A000062281F820611A7170BDF31E012B0AD905
:1051B000314600200DF014F92568E4E70120FFF7DF
:1051C000C9FB2368CCE795F85930012B14BF314651
:1051D0000321EEE7FC0C0020606E020038B5154C90
:1051E0000521206802F0AEFC48B12368012093F845
:1051F00020110DF0F5F863680B221A7138BD637B3E
:105200008BB9D4E9003000220125057103F16C004F
:10521000A3F8212183F8232101F012FE2068BDE8C4
:10522000384003F015BC05460DF0C0F80BF030FE19
:105230006573E6E7FC0C002010B598B991B11F4AE0
:105240005368197908292ED919790C2930D81B7976
:10525000526903F180435268093BBDE8104052F89F
:1052600023301847154C606801F05CFE637B9BB9E6
:10527000D4E9003000224FF0010C80F804C003F1A3
:105280006C00A3F8212183F8232101F0D9FD2068C7
:10529000BDE8104003F0DCBB0DF088F80BF0F8FD22
:1052A00000236373E4E741F263413220FBF7EAF83D
:1052B00041F264413220FBF7E5F800BFFC0C00200E
:1052C00038B5234C6368186801F098FD00283AD07F
:1052D00063680A2205461A712068002103F0E2FB88
:1052E00022682B78126D92F88E5005EA531505F05E
:1052F000010505202946FFF78DF948B120680421F2
:1053000002F020FC20B123681B6D83F88E5038BD5D
:10531000637B8BB9D4E9003000220125057103F1CC
:105320006C00A3F8212183F8232101F089FD206876
:10533000BDE8384003F08CBB0DF038F80BF0A8FD49
:1053400000236373E6E740F263513220FBF79AF8DB
:10535000FC0C0020F0B52B4C236893F823215F2A26
:105360009EBF5109284A575C9A6E83B088BF0027B8
:10537000002A3AD1D3F888000CF096FF256895F8FA
:1053800054309A0703D595F89620022A24D05B075B
:1053900003D595F89630012B1ED06368186802F08B
:1053A0003FF863680646186802F040F8024605F1C7
:1053B0009A00256895F8963095F820510095314669
:1053C00002F07AF9D4E900130022A273052281F8D1
:1053D00020711A7103B0F0BDFB1E012B0AD93946AA
:1053E00000200CF0FDFF2568D7E70120FFF7B2FA97
:1053F0002368BFE795F85930012B14BF39460321C4
:10540000EEE700BFFC0C0020606E0200F0B55A4CC5
:10541000206883B06C3001F013FD656801F0C0FCBA
:10542000636828601868002800F0A18001F0E6FC9D
:105430000546002800F09680236893F8A630002BDC
:1054400054D1D4E9000290F8A430034493F82471B5
:1054500080F82071137913B11379012B5FD190F883
:10546000A520464B134418790CF060FC236893F890
:10547000A420134493F82461022E4ED02FD9F31E9A
:10548000012B2ED801F086FC31460CF0B3FA2846E9
:105490000CF094FE314601200CF04EFC012F34D06C
:1054A000681D06F0D7FB607348B1033F012F94BF1E
:1054B000552550250BF0CEFC28460CF06BFFD4E9A7
:1054C000000208210023517121730321D38013723C
:1054D000E38180F895302374117103B0F0BD012E83
:1054E000D0D040F2FE713220FAF7CCFF236893F857
:1054F000542093F8A700196DC3F81011024383F8E4
:105500005420002283F8A6209BE7E81C06F0A2FBAB
:1055100060730028D3D04025CCE70D20B4E70021EC
:1055200002F010FB08B1206899E7637B93B9D4E9D6
:10553000003000220125057103F16C00A3F8212140
:1055400083F8232101F07CFC206803B0BDE8F04023
:1055500003F07EBA01900CF029FF0BF099FC019842
:105560006073E4E740F256413220FAF78BFF40F2D5
:1055700054413220FAF786FFFC0C0020606E0200D6
:1055800008B506F083FD044B18700CF0FDFCBDE877
:105590000840FFF73BBF00BF1000002010B50C4CC7
:1055A00006F074FD0B4A637B10702BB90CF0ECFC19
:1055B000BDE81040FFF72ABF0CF0F8FE0BF068FCC6
:1055C000002363730CF0E0FCBDE81040FFF71EBF42
:1055D000FC0C00201000002038B50446FEF720FD2A
:1055E000237A032B76D03E4D002B48D12A683D49C3
:1055F00092F8A53092F84B000133A1FB034C0CF458
:10560000FF7404EB5C041B1B40FA03FC1CF0010F4D
:10561000DCB216D10133A1FB034C2CF0010404EBE6
:105620005C041B1B40FA03FC1CF0010FDCB208D128
:105630000133A1FB034121F0010404EB51015B1A8A
:10564000DCB282F8A54092F958000CF05FFBFFF73E
:10565000DDFE2C6894F8483083B1D4E920126FF055
:1056600000439A4208BFB1F1FF3F07D016F0DCF9C2
:10567000D4E92023904271EB030302D238BD2A689B
:10568000E1E7012006F05CFB0028F7D02D6806F06A
:1056900095FA044616F0C8F963011B1B4FEAD46261
:1056A00062F10002520242EAD3525B021B1942F13C
:1056B000000C4FEA8C1E9A014EEA936ED31A6EEBE1
:1056C0000C021B1942F100021B1842EB0101C5E953
:1056D000203138BD40F619113220FAF7D3FE00BF51
:1056E000FC0C0020ABAAAAAA38B50446FEF798FC29
:1056F000237A032B62D0012B69D051D84D4C4E49EF
:10570000226892F8A53092F84B000133A1FB035CAC
:105710000CF4FF7505EB5C055B1B40FA03FC1CF009
:10572000010FDDB216D10133A1FB035C2CF00105A2
:1057300005EB5C055B1B40FA03FC1CF0010FDDB2BE
:1057400008D10133A1FB035121F0010505EB510103
:105750005B1ADDB282F8A55092F958000CF0D6FA27
:105760002368002283F89520FFF750FE256895F8FE
:105770004830A3B1D5E920126FF000439A4208BF28
:10578000B1F1FF3F0BD016F04FF9D5E9202390423D
:1057900071EB030303D3012006F0D2FA08BB38BD36
:1057A000023B012BFBD8234C236893F8950088B962
:1057B000FFF730F9636805221A7138BD1D4B1B686D
:1057C000986E90BBFFF7C6F8237A012B95D1194C40
:1057D0002268C1E70120FFF71DF9636806221A71EC
:1057E00038BD256806F0EAF9044616F01DF9630194
:1057F0001B1B4FEAD46262F10002520242EAD3520A
:105800005B021B1942F1000C4FEA8C1E9A014EEA12
:10581000936ED31A6EEB0C021B1942F100021B1897
:1058200042EB0101C5E9203138BD40F62F1132208D
:10583000FAF728FEFC0C0020ABAAAAAA2DE9F04733
:10584000DFF8C082D8F8006096F8573086B063B1B0
:10585000D8F80470BB79054663B12C78012C12D0BE
:10586000022C00F0E880002C58D00324204606B01B
:10587000BDE8F087FA79002AEFD13A7A002AF4D00D
:105880002C78012CECD196F82031022B6B7800F0AB
:105890000A8103F01803182BE7D196F85430590702
:1058A00000F107819A071BD0974B93F900407F2C9A
:1058B00000F067817F221A70D8F804700CF026F887
:1058C00098F80C100191002100900391029406F1C8
:1058D0004203FF223846294601F074FB0028C4D059
:1058E000A9690120FEF78EFC0028BED0D8F8002060
:1058F000012382F896306B69002B00F0F58059780F
:105900000224C1F3031182F8971059781B7801F033
:105910000F0143EA0123A2F89830A7E796F8542034
:105920009007A2D013B93B7A002B9ED06B7813F06E
:10593000100F14BF08220122C3F3001632EA03033A
:1059400093D1AA6800238DF815308DF816308DF8A4
:105950001730002A00F0D4800DF117030DF1160165
:105960000DF115022846FEF7CBFDD8F800109DF882
:10597000153091F84170002B40F0F780AB68AA7C9D
:105980004231384613F08BFD90B9D8F8003093F8C7
:105990005530023B012B3FF668AF9DF81630002BC7
:1059A0003FF463AF9DF81530002B7FF45EAFFE2708
:1059B000002E00F0AB80544A92F900607F2E00F078
:1059C000E080D8F80030D8F804A003F142047F2327
:1059D00013700BF09BFF4FF0000998F80C1000902B
:1059E00001910296CDF80C9023463A46504629463E
:1059F00001F0E8FA00283FF438AFA9690120FEF76A
:105A000001FC00283FF431AFD8F8003083F89690BD
:105A10006A69002A00F0B0805178C1F3031183F85D
:105A200097105178127801F00F0142EA0122022406
:105A3000A3F898201AE796F854309B073FF415AF67
:105A40006B7803F01803182B7FF40FAF2E4B93F9EC
:105A50000090B9F17F0F00F094807F221A700BF054
:105A600055FF98F80C200192002200900392CDF887
:105A7000089006F142033846FF22294601F0A2FAB7
:105A800000283FF4F2AEA9690120FEF7BBFB002815
:105A90003FF4EBAED8F8002082F896406B69002BFB
:105AA00066D059782DE703F01903192B3FF4F5AEB2
:105AB000DBE669680023B1FA81F11A4649092846F4
:105AC000FDF7F6FE00283FF4D0AEAB69D8F80060D1
:105AD0009B7813F0E0030CD196F84930002B3FF48B
