:020000040000FA
:10000000808D0020CDCD0100675B0200B9CD0100DD
:10001000B9CD0100B9CD0100B9CD0100000000004B
:1000200000000000000000000000000039CF0100C7
:10003000B9CD010000000000D5CE0100B9CD01000E
:10004000EDD001006B6E0200EDD00100EDD001009B
:10005000EDD00100EDD00100EDD00100EDD00100A8
:10006000216E0200EDD00100EDD00100556E0200BE
:10007000EDD00100EDD00100EDD00100EDD0010088
:10008000EDD00100EDD00100EDD00100EDD0010078
:10009000EDD00100EDD00100EDD00100EDD0010068
:1000A000EDD00100EDD00100EDD00100EDD0010058
:1000B000EDD00100EDD00100EDD00100EDD0010048
:1000C000EDD00100EDD00100EDD00100EDD0010038
:1000D000EDD00100EDD00100EDD00100EDD0010028
:1000E000EDD00100EDD00100EDD00100EDD0010018
:1000F000EDD00100EDD00100EDD00100EDD0010008
:100100002DE9F00791E8F807B2E802105B1854EB0C
:100110000C04B2E802104D4156EB0C06B2E8021096
:100120004F4158EB0C08B2E8021059EB01095AEBA9
:100130000C0A80E8F80780410130BDE8F0077047FD
:100140002DE9F00791E8F807B2E802105B1A74EBAA
:100150000C04B2E802108D4176EB0C06B2E80210F6
:100160008F4178EB0C08B2E8021079EB01097AEBC9
:100170000C0A80E8F80780414042BDE8F00770476C
:100180002DE9F007524290E87800B1E88007174067
:10019000DB1918EA020854EB080419EA020955EBC6
:1001A00009051AEA020A56EB0A0678C090E87800B8
:1001B000B1E8800717407B4118EA020854EB0804B5
:1001C00019EA020955EB09051AEA020A56EB0A0672
:1001D00078C080410130BDE8F00770472DE9F00795
:1001E000524290E87800B1E880071740DB1B18EA1C
:1001F000020874EB080419EA020975EB09051AEA0A
:10020000020A76EB0A0678C090E87800B1E8800729
:100210001740BB4118EA020874EB080419EA020906
:1002200075EB09051AEA020A76EB0A0678C08041E6
:100230004042BDE8F00770472DE9F00152424FF00F
:10024000040890E8300091E8C000A31B1340E41AB2
:10025000F618EB1B1340ED1AFF1830C0C0C1B8F1FF
:100260000108EED1BDE8F001704700BF00B592E88B
:10027000DC072DE9DC07B1E8805702B4A7FB025187
:100280000A95A8FB020BE7FB6310E9FB62B00B9138
:10029000A8FB0351EAFB6201E7FB64B5E7FB6605D7
:1002A000E8FB6615CDF830B0A9FB03B6EAFB631690
:1002B000ECFB6356E8FB640BE9FB641BEAFB645B45
:1002C000ECFB646B0D90ACFB0230059CEEFB6250C6
:1002D000E9FB6460EAFB64B0E7FB6431E8FB64516E
:1002E000069CE8FB6461E9FB64B1EAFB64010E93E0
:1002F000A7FB0432079CE7FB6462E8FB64B2E9FBFE
:100300006402EAFB6412049CE9FB6453EAFB646345
:10031000089CE7FB64B3E8FB6403E9FB6413EAFBB6
:1003200064230F955DF8049B99E80006DDF80080D2
:10033000A9FB0854EAFB68B4DDF81080ECFB680404
:10034000EEFB6814E9FB6824EAFB6834DDF80480FE
:10035000EEFB6865E9FB68B5EAFB6805DDF814802B
:10036000ECFB6815EEFB6825E9FB6835EAFB6845A0
:100370000F96DDF80880AEFB0876E9FB6806EAFB1D
:100380006816DDF81880ECFB6826EEFB6836E9FBA2
:100390006846EAFB6856DDF80C80ECFB68B7EEFBBC
:1003A0006807E9FB6817EAFB6827DDF81C80ECFBAF
:1003B0006837EEFB6847E9FB6857EAFB686708B0F7
:1003C00000BD00BF2DE9F14F87B0FFF74FFFDDF80B
:1003D0001C8008F1200888E8FF00FFBC87E87F0840
:1003E000BDE8F08F00B591E89857A3FB0352019543
:1003F000A3FB0401E3FB6420E3FB67100292A3FB71
:100400000752E3FB6802E4FB6415E3FB6805E3FBCA
:1004100069250391A4FB07B6E3FB6926E3FB6A5653
:10042000E4FB670BE4FB682BE3FB6A5BE3FB6C6BB1
:100430000490A4FB0810E4FB6950E3FB6C60E3FB51
:100440006EB0E7FB6721E4FB6951E4FB6A61E3FB03
:100450006EB1E4FB6E010592A7FB0832E4FB6A6211
:10046000E4FB6CB2E4FB6E02E7FB6E12E7FB685341
:10047000E7FB6963E4FB6CB3E7FB6C03E7FB6E131C
:10048000E8FB6E230695A7FB0954E7FB6AB4E7FB7C
:100490006C04E8FB6C14E8FB6E24E9FB6E34E8FBAB
:1004A0006865E7FB6AB5E8FB6A05E8FB6C15E9FBE4
:1004B0006C25E9FB6E35EAFB6E450796A8FB0976CD
:1004C000E8FB6A06E9FB6A16E9FB6C26EAFB6C3678
:1004D000EAFB6E46ECFB6E56E8FB69B7E9FB690781
:1004E000E9FB6A17EAFB6A27EAFB6C37ECFB6C470F
:1004F000ECFB6E57EEFB6E6700BD00BF2DE9F14FC0
:1005000087B0FFF76FFFDDF81C8008F1200888E84E
:10051000FF00FFBC87E87F08BDE8F08F30B44FF0E4
:10052000000310F8014B11F8015B013A84EA05045D
:1005300043EA0403F5D1A3F101034FEAD37030BCC1
:10054000704700BF4FF0000310F8012B013943EA58
:100550000203F9D1A3F101034FEAD370704700BF42
:1005600030B411F8014B12F8015B6C4000F8014BFC
:10057000013BF6D130BC70472DE9F00791E8F80750
:10058000B2E802105B1854EB0C04B2E802104D41C3
:1005900056EB0C06B2E802104F4158EB0C08B2E8DB
:1005A000021059EB01095AEB0C0A8941B3F1FF33F0
:1005B00074F1FF3475F1FF3576F1000677F100072D
:1005C00078F1000879F101097AF1FF3A51F100015F
:1005D0005B184C414D4156F1000657F1000758F1A8
:1005E000000859EBD1795AEB010A80E8F807BDE819
:1005F000F00770472DE9F00791E8F807B2E802101C
:100600005B1A74EB0C04B2E802108D4176EB0C0619
:10061000B2E802108F4178EB0C08B2E8021079EBD7
:1006200001097AEB0C0A89415B184C414D4156F1A6
:10063000000657F1000758F1000859EBD1795AEB41
:10064000010A80E8F807BDE8F007704718EB0408D6
:1006500059EB05095AEB060A5BEB070B5FF0000C40
:100660004CF1000C18EB050859EB06095AEB070A88
:100670005BEB070B50EB0C005FF0000C51EB0C0137
:1006800052EB0C0263414CF1000CB8EB070879F116
:1006900000097AF1000A7BEB040BA841B141A241A9
:1006A000B3416CF1000CBBEB050BB041B941AA4161
:1006B000BB416CF1000C4CF001068CF0020718EB0A
:1006C000060859EB6C095AEB6C0A7BEB6C0B70EB70
:1006D0006C0471EB6C0572EB670653EB6C076CEB0B
:1006E0006C0C18EB0C0059EB0C015AEB0C025BF193
:1006F000000354F1000455F1000556EBDC7657EB8E
:100700000C0770472DE9F14F87B0FFF7AFFDDDF81B
:100710001080DDF81490DDF818A0FFF797FFBDE812
:10072000000FFFF793FF03B05DF8048B88E8FF002C
:10073000BDE8F08F2DE9F14F87B0FFF753FEDDF8EC
:100740001080DDF81490DDF818A0FFF77FFFBDE8FA
:10075000000FFFF77BFF03B05DF8048B88E8FF0014
:10076000BDE8F08F074B1B78002B4FF00003836030
:100770000360054B436014BF02220122FF23C271B4
:1007800003727047000A002028010800064B074A40
:100790009B7802604FF412728280C371082200239A
:1007A00082710372704700BF000A00205BBC010029
:1007B000064B074ADB7802604FF432728280C371C5
:1007C0000822002382710372704700BF000A0020D4
:1007D000C5BA0100064B074A1B7902604FF4B47298
:1007E0008280C3710822FF2382710372704700BFA9
:1007F000000A002081B601002DE9F341C41D002844
:1008000024F00704064614BF2046002000F034FD03
:10081000071E04DA6FF00B0002B0BDE8F0810EB9DC
:10082000FC42F7D4354D297AE879AB7A6A7A0331FC
:10083000033017F0D7FA0028ECDBA978EB783C44BA
:100840000334002E194424F0030400FB01F114BF0B
:100850002046002000F09CFE20440EB90028D9DB81
:100860002B790446B3B1697C19446B791944FF298B
:10087000D0DC0330002E20F0030414BF20460020FB
:10088000AA89C9B200F0F4FE0028C3DB04440EB903
:10089000002CBFDB012000F0E5FCC8B1E97AB9B15A
:1008A00095F828300734002B15BF402325234FF43B
:1008B0008172282224F00704002E14BF2046002055
:1008C00006F05AFD0028A5DB04440EB9002CA1DB7C
:1008D000AB7BE3B12B799BB10734002E24F00704E6
:1008E00014BF20460020A97B0DF012F9002891DBEF
:1008F000044466B9002C0ADA8CE700BF000A002025
:10090000012000F0AFFC10B1EB7A002BE4D1714B69
:100910001B6893B1A97981B10334002E24F003043C
:1009200014BF20460020EA7B98470028FFF672AFEC
:10093000044416B9002CFFF66DAF674B1B688BB1F2
:10094000297C79B10334002E24F0030414BF20461F
:10095000002098470028FFF65DAF044416B9002C2C
:10096000FFF658AF5D4B1F68AFB1697C99B1033496
:10097000002E2B7D009324F0030414BF204600209A
:10098000EB7CAA7CB8470028FFF644AF044416B9B4
:10099000002CFFF63FAF072000F064FC98B1A97966
:1009A00089B10334002E24F0030414BF2046002034
:1009B000AA7D00F04BFF0028FFF62CAF044416B9C7
:1009C000002CFFF627AF95F82100B6FA86F77F09CD
:1009D000A0B1EB7E297E033424F00704194444F0CF
:1009E00004043B462246C9B200F072FF0028FFF61D
:1009F00011AF044416B9002CFFF60CAF95F8221085
:100A0000002957D00734002E24F0070814BF4046B1
:100A10000020AA8C17F0FBF9041EFFF6FBAE44443D
:100A200016B9002CFFF6F6AE1EB1A98C404612F0A6
:100A300095FC297F00293FD095F82030002B3BD032
:100A4000EA8B0734002E24F0070802F1240214BFB9
:100A50004046002092B217F0DAF9041EFFF6DAAE33
:100A6000444416B9002CFFF6D5AEAB7E297E95F82E
:100A70002000033424F00704194444F004043B46E6
:100A80002246C9B200F016FF0028FFF6C3AE0444A8
:100A900016B9002CFFF6BEAE36B1EA8B297F0832BC
:100AA00092B2404612F060FCEB6A5BB176B1EC6248
:100AB0000020B1E68846B7E7002EF5D000221146A7
:100AC0001046EFE7002EF3D12046A5E62834FBD5EB
:100AD000A0E600BF5C000020640000206000002051
:100AE0001FB572B6184B1D6BE5B9BFF34F8F174991
:100AF000174BCA6802F4E0621343CB60BFF34F8F19
:100B000000BFFDE7B2FBF6F2DCB20133002AF9D1F7
:100B100004F110036B4403F80C2C0A2234B901A829
:100B2000A847E2E7024600230A26EDE7631E04AE6B
:100B3000DCB256FA83F3B0FBF2F602FB160030305B
:100B400003F80C0C3046E9E7000A002000ED00E055
:100B50000400FA0513B5114CA37A8DF80130637ABD
:100B60008DF80030237AADF804306846E379ADF8AB
:100B700002300AF02BFD18B1DB210320FFF7B0FF94
:100B8000207D0AF087FD08B1DE21F6E7E07C0AF05F
:100B90007BFD08B1DF21F0E702B010BD000A0020A4
:100BA00038B5054600283ED015F0A6FD10B94FF027
:100BB000FF3038BD13F004F8B0F5FA7FF7D81C4CBD
:100BC0001C482563002500F0C7FA26222946A01CF0
:100BD00084F83450257084F82850E56216F04CF9FA
:100BE0001B22E27140F21B3240F20113228140F2DB
:100BF00002326380628101231F222371A281A375C7
:100C00004FF40272F723E281E38344F60112FB23DF
:100C10006282A384EFF3108472B600F069FE2CB9EF
:100C200062B62046C5E76FF01500C2E72846C0E768
:100C3000000A0020550B000038B51446002840F08B
:100C4000B3805B4D95F83430032B00F0AA80B1B12E
:100C500012B96FF0150038BD0139142900F2A480D3
:100C6000DFE801F00B1C1F2F59627F356568793B67
:100C7000414F54858896999C8E001378AB70002064
:100C8000FFF7BAFD0028B7BF0123022385F83430EF
:100C90006FF00B00A8BF85F83430DCE71378EB70F9
:100CA000EDE79378002BD4D0D378002BD1D01378F4
:100CB0001A2BCED953781A2BCBD91368C5F8073025
:100CC000DDE713786A799342C3D32B71D7E71378A2
:100CD0002A799342BDD86B71D1E713782A79934270
:100CE000B7D86B74CBE71378002BB2D05378013BA5
:100CF000DBB2F82BADD813886B822E4B92789A70AA
:100D0000BDE71078687510F0A3FBB8E71378002BE7
:100D10009FD0AB75B3E7012000F0A4FA237808B1A7
:100D2000012B96D9EB72AAE71388AB81A7E713785A
:100D3000AB71A4E7072000F095FA10B92378012BD6
:100D400087D9072000F08EFA10B12378002B80D0CD
:100D50002378EB7393E71378082B3FF67AAF2B7465
:100D60008DE71388FF2B3FF674AFAB7387E71378DB
:100D7000EB7584E713780E2B3FF66BAF2B767EE78F
:100D800023680D4AEB61636853602389138176E71A
:100D900013786B7673E71378EB7670E71378AB769E
:100DA0006DE74FF0FF3056E76FF02C0053E700BFC0
:100DB000000A0020120A00201C0A0020F8B50D4687
:100DC000064630B329B311F0070422D1124F97F829
:100DD0003430012B02D16FF00B00F8BD032B02D190
:100DE0004FF0FF30F9E700F0E7F80028F8D0284688
:100DF000FFF702FD0028EEDB1BF004F83046F96A2D
:100E00000AF020FDFFF7A6FE032387F834302046C2
:100E1000E3E76FF01500E0E7000A002010B5074C8B
:100E200094F83430032B03D10AF028FD0BF08EFE2A
:100E300017F035F9002084F8340010BD000A0020B6
:100E400050B1074B03F1140253F8041B40F8041B84
:100E50009342F9D1002070476FF01500704700BF32
:100E6000A988020010B5074B93F834403CB90AF04A
:100E70007BFC0320044900F0EDF9204610BD4FF043
:100E8000FF30FBE7000A0020D507000010B5074B34
:100E900093F834403CB90AF07BFC0220044900F08E
:100EA000D9F9204610BD4FF0FF30FBE7000A0020C3
:100EB000B107000008B50C4B93F834208AB993F8B9
:100EC00028305BB10AF0A2FC0849012000F0C2F909
:100ED0000020074900F0BEF9002008BD0AF07AFCA6
:100EE000F2E74FF0FF30F8E7000A00206507000046
:100EF0008D07000010B5054B93F834401CB90AF07B
:100F0000E5FB204610BD4FF0FF30FBE7000A002054
:100F100010B5054B93F834401CB90AF0C9FB2046C4
:100F200010BD4FF0FF30FBE7000A002010B5054B65
:100F300093F834401CB918F012FA204610BD4FF057
:100F4000FF30FBE7000A002010B5054B93F8344052
:100F50001CB918F007FA204610BD4FF0FF30FBE730
:100F6000000A002010B5054B93F834401CB918F066
:100F7000FCF9204610BD4FF0FF30FBE7000A0020CF
:100F800010B5054B93F834401CB918F0F0F9204621
:100F900010BD4FF0FF30FBE7000A0020024B026853
:100FA0001A600020704700BF380A0020014B1B6800
:100FB000184700BF380A0020024B1868003818BFD5
:100FC00001207047380A0020F7B52E4E0446071D51
:100FD0002C4837600BF0DAFD0228054606D1294976
:100FE000204616F0BEF8284603B0F0BD042842D1D2
:100FF0003378092B0AD0262B1ED03146204616F016
:1010000015F9B0F5817F2DD3722112E005213E2024
:1010100016F07AF80028F0D1F378327901A943EA82
:1010200002236846ADF8003016F0BAFC0028CFD095
:1010300053210820FFF754FD1A213E2016F064F8D2
:101040000028DAD17368C3F30F23ADF80430694682
:10105000112301A88DF8063016F0C4FC0028B7D083
:101060006521E6E70028B3D0A178207816F04CF887
:101070000028B8D1ACE70828B5D10249204616F0BF
:101080009FF8B0E73C0A0020074B4FF0FF3141F6D4
:10109000FF72C3E9001205490022C1E900221F21A5
:1010A000C3E90212704700BF00000020400B00207F
:1010B0003F280CD801380B4BC0F3421200F01F0040
:1010C00053F8223023FA00F000F001007047FF28A7
:1010D00006D04038C0F34212034B00F01F00EFE788
:1010E0000120704700000020400B00200146074B04
:1010F000006849681A4603C240F48C221A6041F025
:10110000107242F4FF625A60704700BF0000002076
:101110000246024B0068516803C37047400B002031
:101120000246024B0068516803C370470800002064
:10113000FD281ABF00F1FF30C0B23F20054B420925
:1011400003EB820300F01F009B6823FA00F000F01D
:101150000100704700000020014B1860704700BF7D
:10116000480B002010B5FFF78FFF17F019FB034B5A
:101170001B68044603B19847204610BD480B002069
:101180000B880288F0B5C3F30E049EB204F1140379
:10119000C57CC35A02352A442B4497B213FA82F312
:1011A000013B4288B3FBF7F313FB07439BB29A4220
:1011B000044A93BF22EA0603324013439BB20B80DA
:1011C000F0BD00BF0080FFFF4A1E062A08B5034697
:1011D000084604D84FF4D1711520FFF781FC094A65
:1011E000914202D940F2A311F6E711B903B1196097
:1011F00008BD2BB11B680022C3E901211A1D1A602A
:101200000430F5E7FAFFFF7F10B5114B00EB410406
:101210001A786389B3FBF2F303FB0223013A1A4401
:10122000B2F5706F027928BF00231A448378B2FBAD
:10123000F3F0194403FB1020091AB1FBF3F003FB90
:10124000101313446FEA43436FEA5343638110BDA5
:101250004C0B0020024B03EB80035960704700BF2A
:101260004C0B0020034B03EB80035868003818BF79
:10127000012070474C0B00202DE9F04F10F0070AB9
:1012800085B0054604D040F261111720FFF728FC15
:10129000554F07F14006B1460446B0464FF0010BEA
:1012A00057F8043B8DF80BA03BB101A898479DF877
:1012B0000A30082B01D9E821E7E79DF80B1081BB24
:1012C00005B13160B94506F10406E9D12DB3DFF867
:1012D0001CE100238EF800301E460F2258F8220031
:1012E000013A60B190F804A08178BAF1FF0F66D19D
:1012F0004FF000078E4207713CBFCEB20123511C54
:10130000ECD10BB18EF800600F2640F6FF6A58F85A
:101310002670002F65D1013EF9D2601B05B0BDE8F3
:10132000F08F9DF80AC0BCF1020FE64601F10502FC
:1013300038BF4FF0020E0EF1FF3004EB42040444BC
:10134000CEF100002040BDF808406444013CCCF1DF
:10135000000C04EA0C04B4F5803F4FEA420301D3C9
:10136000F82192E775B1C31A336099701C8083F835
:1013700003B09DF80C201A71019A1A814FEA124CA1
:10138000A3F806C004FB01049CE758F82C90B9F1BF
:10139000000F06D099F804B0D34504BF99F8029025
:1013A0004F440CF1FF3CBCF1000FEEDA3944FF2949
:1013B000A0D90BB18EF8006040F2271165E7944682
:1013C0000027F0E707EB41033846A3F80AA0FFF730
:1013D0001BFF09F10109BB785FFA89F18B42F1D853
:1013E00099E74FF00009F6E7500B00204C0B002066
:1013F000F8B54FF6FF730380184B03EB81030546E6
:10140000586CB8B186780379B3FBF6F206FB123359
:10141000DBB219460A1D00EB4202B2F90270548891
:10142000002F09DB0131B1FBF6F206FB1211C9B244
:101430008B42EFD10020F8BDFF29FBD0C4F30E038F
:10144000C4782B8024B94FF4D5711720FFF748FBDF
:101450005380BDE8F84016F0A4BC00BF4C0B002040
:101460001D4B03EB810370B55C6C054644B303046C
:1014700004D54FF4DC711720FFF732FB01462046FC
:1014800016F071FCFF28014604D02046BDE87040EC
:1014900016F087BCA078B5FBF0F300FB1353DBB26A
:1014A00019460A1D04EB4206B6F90260002E09DB5C
:1014B0000131B1FBF0F200FB1211C9B28B42F0D145
:1014C000002070BDFF29FBD08B4204EB42021CBF01
:1014D0000023E3705580D8E74C0B0020094B03EB49
:1014E000810310B55C6C0146204616F03CFCFF28D9
:1014F000014604D02046BDE8104016F052BC002042
:1015000010BD00BF4C0B0020F8B5104B03EB81035E
:1015100007465C6C0146204616F025FCFF28054670
:1015200011D0E688238953EA064606D001462046B4
:1015300016F037FC01463846B04720462946FFF7EB
:1015400063FE0020F8BD0520FCE700BF4C0B002027
:1015500038B50E4B827903EB82030446586C08B908
:10156000052038BD8278E1799142F9D24B1CE371B4
:1015700000EB41035D89B3F90A30002BF3DBA58052
:1015800016F00FFC20600020EBE700BF4C0B0020A2
:1015900070B5044610F003000E4603D04F2118200A
:1015A000FFF79EFAFFF710FE054624B103483146C7
:1015B0000460FFF709FE284670BD00BFD00B002075
:1015C0002DE9F14FDFF870B09DF828A09DF82C9020
:1015D0001E46DBF8003007460D4690461BB96121D8
:1015E0001820FFF77DFA52460921404616F04BFAC3
:1015F0004A4684B20921304616F045FA14FA80F1C1
:10160000DBF8000016F084FB386018B9286001B0E0
:10161000BDE8F08F04442C603868534641460922E7
:1016200016F0EAF928684B460922314601B0BDE8B8
:10163000F04F16F0E1B900BFD00B002070B50E4698
:10164000044616F033FA0546304616F02FFA044BDE
:101650002A1821461868BDE8704016F07DBB00BF0F
:10166000D00B0020014B186816F046BBD00B0020B1
:101670001F2AF8B5044613460ED89200033222F012
:101680000303B3F5803F2DD2184DACB1A00710D0A5
:101690005F210920FFF724FAFF2B4FEA420204D909
:1016A000FF339A42A8BF1A46E8E77C2AB8BF7C22DB
:1016B000E4E729706C602B8122F0030201EB8103C7
:1016C0001204D80001276B68120C0025EEB28E427E
:1016D00000D3F8BD14B126181F705E6010440135A8
:1016E0002833F3E74FF0FF30F3E700BFD40B0020BF
:1016F00038B5144A147853680021C8B2844203D81C
:10170000AB210920FFF7ECF91846013105782833A1
:10171000002DF2D0002181700124128944704468A8
:101720008161C161920800F12001051D21F8022BA1
:10173000994245F8044B1444F8D1002343610370E7
:1017400038BD00BFD40B00200A4B1B89B3F5FF7FC7
:101750004FEA930006D25A089B1A9BB2984238BFB0
:1017600018467047B3F5EE6F01D8FF22F4E740F258
:101770007263F3E7D40B00202DE9F8434B788046E1
:101780000C4602F0040602F0FB07D3B1DFB12E4B8A
:10179000D4F804901D89B7BB01236370AD08A7611D
:1017A000E76104F120034A46211D04F1280023F8D3
:1017B000025B984241F8042B2A44F8D1002363616C
:1017C00001E0002FE3D0FF23A370002E18BF0226F4
:1017D000A3191B7D032B03D1022F1CBF0136F6B2C8
:1017E000A31901221A7506F10C0204EB86060023E8
:1017F00024F812307268A370C8F80020A8F80430EA
:101800004046BDE8F883002114226170A01815F04D
:1018100033FBB5F5FF7F0FD26B08ED1AADB209EBC4
:101820000502C4F804902584A2606384C4F80C9077
:10183000A5842261E384C6E7B5F5EE6F4FF0FF03A0
:10184000EBD940F27265EAE7D40B00202DE9F843AA
:1018500005460C46F7200521914616F014F9061EA0
:1018600022DB1DB914FB06F0BDE8F88315F0030771
:1018700003D098211920FFF733F9DFF83480C8F836
:101880001050A8F81460A5B2BBB29D42EAD9B8F8CE
:1018900014C0D8F810004B4607FB0C000522F721B6
:1018A00016F0AAF80137EFE74FF0FF30DCE700BF92
:1018B000E80B002007B5CDE900230B46034902469B
:1018C000081D16F0C6FB03B05DF804FB000C0020F9
:1018D00013B5064CCDE900230B46024604F108017E
:1018E00004F10C0016F0B5FB02B010BD000C002096
:1018F000134B012200214FF0FF309A60C3F8001211
:10190000C3F80803C3F80015C3F804259A60C3F8A8
:101910000803C3F80015C3F804250A490A4A03F569
:1019200080334FF40040C3F80825C1F88000BFF3AE
:101930004F8FBFF36F8FC1F88001C3F80825704740
:1019400000F0004000E100E00000F63F8C4632234A
:1019500000B50CF8033B054B8E4607CBCEF80300D1
:10196000CCF80410CCF808205DF804FB1C0C002017
:1019700010B5154C10F05CFE0FF00EFF636A608C22
:1019800000219847237E9BB9104B628C93E803009B
:101990000CF048F9E36A18880CF06EF8636B94F861
:1019A000301094F831009847002384F8383010BD87
:1019B00094E8070004F10C0383E80700044904F1EC
:1019C000190018F0F0FDDFE7100C0020380C0020A3
:1019D0004D190000034B93F8383003B97047FFF7F7
:1019E000C7BF00BF100C002008B540F272410620AE
:1019F000FFF776F808B5094B93F83820022A07D18B
:101A0000DA7A42F00102DA72BDE80840FFF7B0BFAF
:101A100040F23F212720FFF763F800BF100C0020A1
:101A200070B5364E96F8283005460BB1012825D002
:101A300001292AD8336C28469847044628B396F8DB
:101A4000303013BB96F8283013B31DBB96F84420F2
:101A5000D106C2F300152DD4F26C316D1278C2F3A9
:101A6000001201B382F00104BBB1738F9A0715D540
:101A7000F36BDC78023C18BF012407E0738F180772
:101A8000D6D5F36BDB78022BD2D10124204670BD72
:101A9000012DDBD00024204670BD738F002BF4D1C4
:101AA000002DF3D0F6E7B6F854100029DAD0002B59
:101AB000F3D0DAE7F16B0A7802F00302032A02D1CD
:101AC000CA78022A18D0B06C16F079F848B9F36BCE
:101AD0001B7803F00303032B06D196F82830054644
:101AE000BAE796F82830B7E70AF0E2F880F0010587
:101AF00096F82830EDB2AFE70025ADE7100C0020D6
:101B000070B5264CE56AE26C95F88C30A265064605
:101B100094F85C000BB10430C0B295F86D100EB9AA
:101B2000FF2831D010F090FA95F88C3033B3206E46
:101B300010F098FE94F82830D5F8E820216EA06DBA
:101B40006267003B18BF012384F87C30D5F8EC3085
:101B5000A3670FF0C5FD46B995F86D30033B012B27
:101B600094BF2820002010F0EBFE95F86C100020A8
:101B700010F04EFF022384F8383070BDA06D10F0D5
:101B800071FE0FF009FEE6E795F86C208A42CDD091
:101B900010F05AFA95F88C30C8E700BF100C0020FE
:101BA0002DE9F0413C4C94F83830E56A012B82B0C5
:101BB0006BD15FFA83F895F87C3006460F4673B117
:101BC000638F002143F00403638785F87C10636A08
:101BD0000420984794F828300BB185F87E80E16B9B
:101BE0000B7803F00303032B30D04B7853B302235D
:101BF00085F8823095F88C30EBB1E36A94F82820B0
:101C000093F86D30003A18BF0122013BDBB284F833
:101C10007C20D5F8E8206267032BD5F8EC20A2677A
:101C200094F85C2036D81D490020CB5C00901C49FC
:101C300001200FF0DDFC06B9E7B902B0BDE8F041C4
:101C4000FFF796BE012385F88230D3E795F88230FE
:101C500063B9638F43F0020363870220636A984786
:101C6000E16B0B7803F00303032BBED1032385F84C
:101C70008230BFE731463046FFF7D2FE0028DCD184
:101C800002B0BDE8F041FFF73BBF40F29241272090
:101C9000FEF726FFFFF7A8FE100C0020F87C0200DC
:101CA000740C002070B5824CE56A94F85C3095F8AD
:101CB0008C2082B000218DF805100AB10433DBB20C
:101CC00095F86C1010B9FF2B00F0B180FF2010F0D8
:101CD000BBF995F88230032B00F2E580DFE803F0D2
:101CE000021C807094F8BA30ADF806307148A5F83F
:101CF0005C3009F0B7FF002840F09F80A06C0DF128
:101D000005020DF1060115F0F9FEE06320B195F82A
:101D1000C730002B00F0A9806748E06395F8832066
:101D20000378D20002F0080203F0F303134395F89E
:101D30008420920002F00402134303F0EF0203F048
:101D40000303032B027002D1C378022B11D0A06CC5
:101D500015F035FF48B9E06B027802F00303032B5E
:101D600007D009F0A5FF002878D1E06B027842F097
:101D70001002027095F88B3013B14378002B41D1DB
:101D800010F070FD0FF008FDE66B0BF001F820B1CC
:101D9000337803F00303032B63D095F86D10012013
:101DA00010F036FEE36B454A18889978A4F8440091
:101DB000012384F8BC30917084F8383002B070BDD3
:101DC0003C4809F04FFF002863D0E06BC3781B2B21
:101DD00014D1012105F1100010F068F9E06B0DE05D
:101DE000B5F85C30A06CADF806300DF105020DF1D0
:101DF000060115F083FEE06300284FD0012384F82C
:101E0000BB308BE7206E10F02DFD94F82830D5F80C
:101E1000E010D5F8E4206167B3FA83F35B09E16B66
:101E2000206E84F87C30A2670FF05AFCACE795F87E
:101E30006D308B427FF44AAF4BE7638FE16B626A90
:101E400043F480734FF4807063879047E06B012107
:101E500085F87D10C3781B2BD0D1BBE7E06B0278EF
:101E600087E7012012F028F897E79DF8053043B185
:101E7000BDF8061018F03EFB0123E06B84F8BB3080
:101E80004CE703808370E06B012118F021FAE06BCE
:101E9000EEE740F2E9212720FEF722FE40F2DF21A3
:101EA0002720FEF71DFE40F2F7212720FEF718FE3F
:101EB000100C00204C0C0020980C0020540C00202A
:101EC0002DE9F04FB84C94F83830E76A87B000221B
:101ED000022B049240F01482638C0D4613F04001F3
:101EE000804606D1636A40209847638C43F04003E4
:101EF0006384B8F1000F5CD097F88C30002B40F071
:101F00005B81D4F858A09AF8013099B2A4F8541023
:101F1000002940F06781002323659AF80060638CF4
:101F200097F88310C6F3800243F4007391426384F0
:101F300000F0F780D4F82C9099F88220FAB1022AA8
:101F400000F0B88194F82830002189F8821023B17C
:101F500099F87E30002B40F0A38199F87D30002B5A
:101F600040F0808199F88330D4F858A0012B0CBF41
:101F70000023012389F883309AF80060638C97F876
:101F80008410C6F3C00243F40063914263844FF0AF
:101F9000000900F0CE8000260AF0FAFE30B39AF86D
:101FA000003003F00303032B20D1012011F084FF44
:101FB0001CE097F88C20002A40F01C8143F48063D9
:101FC000638497F86D3094F8C620033B0132012BEF
:101FD00084F8C62005D90AF0DBFE8146002800F00F
:101FE000D680012011F068FF0026B14697F88B30AB
:101FF00013B394F8283097F87620B3FA83F35B098B
:1020000084F87C3097F86C30013B002ADBB2D7F8BB
:10201000E020626718BF0420D7F8E420A26708BF59
:102020000020032B00F27181604A6149D35C0022D9
:102030000092FB220FF0DCFA45B994F8C61001209B
:10204000FFF7EEFC0546002800F0D88010F01CFDDC
:102050000125002E3BD1B9F1000F09D094F82830AA
:10206000002B40F09680B4F809300133A4F8093011
:10207000B8F1000F4AD0B4F8053000220133A4F8BB
:10208000053084F8C6204B480BF0E4FC049830B1CE
:1020900015F012FEE16A002202720AF0C1FD36B1AB
:1020A000E16A002333720C2230460AF087FD002DCE
:1020B00032D1638C1B0607D4636A29468020984777
:1020C000638C43F08003638407B0BDE8F08FA16D9B
:1020D000236D4E78002B00F01A81B4F85420184676
:1020E000033214F035FF0DF10E0205A9A065D4F8F6
:1020F000C00015F0F7FD059815F0DEFD3146012210
:102100000646D4F8C00015F0A4FDA4E7B4F80730E3
:102110000133A4F80730B6E7FFF72AFC07B0BDE8A3
:10212000F08F97F88410C6F3C0029142C1467FF445
:1021300032AF06F00306032ED4F82CB064D143F47A
:1021400080536384638F012043F00103514663870A
:102150008BF87C00636A9847D4F858A000269BF857
:102160008430013B18BF01238BF884309AF801308A
:10217000002B3FF411AFDBF8E8300133CBF8E83047
:10218000DBF8EC3043F10003CBF8EC3004E7064613
:102190002CE7B4F80530B4F80710B7F880200B43EB
:1021A00013433FF465AF5EE7100C0020F87C02009B
:1021B000740C0020380C00200FF00AFBD4F858A053
:1021C0009AF8013000287FF4A0AE002B65D09AF871
:1021D000002097F88410C2F3C00291427BD099B2DC
:1021E000A4F85410D4F8C00015F00AFDD4F858A093
:1021F000206592E60FF02CFB638CDFE6FFF752FDC3
:10220000002E3FF428AF62E7002EA8D09AF80160B4
:10221000002EA4D043F4805363849BF88C600FF0AD
:102220009FFE042894F8C43006D1002E14BF1B2250
:102230001F22934228BF1346D4F858A09AF80120D1
:102240009A424ED8266D002E3FF4A6AE94F8C530C3
:10225000002B53D0636A0021202098470026D4F831
:1022600058A099E6002689F87D6009F00BFD00284A
:1022700052D0638F43F0080363873146636A0820B6
:102280009847D9F8E0300133C9F8E030D9F8E430A4
:1022900043F10003C9F8E43064E6A4F854303AE6A8
:1022A000638F89F87E1043F0100363871020636A00
:1022B000984752E6A06C04A915F043FC88B3D9F8FE
:1022C000E0300133C9F8E030D9F8E43043F10003DD
:1022D000C9F8E43036E6012384F83130FFF748FBD3
:1022E000F2E694F83030012043F0100384F83030E7
:1022F000002611F0E1FDD4F858A04DE646462EE741
:1023000040F206512720FEF7EBFBFFF76DFB40F292
:1023100083412720FEF7E4FB40F211412720FEF71E
:10232000DFFB40F2FA312720FEF7DAFB70B50D4BE8
:102330000D4C0E4A1A6094F838301BB1DE2127206C
:10234000FEF7CEFB03F0FF0206460D4622760BF0A9
:1023500061FC012104F1880017F0BAFFE6642566EC
:1023600070BD00BF68000020100C0020482800004D
:1023700010B5074A92F8383013B10C24204610BD2E
:1023800003F0FF0414760BF045FC204610BD00BF9F
:10239000100C0020024B012283F8C520704700BFBB
:1023A000100C0020F0B5B84C85B002AD85E80300F4
:1023B00094F838000A9E002840F0AF81002A00F00F
:1023C000AC81002B00F0A981002E00F0A68100F066
:1023D000FF0184F8C51084F8301084F8C61084F822
:1023E000311084F8BC1084F8BB106187618495E8D3
:1023F0000300236404F1280383E80300E56A6262B2
:1024000066630FF0B3FE0FF0C7F995F974000FF093
:10241000A9FFA86A10F00AFA286A0FF0A9FF95F838
:102420009C000FF0AFFF94F8286095F87630002EEE
:1024300000F0B580002B00F009814D200FF076FDF3
:10244000012010F075F8E36A93F8B8317426002B78
:1024500040F0068195F86D203146012010F090F88B
:102460008A4B8B4E186810F0E7F96B69D5F8F410B9
:10247000D5F8F820D5F8F000A364D5F8FC30AF69A2
:10248000C4F8C0700FC6E36AD5F8001193F886202F
:10249000C4F87D10D5F80411C6F80D10A2F126017C
:1024A000012940F28B8093F88710262900F086805E
:1024B000213A012A40F20F81242900F0EF8093F89D
:1024C0006C60032E08BF042605F1340731463846F8
:1024D00018F028F9314617F06EFBB5F8403095F842
:1024E0006D100246934228BF1346384684F8BA302E
:1024F00018F0DEF895F86D1095F88C70B5F8486016
:10250000042908BF032117F056FB0FB9043080B22D
:10251000B04228BF3046C6B284F8C4600AF038FC26
:10252000002840F0858094F8280084F85C6000283A
:102530005FD195F88B30EBB195F86C3095F876104B
:10254000D5F8E0206267013B0029DBB2D5F8E42032
:10255000A2674FF0010118BF0420032B84F87C1000
:1025600000F2E0804B4A0021D35C0091FB224849F5
:102570000FF03EF80120FFF795FB0023C4E900337C
:10258000A3602B6F2988B5F8800095F89C206080A7
:10259000218022710BB101221A6005B0F0BD002B21
:1025A00061D04D200FF0C2FC30460FF0C1FF95F80E
:1025B0006C206E2100200FF0E3FF51E794F82820F3
:1025C000002A3CD193F8FA2193F86C60002A3FF47A
:1025D0007BAFF31E012B40F28B80D31E012B40F208
:1025E0008780012E3FF470AF012A14BF0226012616
:1025F0006AE795F88C30BBB195F86D30D5F8E820D6
:10260000D5F8EC10A167013BDBB20120032B626718
:1026100084F87C0000F286801E49CB5C002100918A
:1026200032461B490EF0E4FF0120FFF769FAA4E7E8
:102630000AF0B4FBB04238BF3046C6B273E793F835
:10264000922293F86C60002AC3D13DE796200FF0E8
:102650006DFCE36A93F8B8319D26002B3FF4FAAE87
:102660000FF072FDF6E696200FF060FC95F86C20F6
:10267000084B094803EB4203998801F5FA71A0FB66
:10268000013189096E3195E7100C002068000020A7
:10269000740C0020F87C0200D34D621094F82820BE
:1026A000002A3FF40CAF93F8262193F8651093F8B5
:1026B0006C6002EA01035A071AD413F0010220D118
:1026C0009B077FF501AFF31EDBB2012B10D9012E62
:1026D00018BF0226F8E62429E0D094F82820002A22
:1026E0003FF4EDAE93F8262193F86C60500701D5C6
:1026F0000426E9E612F0010309D191077FF5E4AE63
:10270000E1E7033E012E8CBF16460426DCE6033EBD
:10271000012E8CBF1E460426D6E640F26D112720FE
:10272000FEF7DEF9FFF760F908B5124B93F8382091
:1027300092B193F8282022B993F83830012B14D1A4
:1027400008BD93F83820022A0AD1DB6AD3F8D001F9
:10275000BDE8084010F0C0B8BDE80840FFF708B970
:1027600040F221212720FEF7BBF940F21D2127204E
:10277000FEF7B6F9100C0020FFF7FAB8014B1876F7
:10278000704700BF100C0020014B93F8BC0070474D
:10279000100C0020034B93F8BB0010B9588CC0F309
:1027A00000307047100C0020024B588CC0F3C02042
:1027B000704700BF100C0020014B93F8C600704713
:1027C000100C00202DE9F0411E4F8207FE6A82B0F6
:1027D000044613D4E3070ED5D6E93A3296F88410AE
:1027E000013342F100020129C6E93A320CBF00234D
:1027F000012386F8843002B0BDE8F0813B6DE3B17F
:10280000B7F854200D46B96D1846033291F801808F
:1028100014F09EFB0DF1020201A9B865D7F8C000C3
:1028200015F060FA019815F047FA01222860414638
:10283000D7F8C00015F00DFACCE740F2834127200D
:10284000FEF74EF9100C0020F5190000C11E000023
:10285000A11B0000D519000008B540F2F231062096
:10286000FEF73EF92DE9F843002800F0E080044629
:10287000072900F2D380DFE801F0AB2424A7D11FA1
:102880009ECD0146204618F005FFD4F8443100F1F2
:10289000E5059D4240F2C680E81A322838BF322052
:1028A000032113F0A3FBC4F844510646204618F058
:1028B000AFFF002E00F09D802046BDE8F84318F0E1
:1028C000A8BF18F028FFD4F81421002305460E46AF
:1028D00084F8403184F84931BAB150EA010314D088
:1028E000CA00C3001B1A42EA507262EB0102D4F81C
:1028F00030115B18D4F8341142EB0102D4E95401D1
:10290000834272EB0103C0F09080022304F5A077AC
:1029100084F84831384612F0BBFD002800F08B8067
:1029200094F8603103F0FF01002B6BD1D4E956021B
:102930006FF000439A4208BFB0F1FF3F13D020462A
:10294000D4E9549818F0A6FED4F85831D4F85C2194
:10295000B3EB090300F1E50062EB08021B1A62F118
:102960000002002A4BDB94F81001394612F082FE77
:1029700000286AD0D4E95401D4E94A32834272EB88
:1029800001071FD255EA06071CD0C01A61EB0201ED
:1029900033462A4614F0B2F905FB01F3D4E94A2183
:1029A00000FB0636A5FB00535519334443EB0103E6
:1029B000C4E94A5306E090F8100112F043FD0023E9
:1029C00084F83831BDE8F883BDE8F84310F070B8FA
:1029D0000CF00CF9D4F84401CB3813F075FA78B345
:1029E000204618F0D5FE00283FF44BAF204618F0E3
:1029F0000FFFD4E95423C4E94C23BDE8F8832046F3
:102A00000CF0FCF894F8100112F01CFD002384F87F
:102A10003831AFE7F4213020FEF762F8F82130209A
:102A2000FEF75EF8C4F84451E0E701236EE7D721D2
:102A30003020FEF755F840F293613020FEF750F851
:102A400040F251213020FEF74BF840F297613020E0
:102A5000FEF746F82DE9F04F04468BB04FF0000921
:102A6000029390F86DB0CDF818900E46904616F08F
:102A700052FD94F8B9310B2B00F20284BF4F37F8A6
:102A8000135094F887302844442B85B215D094F81D
:102A90008620442A11D0A3F10E02B2FA82F2520922
:102AA0000392B8F1000F40F0BF8294F8FC21032A92
:102AB00000F010830123049307E0B8F1000F00F049
:102AC0008E800123CDF810900393B4F848A2B4F897
:102AD0008090A6EB0A0A0FFA8AFAA6EB0909BAF166
:102AE000000F0FFA89F904F50678C0F29382029B71
:102AF000A34A127802F0FF005AB9074694F8FC2165
:102B0000032A00F2D983DFE812F041010101C60176
:102B10007300059311F048F8059B0028EDD0B4F838
:102B2000E821012A40F2208394F8FC21022A00F0D7
:102B30001B8394F81202002840F0168394F8762044
:102B4000002ADAD194F8B9210B2A00F2998337F8D8
:102B5000125094F8FC2105F5C865012AADB240F089
:102B6000598394F88A20032A40F07D83D4F8F40135
:102B7000E76A07442946059310F0DAFF0246384613
:102B8000D4F8F071C4F8F021D21BD4F8F8712946BA
:102B900002FB07F710F0CCFFD4F80022C4F80002C3
:102BA000801A07442946E06910F0C2FF94F87620A5
:102BB000059B02B10230B4F8D421D4F8F8114A448C
:102BC000C943A2EB0A020A44D4F80412C4F804026E
:102BD000401A00FB0277012284F812228EE794F853
:102BE000FC31032B00F07C820123CDE903336CE739
:102BF000E169029801FB0AF2002800F01882B4F89B
:102C0000D451002D40F0138284F81352D4F80402FA
:102C100000FB1A2A94F88620CDF818A0262A00F086
:102C2000A58294F88720262A00F0A082002B3AD0B3
:102C3000CDBBD4E98C23D4F83812D4F83CC28A42F4
:102C400073EB0C0380F02D8394F86D30DA1E012AAB
:102C500040F2D382184610F08DFA4A4DD4F838125B
:102C600000F5234E0EF1A10EA5FB0E3ED4E98C23F8
:102C700094F86D008439A0F1030C8A1A9244BCF1D7
:102C8000010FAAEB9E1A40F2118310F073FA00F2C2
:102C9000E731A5FB0131D4F80402B4F8D451890915
:102CA00051441039069105EB090AABF1030300FB0F
:102CB0000AFADBB20AF1300A012B4FEA4A0A40F263
:102CC0009982584610F056FA2E4B00F52340A13059
:102CD000A3FB00304FEA9019584610F043FA0AF16E
:102CE0007405274B4D442844586094F87630002BE7
:102CF00042D0254AE069514606AB16F0A1FF204BB1
:102D000084F81302069A5868E1692BE1D4F80402AA
:102D1000E269B4F8D431D4F8F81194F86DB0258E86
:102D2000121A99440AFB02F2D4F800320692D4F83F
:102D3000F021303302FB0133C943894400FB0939D8
:102D4000ABF10303012B4FEA490905F1740540F289
:102D5000B681584610F00EFA0A4B00F52340A13018
:102D6000A3FB00304FEA901A584610F0FBF94D448F
:102D7000034B554428445860069A8AE0087D0200B7
:102D8000D80C0020D34D6210DC0C002094F86D109C
:102D900094F8CE0116F037FF8146E06A2946484490
:102DA00010F0C6FE2946C4F80002E06910F0C0FE2B
:102DB00094F87630002B40F0D581C4F8040207A9BE
:102DC00008A80FF069FE079B0093D4E99001DDE9A4
:102DD000082313F075FB94F86D30059305461846EB
:102DE00010F0C8F9059BDFF8E4A2033B00F55F4053
:102DF000012B00F1410094BF28210021AAFB0030E3
:102E000001EB90118031204617F0EFFCD4F84C32E2
:102E1000E26A94F86D000693059210F0ABF94AF25D
:102E2000A13B00EB0B03AAFB0331069B059AD4F8E8
:102E30000002943B13441B1A4B445B1BA3EB9113FE
:102E4000069394F86D30B4F83090DA1E00F1300536
:102E5000012A4FEA450509F1960940F22D811846ED
:102E6000059310F087F98344AAFB0B3A059B4FEAC0
:102E70009A1A184610F076F94D44954B069A554427
:102E800028445860D4F84C32D31AB3F5917FC0F07F
:102E9000FE81E16966E0E36AD4F8F401294618444A
:102EA00010F046FE2946C4F80002E06910F040FE2A
:102EB00094F87630002B40F0538194F86D90C4F86C
:102EC0000402484610F056F9804D00F55F40A9F124
:102ED0000309B9F1010F00F14100A5FB003094BFD7
:102EE0002821002101EB90118031204617F07DFC54
:102EF000B4F8D431002B00F0A280D4F8F431E26AA7
:102F0000D4F8000294F86DA013441B1AAAF103012F
:102F10000693C9B2D4F8F031D4F8F821B4F830905F
:102F200002FB0305303501294FEA450509F1740913
:102F300040F2C880504610F01DF9644B00F5234064
:102F4000A130A3FB00304FEA901B504610F00AF965
:102F50004D445F4B069AE1695D4428445860012363
:102F600084F8FC31D4F804526FF4AD734D1B1D444A
:102F7000D21BD4F84072D4F844320692854228BF5E
:102F80000546BA1843F10003C4F82C320023C4F8F4
:102F9000D051C4F8282284F8183204F1340017F014
:102FA00085FBD4E98A230544C4E99023C4F81C5264
:102FB000A4F848620CF0AEFA20B1D4F81C321E33EB
:102FC000C4F81C32B4F8C011039A8E1B002336B229
:102FD0009E4284F82032C4BF022384F82032002AA3
:102FE00040F0D080029A002A40F0D08094F8FC3162
:102FF000002B40F0EC8094F81402414612F03AFBAA
:10300000002800F03F81049B84F8103200200BB0B0
:10301000BDE8F08FD4E98C01002384F81332C4E9B1
:103020009001CA46012363E5CDF810904DE594F870
:103030001302002800F0DB80254B586892E7029BC2
:10304000002B3FF45AAFD4F8F431E26A94F86D00E3
:1030500003EB020B10F08EF800F52340A130A5FB26
:1030600000304FEA9019D4F80002D4F8382294F8CE
:103070006DA0ABF1940BABEB000B9344AAF10301F1
:10308000D4E98C23C9B20129ABEB020B40F2BE801C
:10309000504610F06FF894F86DA000F2E732A5FBEF
:1030A0000235AAF10301D4F80002AD09C9B2ABEBB5
:1030B00009022A4406922DE74FF0650AD9E64FF03F
:1030C000650A51E64FF0650B3FE700BFD34D621034
:1030D000D80C00200E2B18BFCDF80C807FF4EAAC82
:1030E000B4F89032B3427FF47FADB4F8D421B4F891
:1030F0004A321344C4F8F831D4F80432C4F8F03139
:10310000E369C4F8F43120460CF0B0FFD4F89822FB
:1031100094F8A43241F64B5842458CBF4FF000085A
:103120004FF00108002B40F08C80E3699A4204D0F4
:10313000208818F045FED4F89832E361D4F8943230
:10314000E362B4F892322386D4F89C32636202239D
:1031500084F8FC310123CDE9033384F87680B4E4AC
:103160000230AAE6023028E60027C7E4B4F890222D
:10317000B21A12043FF55AAD94F89322002A18BFF0
:10318000934653E5029A002A3FF435AFB4F8E8219C
:10319000D2B1B4F8EA0194F8EC1100FB01118A42B3
:1031A00000F101007FF727AF002B3FF424AF00238D
:1031B00084F82032A4F8EA0109F0F6FD00F00700D7
:1031C000013084F8EC0116E7A4F8EA2113E7E1697D
:1031D000D4F804324046C91A16F0BCFC80B200286C
:1031E0003FF409AF149B9BB1188001200FE7B4F89E
:1031F000D4510BE54FF065096EE5D4E98C23A1F1BC
:10320000E90CACEB020C3C21E24449E53C254EE7DD
:103210000120FCE6E0690593294610F089FC94F84A
:103220007620059B02B10230B4F8D471D4F80422A0
:10323000C4F804024F44A7EB0A07801A00FB07F703
:10324000C9E4208818F0B9FD30B3B4F8A032638621
:10325000B4F8A2328381B4F8903243814FF0000871
:10326000D4F8983269E794F86D1094F8CE01E76AC3
:10327000059316F0C8FC059B0744D4F8F40179E4E3
:10328000FFF7EAFA40F282513020FDF729FC40F2C4
:10329000CD413020FDF724FC40F22D713020FDF7A8
:1032A0001FFC40F221513020FDF71AFCB4F8D45134
:1032B000D4F804023C21F3E440F239513020FDF708
:1032C0000FFC00BFF0B585B0002800F01081044667
:1032D000072900F2F380DFE811F0950008000800EC
:1032E0007E00F10083008B00ED0018F023FED4E98E
:1032F0008C23801A61EB0301012871F10003C0F2F5
:10330000FF806FF00102002382428B41C0F20181F5
:10331000E3690BB1B0FBF3F394F88720442A00F083
:103320009B800E2A94F8861000F09680433901297C
:1033300040F29280B4F88010B4F80E220B449BB295
:10334000D11A090400F1C880531C9BB2A4F80E32B4
:1033500094F81132B4F80E12002B00F0B380B4F8D8
:10336000BA00B4F880306D4FB4F84A220344B4F880
:10337000B800013B1B1A9EB23B680132A4F84A22F6
:1033800002AD53B1013989B2002220469847B4F802
:103390000E12014489B2A4F80E12731A1B0462D4EF
:1033A000002300951A462046FFF754FB40B301283E
:1033B00040F0A180B4F80E12B4F8C031CA1A10045B
:1033C0006ED4BDF80830194489B23B68A4F80E12D7
:1033D000002BD7D1E1E705B0BDE8F0400FF068BBA6
:1033E000012010F069FD05B0BDE8F040FFF7C4B959
:1033F00090F8FC31042B40F08880002380F8FC31E9
:1034000005B0F0BD90F81032D3B1B0F80E22B0F88C
:1034100080309A4263D0D31AA0F8C631A0F8802039
:10342000D4E98A232046C4E98C230CF011FD94F8DA
:10343000CB31002BE4D005B0BDE8F04018F067BBFD
:10344000B0F80C32B0F88010B0F80C22A0F8802050
:103450005B1AA0F8C631E3E7B4F80E12013189B265
:10346000A4F80E127BE794F88A200394002A0CBF7C
:103470003E220822012384F8A92028468DF808302E
:103480000AF078F8204618F044FB002384F8FC3159
:1034900094F8140211F0D6FF202384F81432AFE719
:1034A000BDF80820114489B2721A12F4004F18BFF7
:1034B00019468AE7CB213020FDF712FBCF213020BF
:1034C000FDF70EFBB4F8C4318B427FF448AF0131F5
:1034D00089B2A4F80E1242E701339BB236E7B0F886
:1034E000C431A0F880309B1AA0F8C63198E7A62115
:1034F0003020FDF7F5FA40F265613020FDF7F0FA73
:1035000040F20D613020FDF7EBFAC5213020FDF7C8
:10351000E7FA40F20E613020FDF7E2FA6C0000207D
:103520002DE9F043D0F814310026D0E9548983B056
:1035300080F8186105460F4683F8CE2180F838617F
:103540000121D0F8140108F0DBFFD5F81441C4E9DB
:103550008C8995F8103184F81432C4E99089C4F844
:103560004C7284F8FC61A4F84862334600963246F7
:1035700031462046FFF76EFAD0B9012384F8FC31BA
:10358000C4F8F801C4F8F001A4F80E02A4F80C0283
:1035900084F81102B4F88030A4F84A02013BA4F880
:1035A00080300FF0EDF803B0BDE8F04311F0BABD84
:1035B00040F2F3113020FDF793FA00BFD0F8140168
:1035C000704700BF2DE9F04385B000230322CDE909
:1035D0000033FF268DF806206846FDF7B9FF044644
:1035E00020BB009D95F83831002BF5D085F860613F
:1035F0000121284618F00FF995F83831002BEBD04F
:1036000095F8100112F098FA95F8100112F016FED4
:1036100095F8100111F016FF00283CD085F83841CC
:103620006846FDF795FF04460028DAD0DFF87C8075
:10363000012388F80830002502264FF6FF771AE0AC
:10364000029BE3B193F81422202A18D01888B842BC
:103650001BD00221FDF742FF814608B390F8140207
:1036600012F0ECFD99F8140289F8FC4111F0EAFE21
:10367000202389F81432CDE902558DF80E6002A896
:10368000FDF766FF04460028DAD0002388F80830EA
:1036900005B0BDE8F08340F2DF113020FDF720FADD
:1036A00040F22B113020FDF71BFA00BFD80C002090
:1036B000054B0022012142F210705A725881197094
:1036C0001A72FFF77FBF00BFD80C00202DE9F84326
:1036D00090F83831002B77D1044688460146564889
:1036E000154603F0FF0711F079FE202806466BD03F
:1036F0005822394604F5887013F0BEFB84F8106137
:10370000C4F81481FF2384F83831B8F1000F06D0D3
:1037100009F062FB00F00700013088F8EC01022399
:103720004FF00008A4F8483184F8408110F052FAB4
:1037300000F19E062046B6B218F02AF8002847D0BD
:1037400015F0E9FE00F5CD6189B2284610F0F0F9D8
:103750002844C4F8440118F0EDFB301841F1000191
:103760004FF00109C4F85001A4F82680C4F85411A0
:1037700084F81891204618F021F8002846D04946D0
:10378000204617F087FF6FF49C631D442D1AC4F880
:103790001C514FF0FF326FF00043C4E9562394F8F8
:1037A000100104F5A07111F065FF00283FD0D4E9A5
:1037B00054232046C4E94A23C4E94C23002118F0CD
:1037C0002AF83846BDE8F8830C273846BDE8F88368
:1037D0000146204617F05EFFDFF86080E530C4F850
:1037E0004401B8F80A0008B1E08CB8B9064418F0F2
:1037F000A1FB361841F10001C4E95461002DC8D085
:10380000AE1941F10001C4E95661C8E7484618F015
:10381000A7F8E53D2D1AC4F81C51BAE709F0DCFA07
:10382000B8F80A30B0FBF3F202FB1300DEE740F217
:10383000C1113020FDF754F965280000D80C002094
:1038400090F838310BB90020704710B50446FF23BB
:1038500080F86031012117F0DEFF94F838310BB9A0
:10386000002010BD94F8100112F066F994F81001D0
:1038700012F0E4FC94F8100111F0E4FD20B10023F3
:1038800084F83831002010BD40F2DF113020FDF700
:1038900027F900BF014B5872704700BFD80C0020B9
:1038A00090F8602182B910B502F0FF0490F8182159
:1038B00012B90122104610BDD0E947319942F9D919
:1038C0000BF09CF92246F5E700221046704700BF36
:1038D00010B504460EF06AFB064BDA68824206D346
:1038E00094F876201AB9187A80F0010010BD0020F3
:1038F00010BD00BFD80C002008B540F2FF1116F033
:103900007CFFB0F5296F28BF4FF4296080B208BD55
:1039100090F8CB31002B75D1F0B503F0FF0590F88E
:10392000FC31032B85B0044601D005B0F0BD18F082
:1039300001FBD4E98C23801A61EB0301012871F1AA
:103940000003F2DB6FF00103834275EB01035CDBE4
:10395000E369B4F88020002B55D0B0FBF3F080B2BF
:10396000531C184480B2A4F80C02B4F80C22B4F82A
:10397000C4319B1A1BB2002BD7DD94F8140212F04D
:10398000DBF80028D1D0FF2384F81132B4F880503E
:10399000B4F8BA20B4F8B830214F1544013DED1AFF
:1039A0003B68ADB20DF10E066BB1B4F80C120139E3
:1039B00089B2002220469847B4F80C3210FA83F3FB
:1039C0009BB2A4F80C32B4F80C32EB1A1B04ACD442
:1039D000B4F80C12009689B2002301222046FFF7AA
:1039E00039F80028A1D0012814D1B4F80C32BDF860
:1039F0000E2012FA83F39BB2A4F80C323B68002B22
:103A0000D3D1E0E770471846AAE740F2B65130201C
:103A1000FDF766F840F2FD513020FDF761F800BF78
:103A20006C0000202DE9F043044683B0062900F223
:103A3000FE80DFE801F0042512222B327600D0E967
:103A40008C23D0E98E0182428B41C0F093807A4B67
:103A50001B7A03F0FF02002B7DD0042384F8FC3195
:103A60000EF08EFE11F05EFBB4F88020A4F80E225A
:103A70000023A4F84A3284F8113203B0BDE8F08381
:103A8000032380F8FC3103B0BDE8F0830EF0BCFAEC
:103A9000C4E98E0103B0BDE8F08390F86D30DFF823
:103AA0009891C569D0F80422033B40F26D1840F2AA
:103AB0004511012B88BF884699F8093095428CBF83
:103AC000AD1A00251BB9436B9D4228BF1D4604F16A
:103AD0003400D4F8D07116F0E9FD0744022012F04A
:103AE00031FAED1B25EAE575854228BF054602211E
:103AF000284612F07BFA00B92F4442463946204648
:103B000016F061FEE269D4F8D031C9F80C00D01883
:103B100012F0DAF90028B0D140F279313020FCF708
:103B2000DFFF90F86D5028460FF024FB033D43491A
:103B300000F55F40012D00F14100A1FB003094BF72
:103B40002821002101EB90118031204603B0BDE80F
:103B5000F04316F04ABEB4F8C41100920123204687
:103B6000FEF778FF00283FF47BAF40F2CB613020B6
:103B7000FCF7B6FF94F81232002B3FF468AF94F8CC
:103B8000FC31032B7FF463AF94F86D8015F0C3FC18
:103B900094F8B9310B2B48D8294AD4F8386232F856
:103BA0001330D4F8D091C51803F5C8639FB2D4E997
:103BB0008C234046B61A0FF0D5FAA8F10302012A69
:103BC000ADB2A9EB00092ED940460FF0D3FA1B4B3A
:103BD00000F52342A132A3FB02239B09A9EB0303B7
:103BE000A3F174025208D43B9D3205FB03F3B3FBEF
:103BF000F7F36033A2EB53018E424FEA530302D333
:103C000013449E4201D90FF0D5FFE06929460FF019
:103C10008FFF94F8763003B102300023C4F8040219
:103C200084F8123213E76523D8E7FEF715FE40F259
:103C30007D713020FCF754FFD80C0020D34D62106A
:103C4000087D0200012A70B5064609D0022A1446F2
:103C50000D461ED04AB140F2A7713020FCF740FF5C
:103C60000EF0A4F9C6F84C0270BD0EF09FF9224682
:103C700001462846FFF754FC0F4995F810013246DB
:103C800010F00AF90028EFD14FF4F2613020FCF770
:103C900027FFD0F84C1201222846FFF741FC0649C5
:103CA00095F81001324610F0F7F80028DCD140F208
:103CB000A1713020FCF714FFC5320000F8B50446AE
:103CC00051B101295BD1002380F818310EF058FD65
:103CD000BDE8F84011F026BAC58C002D47D120462A
:103CE000D4E94A7617F017FD401941F10001C019D7
:103CF00046EB010100220223C4E95401C4E94A0150
:103D000084F84021A4F8483194F8603103F0FF01B1
:103D1000002BDBD1D4E956026FF000439A4208BF72
:103D2000B0F1FF3F0CD194F8100104F5A07111F02F
:103D3000A1FC0028CAD140F2EA613020FCF7D0FE95
:103D40002046D4E9545617F0A5FCD4F85831D4F8DD
:103D50005C215B1B00F1E50062EB06021B1A62F1BD
:103D60000002002ADFDA20460AF048FFAEE709F039
:103D70001BF8E58CB0FBF5F303FB1505AFE740F24C
:103D8000B7713020FCF7ACFE90F83801003818BF4E
:103D900001207047014B5881704700BFD80C0020AC
:103DA0000B46062203F8032BB0F809C0C27AA1F82B
:103DB00003C09A70704700BF08B540F2BE213220A0
:103DC000FCF78EFE10B582B090F8DE3073B903F0C8
:103DD000FF02ADF804209DF804209DF80530002076
:103DE00062F3070063F30F2002B010BD0C463638B3
:103DF00004F030F9182204232270ADF80430EAE709
:103E000070B5002860D0437A0D460446002B3AD0A6
:103E100040890021FDF762FB0646002859D0008842
:103E200007F0E0FE30880021FDF76EFB002855D139
:103E300094F8546094F8A6302BB194F8A7301E4340
:103E4000002384F8A630204604F004F9B3072BD1F0
:103E50002B46132203F8032B04F1090229341668B8
:103E600050689168D2F80CC0C3F80CC01032A2425E
:103E70001E605860996003F11003F0D11178197039
:103E80000022AA7170BD036DD0F80E20C3F8032084
:103E9000428AA3F80720427B036D12F0FD0F14BF86
:103EA000012200229A70C3E7002226F0040684F85B
:103EB00054601146204604F053FF0028C8D140F258
:103EC00027313220FCF70CFE40F207313220FCF79C
:103ED00007FE40F213313220FCF702FE40F21731A8
:103EE0003220FCF7FDFD00BF044B1B680022A3F845
:103EF000212183F8232183F870207047E80C0020EB
:103F000008B508F0C9FB034B18700EF091FB0320B5
:103F100008BD00BF1000002008B508F0BDFB024B33
:103F200002461A70012008BD100000202DE9F04162
:103F3000064615461C46A1B1B3681BB12DB12846F3
:103F4000BDE8F0810120BDE8F081002CF7D01749D1
:103F5000B27C0968BDE8F04191F84100423115F0AA
:103F60006FBD124F396891F85A2091F87E0001F127
:103F70005B03783115F064FD7B683A685B79082B48
:103F800003D092F84E1099420DD0002192F856308D
:103F9000012BD1D023B90028CED10029CCD1D2E732
:103FA0000020BDE8F0810121F0E700BFE80C00200F
:103FB00038B5114C20686C3003F050FA656803F096
:103FC000FDF963682860186858B103F025FA68B1F4
:103FD0000EF048FC00200EF0B3FC636804221A7156
:103FE00038BD40F2F2413220FCF77AFD40F2F44154
:103FF0003220FCF775FD00BFE80C002008B508F082
:104000004BFB0449044B024648681A7003F098FAC7
:10401000012008BDE80C002010000020F0B5524C33
:10402000236800221F6D5A72FA690E463988598139
:10403000054641F27071A2F57A70884283B040F271
:1040400086804A49A1FB0212C2F38F221A84BA8CDD
:104050005A84FA8C9A844FF47F42DA844FF6FF72C6
:104060001A85002D69D00121304616F036F83278D5
:10407000D209236893F8481009B1002A3DD1207B6A
:10408000002108285961198343D003F10E0203F17E
:104090000D0108F09FF8002861D023685A7B42F098
:1040A00002025A7303F11A07002D40D103F1780080
:1040B00002683A608288BA8093F95810186D08F047
:1040C000CFFA20682A4916F065FA236829491A6D43
:1040D0001088A3F8330092F88E2083F8352003F17E
:1040E0002A0016F060FA2068022104F0E9FF206837
:1040F0006C3003F0B3F903B0F0BD427902F0C002B6
:10410000402ABCD102685A618288207B1A83082821
:10411000BBD193F87E00996F5873C3F80E10B3F8B3
:104120007C0058820021C3F81A10D983C4E700210B
:10413000304615F0D2FF2368BAE7A068694615F04B
:104140007FFEA3681A786846C2F3801291E70A4995
:10415000A1FB0212920902F5506292B276E741F297
:10416000E1313220FCF7BCFCE80C00205917B7D134
:10417000013E0000A13D0000D34D621008B54FF490
:1041800066713220FCF7ACFC10B504788CB004F0FA
:104190000F04224602A903F06FFC08F07DFA234ABF
:1041A000042C107002D003200CB010BD204C0399D9
:1041B000236891F800E093F878C0E645F3D191F8D0
:1041C00001E093F879C0E645EDD191F802E093F86B
:1041D0007AC0E645E7D191F803E093F87BC0E64565
:1041E000E1D191F804E093F87CC0E645DBD191F889
:1041F00005C093F87D108C45D5D193F87E309DF89D
:1042000019109942CFD17F280DD000904FF07F0C2C
:10421000606882F800C0237C227B02A903F098FB2F
:1042200003200CB010BDFFF7A9FF00BF1000002055
:10423000E80C00202DE9F04F044687B006290BD882
:10424000DFE801F0B030100A0A0A0400AC4D6868DB
:104250008379002B40F0BD800EF0EAF9032007B00F
:10426000BDE8F08F0EF0E4F9A54A136893F85410F6
:104270008F07F3D0506881790029EFD0A14D95F9CF
:1042800000107F2900F0E6810291127B0192214605
:10429000FF227F240092423302222C7003F0B0FAF6
:1042A0000320DCE7964DA27C2968686891F84830C5
:1042B00090F806A090F80790012A83F0010B00F017
:1042C000B480002691F8542012F0040300F0B78067
:1042D00091F84D70002F00F0B28091F84E70082FC9
:1042E00040F0AF8091F841704FF0000838467BB342
:1042F000626891F85BC092F800E0E64500F0458105
:10430000002305936A685279082A06D0059B91F824
:104310004EC0944508BF01230593B8F1000F40F04B
:10432000ED80BBF1000F40F02A814046B9F1000F4B
:1043300009D02B6893F85630012B02D01BB9059B8E
:104340000BB1002843D10EF073F92B6893F8542079
:10435000930783D00EF06CF9BAF1000F3FF47EAFF3
:104360002968A36891F84100A27C423115F068FBEE
:1043700018B9B8F1000F00F04581624E96F900308F
:104380007F2B00F0678102932B7BCDE90073D5E989
:10439000003021467F2401224233347003F030FA8A
:1043A00003205CE7564D2B68686893F85420570744
:1043B00034D5C279002A57D0626893F85B1016781A
:1043C0008E4200F0B78093F85620012A1CD10A20B3
:1043D00045E72B6893F85420960773D5494A92F91C
:1043E00000107F2900F03681029121462C7B019438
:1043F000FF2400947F2442331470062203F000FA55
:1044000000232B7409202AE793F84E30082B02D0A2
:1044100042799A42DBD00EF00BF9686883793BBB96
:10442000C379002B7FF41AAF16E7A268567906F01D
:10443000C006A6F14006B6FA86F6760942E7477945
:104440004DE7384607F0D4FD002818BF8346002EFC
:1044500040F0C680296891F8417091F85420B04628
:10446000384602F0040342E78379002B3FF4F4AEB0
:104470002B6893F85420960746D4D0077FF5EEAE0C
:10448000510700F1E0801F4B93F900207F2A00F0D4
:10449000E18002922A7B0192FF2200927F20187015
:1044A0002B68686821464233002203F0A9F90320F3
:1044B0006B68DA79002A7FF4D2AE9B79002B7FF407
:1044C000CEAEC9E6D1077FF5C7AE530700F1B8807D
:1044D0000C4B93F900207F2A00F0BC8002922A7BCB
:1044E0000192FF2200927F201870D5E9003021460A
:1044F0004233062203F084F90320B0E6012015E7D9
:10450000E80C002010000020534A92F900107F2987
:1045100000F0A080029121462C7B0194FF2400949E
:104520007F2442331470002203F06AF901232B74B4
:104530000920BDE7567893F85C108E427FF443AFB4
:10454000967893F85D108E427FF43DAFD67893F85D
:104550005E108E427FF437AF167993F85F108E426B
:104560007FF431AF517993F8602091427FF42BAF03
:10457000617C93F85A2091427FF425AF27E7A36826
:10458000A27C423115F05CFAD0E692F801E091F895
:104590005CC0E6457FF4B4AE92F802E091F85DC0ED
:1045A000E6457FF4ADAE92F803E091F85EC0E645D3
:1045B0007FF4A6AE92F804E091F85FC0E6457FF480
:1045C0009FAE92F805C091F8602094457FF498AEB4
:1045D000637C91F85A209A1A53425341059391E60D
:1045E000A168384607F0E6FE2968804691F8542015
:1045F00091F84100B8F1000F28D040F0020702F016
:10460000040374E62B6893F85520023A012A3FF61A
:1046100025AE002E3FF422AE0F4E96F900207F2AE1
:1046200018D002922A7B686801922146FE227F24DC
:10463000009242330122347003F0E2F803200EE6C8
:104640000DF0F6FF44E70DF0F3FF1CE7074602F01C
:1046500004034CE6FFF792FD1000002010B50E4A4F
:104660005368197902290DD9197908290FD81B79AE
:10467000526903F180439268033BBDE8104052F851
:104680002330184741F28A413220FCF729FA41F2DF
:104690008B413220FCF724FAE80C002038B5194D84
:1046A0006B681B79022B28D82B68027C83F8A42026
:1046B000C16899661A44044692F8242183F820219F
:1046C0004268C3F88820037A022B0ED00DF04EFD0D
:1046D0000EF084F90CF002FF0B480EF0ADF80B4819
:1046E0000EF0A4F80A480DF043FE637C23B12B685A
:1046F0005B6E0BB101221A6038BD40F6D801322042
:10470000FCF7EEF9E80C0020880100205555550013
:10471000D6BE898E70B53B4C63681A79032A06466B
:1047200031D01A79042A2ED0226892F854209207A8
:104730002ED1A568002D42D0236893F85430002B69
:1047400042D03EB1284615F08CFD30BB284615F00E
:10475000A3FD10BB63681A79022A3FD91A79082A87
:1047600041D81B79626903F180435269033B52F8D7
:10477000233098470C282CD86369DB68BDE870406B
:1047800053F820301847186802F046FE0546D1E776
:10479000186802F043FE0546CCE763681A79022ADE
:1047A00026D91A79082A28D81B79626903F180432F
:1047B0001269033B284652F823309847DAE741F262
:1047C00092313220FCF78CF941F298313220FCF71B
:1047D00087F941F2AB313220FCF782F941F27831AE
:1047E0003220FCF77DF941F279313220FCF778F97B
:1047F00041F218313220FCF773F941F219313220BD
:10480000FCF76EF9E80C00202DE9F0471A4B93F9FC
:104810000090B9F17F0F84B02CD0184C67687F22CC
:104820001A703B79032B80460E461AD03B79062B33
:104830000CBF4FF0030A4FF0010A236803F1420551
:104840000DF08EFB2B46257B0090CDE9029A324677
:1048500041463846019502F0C3FE28B904B0BDE8D0
:10486000F0874FF0000AE8E7606804B0BDE8F04761
:1048700002F026BEFFF782FC10000020E80C0020AA
:1048800038B505460C4607F043F8420704D4A37830
:1048900003F0E003402B0DD007F03AF8830704D46F
:1048A000A37803F0E003202B04D0237803F03F0328
:1048B000242B01D9002038BD0DF058FB94F90030AD
:1048C00094F802C06278002B0CF01F03ACBF1E21CD
:1048D0004FF4967142EA032301FB03F31A1AB2F56F
:1048E000877FE7D39842E5D8054A23881068A0F867
:1048F000213180F823C12946BDE8384003F030BC9F
:10490000E80C00202DE9F047344E7568AB7984B08F
:104910006BB3D6F800A09AF895300446894633B9AF
:104920000378002B0CBF012302238AF895302879E5
:104930000628C3B23ED0072B14BF4FF001084FF03A
:104940000208274890F900707F2F45D07F2303701D
:104950000DF006FB317B00900191CDE902780AF160
:1049600042034A462846214602F03AFE20B9002575
:10497000284604B0BDE8F087657815F010051CD016
:10498000A1690220FFF77CFF0546E8B132680023E9
:1049900082F896306369DBB15978C1F3031182F86C
:1049A000971059781B7801F00F0143EA0123A2F810
:1049B0009830DDE74FF00308C3E7706802F080FD30
:1049C000284604B0BDE8F087706802F0B9FDCFE773
:1049D000FF2382F89730CBE7FFF7D0FBE80C0020ED
:1049E0001000002010B504468AB007F055FE237869
:1049F000184A03F00F03072B107002D001200AB0F1
:104A000010BD6946204603F0D1F8684603F0BAF9B4
:104A10009DF80030002BF1D19DF80130DB07EDD57A
:104A20000D4C019923689DF8110093F87E2078338E
:104A300015F006F80028E1D020680121A03014F01C
:104A400039FDFF216846FFF75DFF0028D6D0022020
:104A5000D5E700BF10000020E80C00202DE9F0434E
:104A600004468BB007F018FE2378424A03F00F0388
:104A7000082B107004D0012528460BB0BDE8F08348
:104A80006946204603F02AF89DF80050002DF2D127
:104A90009DF8013003F00303032BECD1364F3E6841
:104AA00096F84D306BB396F84E807B7B6BBB96F8D7
:104AB0007E2001999DF8110006F1780314F0C0FFE3
:104AC0000028D8D096F848203E6896F841904236A3
:104AD000002A3ED19DF812000299012827D03346C2
:104AE0004A4614F0ADFF0028C5D038680121A03037
:104AF00014F0E0FC7B7BABBB21460120FFF78EFA74
:104B0000BAE77B6893F80580CFE714F0DDFF08284B
:104B10008146CCD0387396F87E2001999DF811001B
:104B200006F1780314F08CFFC145CBD0C8E74B7970
:104B300003F0C003402BD2D133464A4614F080FF25
:104B40000028D2D10299404607F034FC0028CCD18D
:104B500091E7404607F068FC00281CBF06464FF06E
:104B60000109B7E70DF03AFF0CF0B8FC00237B73A6
:104B7000C2E700BF10000020E80C00202DE9F04F34
:104B8000DFF8E8A0847C9346DAF8002092F84870B9
:104B9000012C83B006468946984687F0010738D035
:104BA00000249AF80D502346E5B192F854104907B5
:104BB00021D47268A2B3DAF804205579082D22D0E6
:104BC0002846019307F014FA019B002818BF0746F6
:104BD000EBB19AF80F307BB314F080FF0023054649
:104BE0008AF80F308BF8005089F8004088F8007080
:104BF00003B0BDE8F08F92F84D100029D9D092F89B
:104C00004E50082DDCD113B19AF80E10D1B1002509
:104C1000E8E783685B7903F0C003402BC0D1C0E7AD
:104C2000DAF804200193106802F008FF019B0028C5
:104C3000C1D1002BEBD0E7E72846B16807F0BAFBFB
:104C40000546CFE7B068019107F0DCFA05468AF81F
:104C50000D000028C6D014F037FF0828019903D0B2
:104C6000DAF804305871BDE70D46BBE7E80C0020C8
:104C700008B5054B586802F023FC07F00DFD034B07
:104C800002461A70012008BDE80C00201000002028
:104C90002DE9F041684CA368D4F800800022054655
:104CA0001A8018460F460DF0DDFD032D38D0052D76
:104CB0004BD0A06808F1780115F0C9F898F87E107B
:104CC000A06815F0D8F8236893F8482093F841704D
:104CD00003F142065AB193F85420520719D463687D
:104CE000587907F0A1FB00281CBF06460127A068E1
:104CF000314615F09EF8A068394615F0AFF84F4BD5
:104D0000D3F80431002B40F09280052D12D0BDE87D
:104D1000F08193F84D20002AE1D093F84E00E0E7AF
:104D2000A068037823F00F0343F0030303700C2300
:104D30004370BFE7236831681A6DC2F80A10B18862
:104D4000D1811B6D5F72BDE8F081A6682068317863
:104D500021F02F0141EA471141F005012223317072
:104D60007370036D1B6AC6F80F30026D936AF3749B
:104D7000190A1B0C3175737592F87630118E002B61
:104D800042D12F4FA7FB0131D36AA7FB0373890AD6
:104D9000C3F38F23F3751B0AB1753376D36941F2E0
:104DA0007071A3F57A778F4239D92549A1FB031396
:104DB000C3F38F2373761B0AB376938CF3761B0AA7
:104DC0003377D38C73771B0AB377D2F88F30C6F85A
:104DD0001F3092F8933086F82330036D96F8242024
:104DE00093F89A3022F01F0203F01F03134386F852
:104DF000243006F0B3FD96F8243003F01F0343EA95
:104E0000401386F8243054E70E4FA7FB0131D36AD4
:104E1000A7FB0373C1F34711C3F34F13BAE70A4962
:104E2000A1FB03139B0903F550639BB2C2E74FF448
:104E3000C6613220FBF754FEE80C00200010004051
:104E40005917B7D11F85EB51D34D621038B5154CAA
:104E5000236893F854309B0718D1A568E5B12368FF
:104E6000FF2093F820110DF0EFF828460DF0FAFC22
:104E7000236893F82031033B012B94BF28200020A6
:104E80000DF05EFD636807221A7138BD636818680B
:104E900002F0C4FA0546E1E740F219513220FBF76F
:104EA0001FFE00BFE80C002038B51E4C23680E2002
:104EB00093F820110DF0C8F8236893F854309B073D
:104EC00024D1A56845B328460DF0CCFC236893F89F
:104ED0002031033B012B94BF282000200DF030FD32
:104EE0002368681D93F8205107F0BAF9607348B140
:104EF000033D012D94BF552550250CF0D1FA2846CD
:104F00000DF060FD636808221A7138BD6368186887
:104F100002F084FA0546D5E740F206513220FBF74D
:104F2000DFFD00BFE80C002070B50D4DD5E9000392
:104F300002221A7103F03CFF00B170BD2E680446D6
:104F400006F16C0002F0FCFAA6F8214186F8234134
:104F500086F870402868BDE8704004F087B800BF4C
:104F6000E80C002010B50A4C07F096FB094A637B59
:104F700010701BB90DF05CFB032010BD0DF02EFD71
:104F80000CF0ACFA002363730DF052FB032010BD4C
:104F9000E80C00201000002070B52D4C236893F819
:104FA000232105465F2A93F821019CBF5109294A14
:104FB00000F03F0094BF565C00260DF0E3F9236833
:104FC00093F958000DF0CEF9EDB123683246996E91
:104FD00001200DF0D5FA236893F89630022B0CBF10
:104FE0004020FF2031460DF02FF8236893F854201D
:104FF00092070ED193F89530A568A3B12846BDE875
:1050000070400DF02FBC3246732101200DF0B8FA2C
:10501000E1E76368186802F001FA236893F89530B5
:105020000546002BEAD1681D07F01AF960730028C5
:10503000E4D0033E012E94BF552450240CF030FAE6
:1050400020460DF0BFFC2846BDE870400DF00ABCBC
:10505000E80C0020207D0200F0B52E4C236893F868
:1050600023215F2A9EBF51092B4A575C9A6E83B059
:10507000064688BF0027002A40D1D3F888000DF0EB
:105080002BFC256895F854309A0703D595F896209F
:10509000022A2AD05B0724D463681868CEB902F0CC
:1050A000CDFC63680646186802F0CEFC024605F1A6
:1050B0009A00256895F8963095F82051009531466C
:1050C00002F008FE2268002382F82071A37303B067
:1050D000F0BD02F0C5FC014605F19A0002F0F0FDBA
:1050E000F0E795F89630012BD6D1FB1E012B0AD99B
:1050F000394600200DF08CFC2568CDE70120FFF734
:105100004BFF2368B9E795F85930012B14BF394696
:105110000321EEE7E80C0020207D020010B50B4CC7
:10512000637B63B9A1680020FEF778FF2368002243
:10513000A3F8212183F8232183F8702010BD0DF0FE
:105140004DFC0CF0CBF900236373EBE7E80C002077
:1051500010B50F4C637B9BB9D4E9003000224FF0AF
:10516000010C80F804C003F16C00A3F8212183F83E
:10517000232102F073F92068BDE8104003F076BFE8
:105180000DF02CFC0CF0AAF900236373E4E700BFD8
:10519000E80C00202DE9F04F0729044687B040684D
:1051A0000D46904648D100287CD0637C012B00F04E
:1051B000BE80AC4E73685879082857D004AA0DF108
:1051C0000F0107F007F8002800F056819DF80F0046
:1051D00004A915F0BFFF8146316891F854309F074C
:1051E00040F0B28077684FF0000A87F806A091F887
:1051F000543013F0040376D1FB719B4B1B6823B131
:1052000041462046984738727768636843B13268F0
:10521000617C82F87E10196891679B88A2F87C30C7
:105220003B7A002B00F02D810123A06808B1072DE7
:105230002ED007B0BDE8F08F002800F09280637C8C
:10524000012BB6D1437903F0C003402BB1D1854E79
:10525000737B002B75D0776814F036FC7368787117
:105260005879307301230828B373A7D16168607C33
:1052700015F070FF7268616881460532607C06F047
:10528000DFFE03460028A7D17768F8803872CCE7A4
:1052900079790829CDD0002BCBD006F0D1FF01239E
:1052A000F373C6E76F4E3168002A5DD091F8543031
:1052B00013F0030996D0776891F84CA097F806B0E0
:1052C0008146BBF1000F75D06368002B41D138686F
:1052D00002F0B4FB002800F0BB804B464FF0010900
:1052E000D6E900173AE0062D91F84D3003D8002B8F
:1052F00082D14B4680E797F807A0082D65D8B8F112
:10530000000F00F09780BAF1000F5ED06268002AAB
:10531000EDD13868019302F091FB18B9019B002B85
:1053200000F0A6804FF0010977684B4664E74379A7
:1053300003F0C003402B7FF43CAF4A4E737B002B3D
:1053400045D17368587937E7062D91F84CA07768F6
:105350002ED8BAF1000F7FF448AF4B46CA469946A3
:1053600043E7404E814637E791F85430706813F0B8
:10537000030218BF012213F00403827105D02378C1
:10538000A3F10103B3FA83F35B09C37191F894307D
:10539000002B3FF44EAF3368D3F89000503016F036
:1053A000DAFC00287FF445AF736801221A7240E7E7
:1053B000082D1CD9002213F00403BA713FF41CAF6E
:1053C00091F84D3097F807A097E7002314E7B8F15C
:1053D000000F7FF440AF336893F8201101297FF468
:1053E0003AAF06F00FFF70730028AAD033E797F8A2
:1053F00006B0B8F1000F7FF464AF6268002AA8D14C
:105400006278D0061CD50120B8715807DDD591F817
:105410004D3097F807A00193D30627D4386802F0DF
:105420000DFB019B00283FF47AAFBAF1000F3FF467
:1054300076AF77E76268002A7FF459AF6278EAE7CF
:10544000386802F0FBFA18B1BBF1000F7FF445AFEA
:10545000BAF1000F7FF441AF06F0ECFD4B468146F8
:105460003EE700BFE80C0020700000200123C3E6E7
:1054700006F0E0FD814657E740F681313220FBF728
:105480002FFBFB88003B18BF0123CEE670B5194EF9
:105490008AB0054607F000F93368174A93F854308C
:1054A000107013F0060F16D12C7804F00F0422466A
:1054B0002846694602F0E0FA214600226846FFF7D6
:1054C00069FE21466846FEF7B5FE737B044643B984
:1054D00020460AB070BD0122962100200DF064F82C
:1054E000E2E70DF07BFA0BF0F9FF0023204673731F
:1054F0000AB070BDE80C00201000002010B5104C60
:10550000606802F01DF8637B9BB9D4E9003000228B
:105510004FF0010C80F804C003F16C00A3F82121C6
:1055200083F8232101F09AFF2068BDE8104003F0C2
:105530009DBD0DF053FA0BF0D1FF00236373E4E738
:10554000E80C002010B5114C07F0A6F8104A637B58
:1055500010709BB9D4E9003000224FF0010C80F8A4
:1055600004C003F16C00A3F8212183F8232101F08A
:1055700075FF2068BDE8104003F078BD0DF02EFAED
:105580000BF0ACFF00236373E4E700BFE80C0020DE
:105590001000002010B5124C606801F0D1FF07F038
:1055A0007BF8104A637B10709BB9D4E9003000226D
:1055B0004FF0010C80F804C003F16C00A3F8212126
:1055C00083F8232101F04AFF2068BDE8104003F072
:1055D0004DBD0DF003FA0BF081FF00236373E4E788
:1055E000E80C00201000002010B507F055F8134C0F
:1055F000134B024620681A700021A03013F05AFFA6
:10560000637B9BB9D4E9003000224FF0010C80F895
:1056100004C003F16C00A3F8212183F8232101F0D9
:105620001DFF2068BDE8104003F020BD0DF0D6F945
:105630000BF054FF00236373E4E700BFE80C002085
:105640001000002010B5154C606801F039FF07F01C
:1056500023F802462068124B0021A0301A7013F084
:1056600029FF637B9BB9D4E9003000224FF0010C85
:1056700080F804C003F16C00A3F8212183F82321F2
:1056800001F0ECFE2068BDE8104003F0EFBC0DF027
:10569000A5F90BF023FF00236373E4E7E80C002077
:1056A0001000002070B5234C236893F823215F2A53
:1056B0009EBF5109204A565C9A6E88BF00266ABB7D
:1056C000D3F888000DF008F9256895F854309A074A
:1056D00003D595F89620022A17D05B0703D595F8D5
:1056E0009630012B11D06368186802F0B9F90146B1
:1056F00005F19A0002F0E4FAD4E900130022A27343
:10570000062281F820611A7170BDF31E012B0AD99F
:10571000314600200DF07CF92568E4E70120FFF711
:105720003BFC2368CCE795F85930012B14BF314678
:105730000321EEE7E80C0020207D020038B5154C6F
:105740000521206802F00CFD48B12368012093F880
:1057500020110DF05DF963680B221A7138BD637B6F
:105760008BB9D4E9003000220125057103F16C00EA
:10577000A3F8212183F8232101F070FE2068BDE801
:10578000384003F073BC05460DF028F90BF0A6FE77
:105790006573E6E7E80C002038B5164C00210320BD
:1057A000FFF776FA2068032102F0DAFC38B1012114
:1057B00008460DF02DF9636809221A7138BD637B24
:1057C0008BB9D4E9003000220125057103F16C008A
:1057D000A3F8212183F8232101F040FE2068BDE8D1
:1057E000384003F043BC05460DF0F8F80BF076FEA8
:1057F0006573E6E7E80C002010B598B991B11F4A2F
:105800005368197908292ED919790C2930D81B79B0
:10581000526903F180435268093BBDE8104052F8D9
:1058200023301847154C606801F08AFE637B9BB9F2
:10583000D4E9003000224FF0010C80F804C003F1DD
:105840006C00A3F8212183F8232101F007FE2068D2
:10585000BDE8104003F00ABC0DF0C0F80BF03EFEAE
:1058600000236373E4E741F25A413220FBF738F931
:1058700041F25B413220FBF733F900BFE80C002016
:10588000F0B52B4C236893F823215F2A9EBF510962
:10589000284A575C9A6E83B088BF0027002A3AD105
:1058A000D3F888000DF018F8256895F854309A0759
:1058B00003D595F89620022A24D05B0703D595F8E6
:1058C0009630012B1ED06368186802F0B7F8636841
:1058D0000646186802F0B8F8024605F19A002568F5
:1058E00095F8963095F820510095314602F0F2F97E
:1058F000D4E900130022A273052281F820711A71E5
:1059000003B0F0BDFB1E012B0AD9394600200DF073
:105910007FF82568D7E70120FFF73EFB2368BFE744
:1059200095F85930012B14BF39460321EEE700BF2B
:10593000E80C0020207D020038B51C4CD4E900039F
:105940000C2201211A7103F0BBFB00210520FFF797
:105950009FF92068062102F003FC58B1236801205A
:1059600093F820110DF054F823681B6D012283F881
:105970008E2038BD637B8BB9D4E90030002201252D
:10598000057103F16C00A3F8212183F8232101F0B4
:1059900065FD2068BDE8384003F068BB05460DF0A2
:1059A0001DF80BF09BFD6573E6E700BFE80C0020D7
:1059B00030B5254C636883B0186801F02DFD0028D0
:1059C0003CD063680A2205461A712068002103F062
:1059D00077FB22682B78126D92F88E5005EA5315EA
:1059E00005F0010505202946FFF752F9206804213A
:1059F00002F0B6FB28B123681B6D83F88E5003B00C
:105A000030BD637B93B9D4E90030002201250571D4
:105A100003F16C00A3F8212183F8232101F01EFD7E
:105A2000206803B0BDE8304003F020BB01900CF0CB
:105A3000D5FF0BF053FD01986073E4E740F25E512F
:105A40003220FBF74DF800BFE80C0020F0B55A4CAF
:105A5000206883B06C3001F001FD656801F0AEFC98
:105A6000636828601868002800F0A18001F0D4FC69
:105A70000546002800F09680236893F8A630002B96
:105A800054D1D4E9000290F8A430034493F824716F
:105A900080F82071137913B11379012B5FD190F83D
:105AA000A520464B134418790CF06CFC236893F83E
:105AB000A420134493F82461022E4ED02FD9F31E54
:105AC000012B2ED801F074FC31460CF0BDFA2846AB
:105AD0000CF0C8FE314601200CF05AFC012F34D0E6
