:020000040000FA
:10000000F03F002049200000316200003520000050
:10001000352000003520000035200000352000008C
:10002000000000000000000000000000ED200000C3
:1000300035200000000000003520000035200000C1
:1000400061220000612200006122000061220000A4
:100050006122000061220000612200006122000094
:100060006122000061220000612200006122000084
:100070006122000061220000612200006122000074
:100080006122000061220000612200006122000064
:100090006122000061220000612200006122000054
:1000A0006122000061220000612200006122000044
:1000B0006122000061220000612200006122000034
:1000C0006122000061220000612200006122000024
:1000D0006122000061220000612200006122000014
:1000E0006122000061220000612200006122000004
:1000F00061220000612200006122000061220000F4
:1001000061220000612200006122000061220000E3
:1001100061220000612200006122000061220000D3
:1001200061220000612200006122000061220000C3
:1001300061220000612200006122000061220000B3
:100140006122000053B94AB9002908BF00281CBF2A
:100150004FF0FF314FF0FF3000F00CB8ADF1080C5C
:100160006DE904CE00F008F8DDF804E0DDE90223D3
:1001700004B07047704700BF2DE9F04786468C46B3
:100180000846089E154674461946002B40F0C1806B
:100190008542B2FA82F245D94AB1C2F1200300FA8F
:1001A00002FC954094402EFA03F343EA0C0C4FEA0C
:1001B000154EA8B2230CBCFBFEF80EFB18CC08FBB6
:1001C00000F943EA0C43994528D9EB1808F1FF37A9
:1001D00004D2994502D9A8F102072B44A3EB0903E5
:1001E000A4B2B3FBFEFC0EFB1C330CFB00F044EA94
:1001F0000344A04214D92C190CF1FF3304D2A042BD
:1002000002D9ACF102032C44241A43EA07401EB180
:10021000D440002334607360BDE8F0874746DDE7D3
:100220006346F1E792BB431B01214FEA154EAFB283
:10023000200CB3FBFEFC0EFB1C330CFB07F840EA62
:100240000343984561D9EB180CF1FF3004D298456F
:1002500002D9ACF102002B44A3EB0803A4B2B3FB18
:10026000FEFC0EFB1C330CFB07F744EA0344A742D9
:100270004DD92C190CF1FF3304D2A74202D9ACF1AD
:1002800002032C44E41B43EA0040C0E7C2F1200310
:100290009540944020FA03F12EFA03F34FEA154EED
:1002A0009040AFB20343B1FBFEFC0EFB1C10190CD7
:1002B0000CFB07F841EA0041884522D969180CF186
:1002C000FF3004D2884502D9ACF102002944A1EBE9
:1002D00008019BB2B1FBFEFC0EFB1C110CFB07F7E7
:1002E00043EA01439F420ED9EB180CF1FF3104D2CF
:1002F0009F4202D9ACF102012B44DB1B41EA0041D1
:1003000093E76046E3E76146F7E76046A4E76346A4
:10031000B8E7834206D916B9002108467CE7C6E94A
:1003200000E0F9E7B3FA83F78FB9834201D372454E
:1003300008D8BEEB020460EB030301209C461EB903
:10034000002169E73846FAE7C6E9004CF8E7C7F14B
:10035000200CBB400EFA07F522FA0CF42EFA0CF131
:10036000BA401C4320FA0CF3B8404FEA1449014349
:100370001FFA84FEB3FBF9F809FB18300B0C08FBDD
:100380000EFA43EA00439A4540D9E31808F1FF30DA
:1003900004D29A4502D9A8F102002344A3EB0A0330
:1003A00089B2B3FBF9F809FB183308FB0EFE41EAEA
:1003B00003418E452CD9611808F1FF3304D28E45D4
:1003C00002D9A8F10203214443EA0040A1EB0E0147
:1003D000A0FB02984145CE46434602D306D14D4587
:1003E00004D20138B9EB020E68EB0403002EA7D04B
:1003F000B5EB0E0261EB030101FA0CFC22FA07F3E4
:10040000F9404CEA0303C6E9003199E74046C5E7E5
:100410004346D9E7F0B5394B394A4921C3F800269C
:100420003848C3F8042687B0C3F80826C3F80C265A
:10043000C3F81026C3F81426C3F81826C3F81C26E0
:1004400005F04FFE05F0E0F900F0A2FA054603A81A
:1004500000F048FD0446284600F0AAFA2A4B1B6823
:10046000A34205D04521294805F03BFE05F016FBC7
:100470004921059A264805F034FE039925484B7D0D
:100480000A7DC98A0091492105F02BFE49212248A5
:1004900005F027FE4FF48031002002F003FE0446F1
:1004A00020B145211D4805F01CFEFEE702A99DF87C
:1004B000100000F037F8029B059D1D44039B1E8928
:1004C00002F0D8FDAF1901F085F801F055F801F000
:1004D0006FF884F30B8884F30A88AB5983F3088898
:1004E00084F31488BFF36F8FBFF36F8F7B689847D7
:1004F00045210B4805F0F5FDFEE700BF00800150E7
:100500003546526E52720000080000206B720000E7
:100510008E720000BD720000DB72000000730000EC
:1005200033730000024608B538B105480023452161
:1005300005F0D7FD6FF0150008BD0860FCE700BFAF
:100540005673000021B1012906D06FF015007047E5
:10055000044B53F830007047024B03EBC00358685C
:10056000704700BFA86E00002DE9F04FDFF844B2DD
:10057000DDB01646DDE968891C466A9FDBF800504D
:1005800000F0C4FF0122874B3CA8C3F8002504F00B
:1005900059F8B8F1000F07D0B9F1000F04DD4A4651
:1005A00041463CA805F08CFC4FF000083389728965
:1005B000D6F80CA013449A44C2456AD80FA93CA8A7
:1005C00004F0B2F80022774BC3F80025C3F80025E9
:1005D00027B1202238460FA905F06BFE00233146D3
:1005E000009322464FF6FF7309A805F00EF9064660
:1005F00000285FD120460E9F00F0B4F9874259D8F9
:100600004FF0FF37DFF8B0A1DFF898810DF11E033E
:1006100007AA08A909A805F046F900284ADB40F016
:10062000B980089909A805F08AF950B94FF6FF7109
:10063000BDF81E005C4A32F8023B8B423AD0984229
:10064000F9D1BDF81E90B9F1100F3DD0B9F1220FCC
:100650007DD0B9F1010FD9D1BDF81C30202B29D89C
:10066000204608993CAA05F04AFD074610BB9DF8B4
:100670001C30202B039309D8DAF800204B4B04924E
:10068000049A97423FDB0023C8F800354FF0FF374C
:10069000BCE7679BAAEB0809994528BF99464146E4
:1006A0004B462046669A05F02AFD30B100223D4BAC
:1006B000C3F80025DBF800506EE04A4666993CA876
:1006C00005F0FEFBC84477E7BDF81C90B9F1200F98
:1006D000F0D14B46204608993CAA05F010FD0028B1
:1006E000E8D100F055F94A4606463CA90FA800F0AB
:1006F000E7F88146304600F05BF92D4B1B684B450F
:10070000D8D1012682E7059300F000FFC8F80095D4
:100710001FA803F097FF059B1FA85A6853F8081BF2
:100720001268059305F0CCFB17A91FA803F0FCFF86
:100730000022C8F80025039A3CA917A805F0A9FDD6
:10074000059B10B9C8F8000560E7013798E77B1CE6
:100750003FF45CAFDAF80030BB4297DDBDF81C30E7
:10076000802BA7D8204608993CAA05F0C8FC002891
:10077000A0D100F00DF9FFB281462021BDF81C3058
:100780003CAA00970FA800F019F80546484600F06B
:100790000FF97BE7002E8DD000F002F928465DB0FE
:1007A000BDE8F08F0000845024720000B46E000099
:1007B0000800002004000020B06E00002DE9F04782
:1007C00096B016461D469DF87820384B074653F8DC
:1007D000321003EBC2035B6801911868DFF8DC801C
:1007E0000144302302AA01A8D8F8009005F0F6FAD7
:1007F000002851D1DDE901431C44214606AB03AA80
:1008000001A805F013FB002846D1049A072A43D11A
:100810002749059805F03DFD00283DD1079A082A93
:100820003AD12449089805F034FDA8BB214602AA14
:1008300001A805F0E7FA78BBDDE901A30AEB0302A2
:10084000944229D1412B27D135443023294603AA8C
:1008500002A8029605F0C2FAE0B9DDE902321344BB
:100860009D4217D32A4602A906A805F076F888B952
:100870002A4602A90EA805F070F858B99AF8003077
:10088000042B07D12023384606AA0AF1010100F003
:1008900055FE38B1D8F8009000F082F8484616B0FE
:1008A000BDE8F087044BD3F80090F5E7B46E000084
:1008B000857300007C730000080000200400002005
:1008C00070B5094B04461D680023934205D1074BC0
:1008D0001D6800F065F8284670BDE65CC85C86427D
:1008E000F7D10133F1E700BF040000200800002029
:1008F000094A40000B7852F820108B4209D0013091
:1009000052F82000834214BF4FF0FF304FF4C07004
:1009100070474FF4C0707047BC6E00001FB50F4B9E
:100920000C4613F8300001F0EDF950B9206810239F
:1009300081686A46103905F0E2FB28B1206805F0AD
:10094000DDFB4FF0FF3006E010226846044905F059
:10095000A0FC0028F2D104B010BD00BFBC6E0000A6
:100960004272000013B5044605F028F86A460146B5
:10097000204604F030FF30B10448452105F0B1FBBA
:10098000002002B010BD0098FBE700BF8D7300008F
:10099000024B1868421C1A60704700BFB801002063
:1009A000024A1368013B1360704700BFB801002082
:1009B000034B1B68834201D005F070B8704700BF3D
:1009C000B80100202DE9F043434F89B006460020CE
:1009D0000D463C68FFF7B6FD06A9C0B201F092F9DA
:1009E00028B1FFF7DDFF204609B0BDE8F0832946B6
:1009F000FFF7A8FD2C2407A9C0B204FB056401F091
:100A000081F990B12C236B43F2181169DDF818C0FD
:100A1000C8061AD51DB13046069905F0D3F82F4BFC
:100A20001C68069805F06AFBDBE7079805F0B2FB47
:100A30008046079805F062FB631EE21C13F8011F55
:100A40004145DFD19342F9D1E4E7F058244B984275
:100A50003ED1D06813891B183AD25289D21837D2A6
:100A6000DCF808309A4233D240F60C6311EA0306F0
:100A70002ED1FFF78DFFDDF818900746FFF788FFAE
:100A80004FF480730193174B224680463146009302
:100A900030464B46CDE903660296FFF765FD0446F6
:100AA0004046FFF785FFFFF77BFF3846FFF780FFE3
:100AB0000D4B1B68A342B4D065B106980021826833
:100AC00005F047FB094A4521094805F00AFBA6E75E
:100AD0003C68EDE7074AF6E704000020000000202C
:100AE0003DB8F396E40E002008000020D07300000B
:100AF000DA730000C87300007FB50D46002104467C
:100B00002846CDE9021105F01CF828B32368194ED8
:100B1000B34203D1204603AA04F078FFE36AB3424C
:100B200004D10121204602AA04F070FFDDE902325F
:100B3000934288BF0393039BAB60039A29462046E8
:100B400000F0E2FB0C4B1A68002A03DD57210B482A
:100B500005F0C7FA04B070BD01A9FFF7DFFE0198E8
:100B600005F1080104F035FFAB680198039305F027
:100B7000C5FAE2E73DB8F3961C0E002002740000AF
:100B80002DE9F84F884691469A460026DFF870B066
:100B9000194C1A4D0B9B9E4201D300200FE00B9B7A
:100BA00040469F1BB7F5806F28BF4FF48067144AFB
:100BB0003B4606EB0A0105F0A2FA10B10120BDE8A0
:100BC000F88F0A993B465A464846711805F0ACFA28
:100BD0000028F3D1C4F800563E44C4F80456C4F8C3
:100BE0000856C4F80C56C4F81056C4F81456C4F885
:100BF0001856C4F81C56CDE7008001503546526E99
:100C0000BC0100202DE9F0410E460021AC4B04460A
:100C1000436203F5806388B003650846FFF792FCE2
:100C200004F120010546C0B201F06CF848B1002380
:100C30002A46452101900093A24805F052FA04F09B
:100C40002DFF01210020FFF77DFC04F14C0105463A
:100C5000C0B201F057F850B101232A464521019056
:100C600000939848002305F03CFA04F017FF204653
:100C700004F03DFF054668B900222046114604F005
:100C800020FF054600B3002257218F4805F029FABE
:100C900001239EE0802257218C4805F022FA01238F
:100CA0009D4284F85830E7D194F85830042B8DF8E1
:100CB000173000F29180012B00F2958000F0A8809F
:100CC000FF2384F85830A3E0204600F027FA0028DC
:100CD000DED004A804F02CFF0146204604F0C7FF34
:100CE00018B12A4657217A48D0E704A804F029FF12
:100CF00080F0010104AA2046C9B204F0E2FE0246D7
:100D00000028C0D104A804F01CFF054660BB2046A3
:100D100004A9FFF7F1FE9DF8173084F85830033B23
:100D2000012B06D8284600F00DF910B1FF2384F8F6
:100D300058309DF81730023B022B0BD8002000F0F2
:100D4000EBF838B1FF2384F858304521614805F0AD
:100D5000C8F9FEE794F85830FF2BF6D00022204661
:100D6000114604F0AEFE93E79DF81770012F1ED1D7
:100D7000104602F02BFA831E022B054614D8FFF70B
:100D800007FE394680462046FFF71CFE07464046D0
:100D9000FFF70EFE504B1B689F4205D04F4B1D685E
:100DA000AF4214BF0525012584F858507CE7FFF7B2
:100DB000EFFD012107462046FFF704FE05463846B1
:100DC000FFF7F6FD444B1B689D4214BF05239DF8B9
:100DD000173084F8583067E7052B7FF471AF002097
:100DE00000F0B0F811E0204604A9FFF785FE94F862
:100DF0005830DA1E012A34D8002000F0A3F8002869
:100E00007FF45EAF002000F087F800287FF458AF31
:100E100094F85830FF2B05D145212E4805F061F993
:100E200004F03CFE002294F858302D4F012B039221
:100E30001AD01146204604F044FEA8B13D681022A5
:100E400000210DEB020005F03FFAE06C05F056F9C9
:100E5000206A05F053F9FFF7A3FD284608B0BDE866
:100E6000F081022BD4D1CDE7FFF792FD002180461F
:100E70002046FFF7A7FD05464046FFF799FDDFF83E
:100E80005880D8F800309D42D8D13B689D42D5D0DB
:100E9000124B1B689D42D1D0039B01330393039BEC
:100EA000012B01D004F0FAFD206A04F092FC3071AD
:100EB000236A5B683460D8F80050B360BFE700BFB6
:100EC000BC05002031740000C07400007E74000076
:100ED000EC740000167500000800002000000020DF
:100EE0000400002070B50B4E0446602200213046FD
:100EF00005F0EAF9FFF74CFD214605463046FFF7BD
:100F000081FE04462846FFF753FDFFF749FD2046C2
:100F100070BD00BFBC0D002013B5094B01A913F82B
:100F2000300000F0EFFE48B9019805F096FC044649
:100F3000019805F0E3F8204602B010BD0124FAE75D
:100F4000C46E00001FB50F4B01A913F8300000F06C
:100F5000D9FEA8B9019802A902F0E2F8044668B9DE
:100F60009DF80B30032B03D1019805F044FC044697
:100F7000019805F0C3F8204604B010BD0124F7E73E
:100F80000124F8E7C46E00002DE9F34106460C4643
:100F900017461D460BB9002628E0184604F0D1FD7F
:100FA0000028F8D16946FFF7B9FC009838B9012448
:100FB000009805F0A3F8204602B0BDE8F08101A931
:100FC00004F007FD0028F2D1009805F097F83046AC
:100FD000019904F09AFE736A5E686B79012B21D146
:100FE000002CD8D12B68834298BF002621460020D0
:100FF000FFF7A8FA6946C0B200F084FE0028D6D1F7
:1010000020233A463146009805F079F80446002836
:10101000CDD1002DCCD03C680D4BE41A18BF4FF059
:10102000FF34C5E7022BB6D12B68012B05D98342CB
:10103000B1D8B4FA84F46409ADE7ACD1002CD5D0B2
:10104000012CA8D12C79023C18BF0124A3E700BFD2
:101050003DB8F3962DE9F04F07460C4685B00146A2
:1010600000201646FFF744FC051E50DB3846E46DB1
:1010700004F0A4FC5FFA84F94FF0000A4FF0010B72
:101080004FF0FF346B1E09FB03089DB9BAF1010F45
:1010900003DD4521204805F024F8631C06D07F2C91
:1010A0002ADC40F2011301343460B380284605B0D5
:1010B000BDE8F08F6B1E00934146012338460DF1C9
:1010C0000F0205F01CF8031E019322DB01223846B3
:1010D0000DF10F0105F02AFB019B40B15B4501D0EA
:1010E0000AF1010A9B46009DA8EB0908CDE7B4F17F
:1010F000FF3F08BF2C46F5E70223803C7371631065
:1011000004F001040133013433603471CEE7072564
:10111000CCE70125CAE700BF22750000F8B5866A52
:10112000456D044604F0E0FDAE420AD06B1CB342AC
:1011300007D0834205D05721164804F0D2FF002083
:10114000F8BD802E19D957211348F6E7626A02EBE1
:10115000C3025768226D02EBC3025268974202D065
:1011600057210E48E9E701339D42EFD1204604F0B4
:10117000C2FE28B957210A48DFE700231F46F3E7DC
:10118000AE4205D9636A03EBC5035B68BB42E7D196
:101190000120D5E7457500007D750000AC750000A5
:1011A000D875000000B589B0032004A905F030FB14
:1011B0009DF81020012A41D0254B2649032A08BF5B
:1011C0000B469DF81320492102929DF812202248D7
:1011D00001929DF811200092204A04F082FF09201C
:1011E00006A905F015FB9DF81820012A28D0184BF8
:1011F0001849032A08BF0B469DF81B20492102927B
:101200009DF81A20144801929DF819200092144A62
:1012100004F067FF9DF81030012B13D19DF81230B8
:10122000032B0FD19DF81830012B0BD00D4849210D
:1012300004F057FF022009B05DF804FB0A4BC0E739
:10124000094BD9E70948492104F04BFF0020F2E798
:10125000117600001A7600002E760000207600003D
:101260006F7600007F760000157600009E76000005
:1012700070B54B6814461E4A03F0FF23934206469E
:101280000D4686B02FD10B68012B2CD1204604A926
:1012900001F046FF9DF81020012A26D0154B164973
:1012A000032A08BF0B469DF81320492102929DF89E
:1012B0001220124801929DF811200092104A04F069
:1012C00010FF9DF81030032B0DD12146304604F05D
:1012D00079FC204605F08FFA2046A96804F087FBC8
:1012E000204601F0FDFE06B070BD064BDBE700BFF7
:1012F00000010004117600001A7600002E7600002E
:101300006F760000157600002DE9F04F1646054671
:1013100089B00C467448492104F0E3FE3146284662
:1013200004F0F3FC6B6A824620465E6804F009FC18
:10133000E8B1E86D04F03DFB0023AF6A013F3344A0
:10134000984201D9013FFAE7BA4510D357216748BF
:1013500004F0C7FE07FB06F357210AFB0662644848
:1013600004F0BFFE0123E37109B0BDE8F08F06A9C8
:10137000032000F0C7FC07A9092000F0C3FC2146A8
:101380002846079AFFF774FF6379012B4BD1574624
:10139000DFF860B141E02268C2F1010353449F428B
:1013A0003AD86B6A012A196853F8370003EBC70370
:1013B00053F8083CA0EB0109A3EB0103049311D1FE
:1013C000079B0393E368022B08D04146284604F0AC
:1013D000F9FB22464146284604F02AFC2846039998
:1013E00004F0F0FB32464946404604F0E9FB049B1A
:1013F000424641462846CDE90096FFF7C1FB21460B
:10140000284604F0ABFB23680133236020B1DBF8EE
:1014100000300133CBF80030013FDDF81880002F99
:10142000B9D101232360022301276371BA45DDF896
:10143000189006D2484604F061FE079804F05EFE5C
:1014400092E723689F424DD36A6AFB0052F8371037
:10145000083B04911168DDF81CB00391D1582A6D46
:10146000D0581368A0EB03082379012B38D1039BD4
:101470003246C91A4846059104F0A2FB0599434635
:101480004A460091284659460196FFF779FB2146C6
:10149000284604F063FB0223237118B1154A136830
:1014A0000133136032464146584604F089FBDDE9BA
:1014B000032349469B1A28465A46CDE90086FFF782
:1014C0005FFB2146284604F049FB23680133236073
:1014D0000123237130B1074A13680133136001E01F
:1014E000022BDFD00137A1E7B5760000DE760000E1
:1014F0000D7700001C0E00200A4619B1024B002196
:101500001B681847704700BF0C00002070B5094DDC
:101510002B780BB1002070BD0126074CC4F8006584
:1015200003F032F918B92E70C4F80005F2E74FF055
:10153000FF30F0E7E40F0020000084502DE9F04177
:10154000ACB01F4606460C461546FFF7DFFF0123E9
:10155000DFF820802A46C8F8003521463346009738
:1015600003A805F0D1FA0023C8F800352CB0BDE877
:10157000F08100BF00008450BFF36F8F72B600236C
:101580004FF0FF30094A03F120010133102B42F8DC
:101590002100F8D100234FF0FF30044A03F160012D
:1015A0000133102B42F82100F8D1704700E100E030
:1015B000002318460649D1F89020C2F3072293422F
:1015C00000DB7047C1F89830C1F8A0000133F6E79E
:1015D00000ED00E02DE9F8434FF0FF3501274FF013
:1015E0000008204BDFF884905F60C3F84853C3F8CD
:1015F000085303F580535F60C3F84853C3F808539A
:1016000059F8044B002644F30730C4F8085300F09F
:101610008DFD80226760C4F84C61D4F84C31C4F869
:101620001061D4F81031C4F844613146D4F8443123
:10163000A018C4F8006504F047FE8022314604F586
:10164000C07004F041FEB8F1000F08D0064BC3F89B
:1016500008554FF05023C3F80853BDE8F8834FF006
:101660000108CDE70040015000700150D06E00002D
:10167000014B1B68184700BF10000020014B186089
:10168000704700BF1000002007B50B46002102463E
:101690000091034800F006F803B05DF804FB00BFBA
:1016A000711600002DE9F04F82464FF000098DB011
:1016B0001D46531E01910393039B58785C1C2528FB
:1016C00019D100204FF0FF381E464446034602362B
:1016D000029031780396392955D81F2914D800294A
:1016E00000F0EF8101992520D04701993078D0474B
:1016F00009F10209E0E7002800F0E3810199D047F1
:1017000009F101090394D7E7A1F12002192AE9D8C8
:1017100001A757F822F000BF81170000E51600006E
:10172000E516000081170000E51600000118000012
:10173000E5160000E5160000E5160000E5160000BD
:101740004D18000081170000E51600006118000028
:101750000D180000E51600001B1800003B180000E3
:101760003B1800003B1800003B1800003B1800002D
:101770003B1800003B1800003B1800003B1800001D
:1017800008460136A5E7582900F0EB80A1F1630275
:10179000D7B2172FA6D8172AA4D801A757F822F036
:1017A000091A000087180000E5160000E516000081
:1017B000E51600006718000087180000E516000015
:1017C000E516000067180000E5160000E5160000A9
:1017D000E51600003D190000E5160000E5160000C2
:1017E000DD190000E516000087180000E51600006E
:1017F000E51600003D190000E5160000671800001E
:1018000025200199D04709F1010955E7029A4FF0C7
:10181000000802F0FE020292B3E7002C0DDAB8F1E4
:10182000000F0DDA029A002A00F043810A2224EA0E
:10183000E47402FB0414303CA3E7B8F1000FF5DBBD
:101840000A2202FB0812A2F130089AE7B8F1000F51
:1018500055F8042B80F22F81002A80F22E81544209
:10186000022202928DE7682903D1682B06D1482312
:1018700087E76C2902D16C2B00F02181002B7FF4CB
:1018800031AF0B467DE77A2B06D1752955F8046BED
:1018900014D14FF0000B0CE06C2BF6D04C2BF4D194
:1018A000073525F00703752903F10805D3E9006B17
:1018B00006D120283BD1854F013C09E04FEAE67B69
:1018C000BBF1000FF5DA7642814F6BEB4B0B013C1D
:1018D0000DF12D03059300230493304659460A2247
:1018E0000023FEF72FFC059BB446303203F8012D90
:1018F0005A460593049BBCF10A0F8B4672F1000215
:1019000003F1FF3106460491E7D2C3F1010B3033F6
:101910000DEB0306B8F1000FA6F104066DDA029B89
:10192000D9077DD4A8EB0B03A4EB0B0413E02B2801
:101930000ABF684F684F04F1FF34C9E770290FD11F
:1019400055F8042B0023FAB96FF004034FF0050B90
:10195000614F624E053C029A920770D4A04666E041
:1019600078216C2B03D1002355F8042B08E04C2B75
:10197000F9D1073525F007031D465B6855F8082B9C
:10198000232825D1880621D5554F023C002601F099
:101990006001A1F1390B0DF12D0E02F00F010929A3
:1019A00088BF594430310EF8011D102A4FEA121138
:1019B00041EA03714FEA131C73F1000306F1FF3093
:1019C00008D2C6F1010B06F13003A1E7454FDCE771
:1019D000414FDBE706460A466346DEE755F8046BEF
:1019E000304604F04FFCB8F1000F834602DB40455F
:1019F000A8BFC3464FF00008374FA8EB0B03002BDE
:101A000092DDA4EB0804A6E755F8043B4FF0010B68
:101A10008DF81830304F4FF0FF33013C06AE9AE797
:101A2000A046EAE7029320200199D047029BB8F133
:101A30000108F7D524EAE472013C9144A41AB8469F
:101A400006E0049302920199D047029A049B9046C3
:101A5000424612F8010B0028F3D11A46013A15D577
:101A6000002BACBFC7EB03077F425B46013B15D59C
:101A7000BBF1000FA8BF5F4426464F44013E14D57A
:101A8000002CA8BF3F1907EB080915E60493029242
:101A900030200199D047049B029ADFE70293019915
:101AA00016F8010BD047029BE0E701992020D047B0
:101AB000E4E70122D5E6904663E6144661E64C234E
:101AC0005FE648460DB0BDE8F08F00BF9B77000091
:101AD000997700009D77000021750000A577000030
:101AE0009F770000A27700002DE9F047058B0446A0
:101AF0002807904611D4022905F0070540F0CC8054
:101B0000204604F015FA78B10138218B042811D849
:101B1000DFE800F0C2106D85950001290CBF45F08B
:101B2000100545F02005258388F31188BFF36F8FDA
:101B3000BDE8F08701F0070AAA4500F0A58000275C
:101B4000B9463E46A368002B00F0BC8041F0080176
:101B5000218388F31188BFF36F8FA168002900F0FB
:101B6000BA800D68002900F0B68033465246204600
:101B7000D1F80480C047002D76D02B6829461D4639
:101B8000F0E701F007035A1F012A1BD8002221F0B9
:101B90000701062B276889B2C4E9002209D13B4618
:101BA00003E0628B013262831B68002BF9D141F0A4
:101BB00002012046218304F0BBF900287AD041F0CD
:101BC000200176E0042B0AD121F0070189B22046DA
:101BD000218304F0ADF910B141F020012183218B64
:101BE00001F0070AAA454FD00027B946AAE72369A2
:101BF00021F0070141F00601062DD3F80090218362
:101C00002DD1B9F1000F3FD041F00801218388F3B5
:101C10001188BFF36F8F20463949C84729E021F06A
:101C20000701236941F0040189B2042DD3F804901F
:101C30002183E6D000274FF0040A3E4682E721F0D8
:101C40000701236941F0050189B2052DD3F80890F9
:101C50002183D6D000274FF0050A3E4672E70027C1
:101C60004FF0060A3E466DE72B4687E7B9F1000FB5
:101C7000D1D1EFF31188202383F31288BFF36F8F44
:101C8000238B23F008032383258BEA062ED525F02A
:101C90001003238305F007056669218B002EBFF62C
:101CA00070AF00232768C4E9003321F0070141F039
:101CB00001012183218B4FF0000901F0070AAA4599
:101CC0007FF440AF002F9CD041F00801218388F3BE
:101CD0001188BFF36F8F002FC8D03D683946334657
:101CE0005246204604F050F92F46F4E7AB067FF544
:101CF0001BAF25F02003238305F0070500E700BF95
:101D0000B55F000070B5104B0D461C68B4B10F4BA9
:101D1000196800238B4202DB6FF0010070BD224680
:101D200012F8106B864202D014460133F2E7E068E5
:101D300004F089FE28B100202C60EFE76FF00C0062
:101D4000ECE76FF01200E9E714000020D86E000005
:101D500010B5436888B0029383680C46CDE903321E
:101D600000230A68C068CDE90623054901AA059346
:101D700004F068FB079808B9059B236008B010BD04
:101D8000A361000008B5054804F0C5F8044804F054
:101D9000C2F8BDE80840034804F0BDB8AB770000C6
:101DA000DC77000010780000014802F09DB900BF08
:101DB000BC6F000030BFFFF7FDBF00BF154B9A6A34
:101DC00012F0007F9A6A14BF1E201D2012F0807F3F
:101DD0009A6A18BF1F2012F4801F9A6A18BF022047
:101DE00012F4002F9A6A18BF212012F4802F9A6AE9
:101DF00018BF222012F4003F9A6A18BF232012F461
:101E0000803F9A6A18BF24206FEA02426FEA1242AA
:101E10009A62704700ED00E010B5194B0246986ACF
:101E20009C6A10F4805F14BF1720162014F4006F12
:101E30009C6A18BF1820A40509D5986B986A0004FD
:101E400004D51AB19A6A22F400429A6219200C4B06
:101E50009A6A12F4806F9A6A18BF1A20D2050CD4BD
:101E60009B6A13F4005F18BF1C20054A936A43F471
:101E70007F43936200230B7010BD1B20F5E700BF6A
:101E800000ED00E010B51C4B0246986A9C6A10F009
:101E9000100F14BF1120102014F0080F9C6A18BFF7
:101EA0001220A40709D5586B986A000604D51AB108
:101EB0009A6A22F080029A6213200F4B9A6A12F0FB
:101EC000010F9A6A18BF142012F0200F9A6A18BFE7
:101ED0001520D40658BF9B6A074B9A6A920642BFE8
:101EE0005A6A22F400525A629A6A42F0FF029A62D7
:101EF00000230B7010BD00BF00ED00E070B5444B37
:101F000006465B6800258AB0C3F3080385F3118891
:101F1000BFF36F8F02F07F40B0F17F4F11D102F01D
:101F20000C0008280DD010074CBF0E4601250022DA
:101F3000033B8DF80720032B05D8DFE803F01E5C78
:101F400060592E46F3E700249DF807309BB9202204
:101F5000314602A804F0ADF9099B002D53D0C3F31C
:101F6000080222B96FEA53236FEA432309932046FC
:101F700002A904F053F90AB070BD254BDA6A910743
:101F8000E1D4DA6A002ADEDBDA6A5200DBD55A696C
:101F9000B16942F480725A61BFF34F8FBFF36F8F04
:101FA0005A6931F8021C22F480725A61BFF34F8FD4
:101FB000BFF36F8F4DF60272914209D09A6AD2B286
:101FC00042B101200DF10701FFF75CFF0446BBE7BA
:101FD0003468B9E79A6A12F47F4F05D001200DF1F9
:101FE0000701FFF719FFF1E79B6AB3F5803FAAD31A
:101FF000FFF7E4FEEAE700200DF10701E4E7002027
:102000000DF10701EDE723F4FF7323F00103ADE7C2
:1020100000ED00E0064B5A6942F010025A615A691D
:1020200042F480625A615A6922F008025A6170478C
:1020300000ED00E0EFF30880EFF3098101B572468F
:10204000FFF75CFF01BD00BF002080F31488BFF3E1
:102050006F8F002080F30A8880F30B8801F074F9F9
:1020600000200E490860BFF34F8F0D4880F30888A9
:1020700000F01AF8202080F311880A484FF400611C
:10208000401880F30988EFF314800221084380F39D
:102090001488BFF36F8F00F081F8000094ED00E02A
:1020A000F03F0020F00F002072B6002383F3138866
:1020B0004FF0FF300C4A03F120010133102B42F89E
:1020C0002100F8D100234FF0FF30074A03F16001EF
:1020D0000133102B42F82100F8D162B6BFF34F8FC5
:1020E000BFF36F8F704700BF00E100E01EF0040FE8
:1020F0000CBFEFF30880EFF30980816911F8021C2F
:102100000229FFD001B5724604F08EF801BD00BF70
:1021100040B2002807DB01234109034A00F01F00F9
:10212000834042F82130704700E100E040B20028CF
:102130000CDB01220649430900F01F0082402033D6
:1021400041F82320BFF34F8FBFF36F8F704700BF5D
:1021500000E100E0054B420953F82220012300F082
:102160001F0003FA00F01040704700BF00E100E0DC
:1021700040B2002801F10101ACBF00F16040064B04
:102180004FEA4111C9B2ABBF00F5614000F00F004A
:1021900080F800131954704714ED00E0144A08B594
:1021A000144B22F07F029A60BFF34F8FBFF36F8F03
:1021B000D3F8882022F47002C3F88820D3F888204E
:1021C00042F4A002C3F888204FF04042C3F8342202
:1021D000BFF34F8FBFF36F8F0023E1EE103A01F092
:1021E00057FE01F099FE00F02FF801F05DFE00BFF0
:1021F0000000000000ED00E0154606460C460022F7
:1022000080B5E1EE102A82F30B88094FA7F520581C
:1022100088F30B8887F309884FF000000549884749
:10222000204629461A46B04703488047FEE700BFCC
:10223000F03F002049620000576200001022014B6D
:102240001A61704700ED00E0002320210348C21806
:102250000133412B82F80013F9D1704700E100E00F
:1022600008B5EFF30583064A103B02EBC30152F8B1
:10227000330049688847BDE8084003F0E0BF00BF6D
:102280001C6C0000014B1860704700BF1800002054
:102290000122024B0020C3F84025704700900350F4
:1022A00020B1034B800143F001031847704700BF82
:1022B000A06E0000084B70B5C31A0D4607499B106D
:1022C000044659434022064804F013F82B460146C1
:1022D0002046BDE870401847340E0020B76DDBB6CD
:1022E000B86B0000402373B50B4C0093041B0B46E6
:1022F0000D460A49A41061430646094A094804F0FC
:1023000023F8011E05DA30462B4602B0BDE87040C6
:10231000184702B070BD00BF340E0020B76DDBB6A9
:10232000B7630000B86B000010B5EFF311842023F1
:1023300083F31288BFF36F8F074A136823F00201FB
:10234000DB07116002D4012004F011FB84F3118833
:10235000BFF36F8F10BD00BF840E002070B5002248
:10236000012104460520FFF703FF0F4801F0F4F8B0
:102370000E4B984215D101F0FFF826690C49304602
:1023800003F026FE00280BDB01253564246908498B
:1023900004F11C0003F01CFE002801DB0020E564B2
:1023A00070BD6FF00400FBE77D2400000000AD0B62
:1023B000C46F00000C22104B014602FB00330020CA
:1023C00030B4D3E90E529863EFF31180202484F3E4
:1023D0001288BFF36F8F1C6C04F0C00444F0020439
:1023E0001C6480F31188BFF36F8F1DB12B4630BC86
:1023F0000248184730BC7047340E0020B86B00000C
:1024000010B4EFF31182202383F31288BFF36F8F90
:102410001848016841F002040460C80708D482F338
:102420001188BFF36F8F01205DF8044B01F0B8B83D
:102430004FF05021D1F80C04D1F80C14C907EED597
:10244000EFF3118083F31288BFF36F8F0A490B6C8F
:1024500003F0C00343F002030B6480F31188BFF361
:102460006F8F82F31188BFF36F8F00205DF8044BEC
:10247000FFF7A0BF840E0020340E002010B1012809
:1024800004D07047034B1B6C5B0701D1FFF792BF71
:10249000704700BF340E00202DE9F84301220746A3
:1024A0003449D1E8EF3FC1E8E02F0028F9D133B932
:1024B000314932484B60CB608A6003F09CFD7B1E43
:1024C000012B2DD8012F07D14FF05023D3F81C3406
:1024D00003F00303022B23D004F0F7FA054608BBF0
:1024E000274B1B78F3B14FF0502302220646C3F866
:1024F00008234FF050244FF00008DFF88890D4F8FC
:102500001824D4F81834D20315D503F00303022B92
:1025100001D0012F0FD135B386F31188BFF36F8F30
:10252000BDE8F883EFF31186202383F31288BFF30D
:102530006F8F0125DDE7304603F095FED4F818359E
:10254000DBB2012BDBD1D4F80421002AD7D0C4F8A8
:102550000481D4F804210222C4F818252022C9F8E5
:102560008021A360CBE74FF050230222C3F804235D
:10257000D6E700BF300E0020200E0020500E0020B5
:10258000E90F002000E100E008B5074804F05BFA1D
:1025900038B10648FFF776FE0448FFF76FF80020D1
:1025A00008BD6FF01200FBE7F46B0000B1250000DE
:1025B0000A2838B50446074D04D1AB680D212846DA
:1025C0005B689847AB6803485B68E1B29847204670
:1025D00038BD00BFF46B0000024B0B600123136099
:1025E000704700BF880E002000487047E86F000069
:1025F00010B504F020FA034C206004F019FA606072
:10260000002010BD880E0020F8B50E461946304651
:1026100017461D4603F04BFFB8B145EA060414F017
:10262000030412D14DB12B19032BA6EB040006D8DD
:10263000074AD2F80034DB07FBD50020F8BD3B1B6E
:10264000196801F0E5FB043CEDE76FF01500F5E7D4
:102650000090035038B545682B69B3B11035284652
:1026600001F094FA044680B90146284601F05CFA6C
:10267000084B98420BD122462846074901F03CFA04
:10268000224605210D20FFF773FD002038BD6FF0B5
:102690000400FBE70000AD0B9D260000430970B568
:1026A00007D10B4B596821B101250C68094E8540B3
:1026B00001B970BD8A682A4002D030464B689847FD
:1026C0001CB1236821461C46F2E72346FAE700BF07
:1026D000900E0020CC6B00002DE9F04340F206354F
:1026E0004668D00648BF0320337B02EA050558BF81
:1026F000C2F3401087B001F01F07B5F5837F144681
:1027000047EA43178DF8030042D00FD8062D18D0A2
:1027100007D8B5B1022D3DD06FF0150007B0BDE868
:10272000F083B5F5807FF7D101250AE040F202225F
:10273000954231D0B5F5407F30D0B5F5007FEBD173
:1027400002250123220303FA01F129D57368996058
:10275000326952BB07F01F037F0973D13B4A84F4EF
:10276000803102EB8302D2F80032C1F30041C4F39E
:10277000404423F4E16344EA410423F007031C438B
:1027800044EA800444EA0524C2F800420020C5E778
:102790000725D6E70425D4E70525D2E70325D0E7AA
:1027A000630344BF7368D960D2E7103639463046B8
:1027B0000DF1020201F0A6F914F4403F80460CD15D
:1027C0003946304604F02DF9214B9845DED130468C
:1027D0009DF8021001F0E4F9D8E74FF0000901ABD1
:1027E0003946304603AACDE90439CDE90199CDF83F
:1027F0000C9001F05BF8164B98428DD114F4003325
:1028000015D09DF8033084F48034C4F300448DF86F
:102810000E3039464B46304603AA8DF80C508DF8E1
:102820000D4001F0F1F80A4B9842CDD074E7CDE9A4
:10283000043339460DF10303304603AA039301F034
:1028400035F8F0E7803352F82330FFDE002584505E
:102850000000AD0BF0B5406801F01F04057B87B0A8
:1028600044EA45140569002D5FD0B2F5001F00F160
:10287000100506D12146284604F0D5F8002007B0FF
:10288000F0BD0027B2F5800F01AE0197776037D118
:10289000B3F1007F14BF052304238DF80430002317
:1028A000CDE904630393836823FA01F111F0010178
:1028B00018D1B2F1A07F15D104F01F03620903F112
:1028C000800338D11D4A52F82330DB070AD40DF1BA
:1028D000030632462146284601F014F9184B984267
:1028E00019D002962146284603AA00F0DFFF154BB7
:1028F00098421DD101222146284601F05DF9BDE72D
:10290000B3F1C06F05D0B3F1007F14BF01230223E0
:10291000C3E70323C1E73146284601F047F9094BD5
:102920009842DED06FF00B00A9E76FF08500A6E7B4
:102930006FF01500A3E751F82330FFDE0025845027
:102940000400AD0B0000AD0B2DE9F04740F2FF167F
:10295000594FDFF868C1DFF868E100EB810181427F
:1029600002D10020BDE8F087046814F4804FC4F35E
:10297000C325C4F3080340F08C80240EB34208BF83
:102980004FF0FF337D5D192C00F28680DFE804F004
:102990000D13191C1F251C84848484366084848450
:1029A00084848484848463787B7EC2F80C355C1CC8
:1029B0005BD10430D3E7C2F814355C1CF9D0002495
:1029C0005CE0C2F80835F2E7C2F81035F5E75C1CA8
:1029D000C2F80835EDD0002404E05C1CC2F80C35C8
:1029E000E7D001245FEA531859D14FF00109DFF80D
:1029F000CC8009FA03FAC8F80CA008E0C2F8083540
:102A0000002DDAD15C1CD4D000240625A146D0F8D4
:102A100000A00AF40048B8F1000F1CBF4FF00009F5
:102A2000012403F01F085B093FD10CEB8808D8F89C
:102A30000032CAF3412A03EA0E0343EA8A0343EA57
:102A4000052343EA090343EA4403C8F80032B0E728
:102A5000C2F80C35D4E7C2F86035B3F1FF3F046823
:102A6000A7D0C4F30044002CBBD05C091AD10124C8
:102A7000DFF8488004FA03F9C8F80890A146C6E7D1
:102A8000C2F86435E9E7C2F86835E6E7C2F86C35A4
:102A9000E3E76FF0150065E76FF0850062E700235C
:102AA000DB60FFDE00239B60FBE7002308F180086A
:102AB00053F82830F5E700BF7878000000258450EF
:102AC000F0F8FCFF2DE9F04104460D46476803F09D
:102AD000FCFF4FF0200868B9244B1B7853B16426E3
:102AE000606803F0A9FDD0B9012003F0E0FE013ECB
:102AF000F6D1F4E7EFF31186314688F31288BFF37D
:102B00006F8F606803F098FDA8B986F31188BFF352
:102B10006F8FEFE786F31188BFF36F8FDFE7EFF377
:102B20001186314688F31288BFF36F8F606803F017
:102B300083FD0028EED0BB6900201D706368BA6970
:102B40001B68C3F844250122C3F84825C3F82001B7
:102B5000D3F82041C3F85801D3F858019A6081F3A3
:102B60001188BFF36F8FBDE8F08100BFE90F00202F
:102B7000F7B50546426813691168C1F82435137D1D
:102B8000507D927D03431343C1F86C356E68D6E9DE
:102B9000004313F0010348D02F6907F1080000F04B
:102BA000D5FC304B98425AD1387A04F10C0204F526
:102BB000907103F07EFE387A012707FA00F000F0EA
:102BC000BFFC0823C4F80035B369C4F844350023BA
:102BD000C4F84835A760D4F85831002BFBD0002149
:102BE000C4F800156B6801AADC68204603F0F7FC06
:102BF000002805DB019B226819791868FFF7A4FEFD
:102C000008216A681368C3F80015117A51B9D269AE
:102C1000C3F834250122C3F83825C3F81011D3F8BE
:102C200010111A60002003B0F0BD0822C4F800257E
:102C3000B269C4F84425C4F848350123A360D4F828
:102C40002031002BFBD00023C4F82031D4F82031F0
:102C50000123E3604FF48073C4F80433BBE76FF0E3
:102C60000400E0E70000AD0B0123834070B5DC43B6
:102C70000B4AD2E8EF1F01EA0405C2E8E65F002E26
:102C8000F7D14FF4803282400648C0F80823BFF3E2
:102C90005F8FBFF36F8F0B4214BF0120002070BD08
:102CA000B80E00200050015070B40E4922F07F464B
:102CB000D1E90034D01AC31844F10004C1E900344A
:102CC000A6F50013B3F5400F09D2074B1B681A0A8B
:102CD0001B069C19054B42F10005C3E9004570BC79
:102CE00001F064B920010020BC0E00202801002062
:102CF000D9B101230D4A8340D2E8EFCF4CEA030C4F
:102D0000C2E8E1CF0029F7D14FF48033084A83406D
:102D1000C2F80433074BD3E8AF3FC340DB0742BFE1
:102D20004FF40012044BC3F800217047B80E002086
:102D300000500150B40E002000E100E00D4B186877
:102D4000010A0006BFF35F8F0B4BD3F80435181848
:102D500041F10001B3F5801F0AD2084BD3E90023EB
:102D6000904271EB030303D210F1807041F1000136
:102D7000704700BFBC0E0020005001502801002009
:102D80002DE9F04F85B016461F4604469DF840A039
:102D9000FFF76AFF0190FFF7D1FFB04271EB070325
:102DA00052D23B4B301A67EB0101984271F100019E
:102DB0004DD2384B03EB0413D3E902239F4208BFE3
:102DC000964258D04FF48038334908FA04F8204628
:102DD00026F07F4BC1F8488303F07DFC4FF00309D8
:102DE000584604F15005AD00ADB205F1502504F58B
:102DF000A87305F580350293029A20F07F4341F8CD
:102E00002230C1F84483D1F80435244AC01A03386B
:102E100020F07F4090422ED9286868B1D1F804355F
:102E2000A3EB0B0020F07F40B0F5000F039322D9F5
:102E3000204603F050FC039BBAF1000F07D109EBC9
:102E4000030009F10109D7E7BAF1000F09D06FF0CB
:102E5000150520460199FFF74BFF284605B0BDE850
:102E6000F08F01230E4AA340D2E8EF0F1843C2E8C7
:102E7000E10F0029F8D107490E982301C8500F9B94
:102E800001EB04120025C2E902675360E1E700BFCD
:102E9000010080001001002000500150FDFF7F0064
:102EA000B40E00207FB500254FF0FF304FF0FF310A
:102EB000194C1A4B0226C4F80833C4F84833184B8F
:102EC000C4F80855C3E902014FF480334FF40012EF
:102ED000C4F80433134B0121C4F804631520C3F86C
:102EE00080212A46FFF744F91520FFF711F9012345
:102EF0000D4AA360236013600C4B0D4A00932846D3
:102F00000023CDE90155FFF73BFF3046FFF7C4FA38
:102F1000284604B070BD00BF0050015003000F00F0
:102F20001001002000E100E0B80E0020A92C0000F4
:102F3000FFFF7F002DE9F7432E4BD3F804239007C2
:102F40000BD5D3F8042142B10022C3F804212A4A48
:102F5000D3F80431136801331360264AD2F80433DE
:102F6000D90326D5254BD3E8EF1F21F00100C3E894
:102F7000E40F002CF7D1CB0702D4D2F84031C3B113
:102F800000251C4CC4F84051D4F84031FFF7D6FE60
:102F9000EFF31182202383F31288BFF36F8F184B56
:102FA000D3E90267B042B94106D282F31188BFF378
:102FB0006F8F03B0BDE8F0834FF0FF38D3E9001006
:102FC0004FF0FF391D60C3E902894FF48033C4F824
:102FD0004833C4F84051D4F8403182F31188BFF32C
:102FE0006F8F0029E5D0009032463B46284688473F
:102FF000DFE700BF00500150BC0E0020B40E0020DF
:103000001001002030B5431C124C85B005D084421D
:10301000A8BF0446012CB8BF0124FFF78FFE0E4B5A
:103020000C4DD3E90013401AB0F5000F0FD222184F
:10303000AA4228BF2A46002052180849CDE90100BB
:10304000009143F10003FFF79BFE05B030BD2A4617
:10305000F1E700BFFFFF7F0020010020A92C000046
:1030600008B5FFF76BFE024B1B68C01A08BD00BF16
:1030700020010020012310B5074C15206360FFF7E5
:1030800055F84FF40012054BC4F80833C4F8483320
:10309000034BC3F8802110BD0050015003000F0006
:1030A00000E100E040EA0103C3F30E0330B58BB941
:1030B00040F21515094CC90BC0F3C730994201D134
:1030C000002030BDC218D2B202F5C07244F82250BE
:1030D0000133F3E76FF01500F3E700BF0030005055
:1030E00030B5816885B0103921F00704054603F03A
:1030F00051F810220146684603F0E6F810226846AF
:10310000064903F0D6F810236A462146284603F004
:103110000BF8003818BF012005B030BD4272000026
:1031200030B50D46816887B0102302AA10390446D5
:1031300002F0E5FF002802DA012007B030BD1022BE
:10314000204602A903F0F2FA00283AD110221E49C3
:1031500002A803F09EF800280CBF012302232B7065
:10316000204603F0CFFA012301460DF10702204665
:1031700002F0C5FF0028DFDB9DF80730204603F092
:103180000F021B096A702B7101220DF1070103F078
:10319000CDFA10B96B78042B03D901236B7000238F
:1031A0002B71A2682046183A22F00702083AA91C9F
:1031B00003F0CFFA0028BFD12046E91C03F022FB20
:1031C000BBE70323CBE700BF42720000F0B5354FE9
:1031D00085B046000546694657F8260003F018FBFF
:1031E000044610B1FF2005B0F0BD013657F82600A7
:1031F00002A903F00DFB012837D12A4649212A48AC
:1032000002F06FFF294B8DF80C40029300229DF8CD
:1032100000609DF80870264C3146207803F078FA5B
:1032200050B33946607803F073FA28B3A378042BBF
:1032300003D09DF8031099421ED1E378042B03D0EC
:103240009DF80B10994217D12379042B10D1627984
:10325000022A1DD1174B18482A46492102F041FF86
:103260006079831E022BBED9BCE70028CED0B9E717
:103270009DF802109942EAD00132032A04F10604B3
:10328000CAD10E482A46492102F02BFF0120AAE7A5
:10329000032A05D00A4B0B49042A08BF0B46DAE77C
:1032A000094BD8E790700000B778000003010303D2
:1032B0004C7900009978000002790000267900001E
:1032C0009E780000B07800009478000008B5EFF315
:1032D0001083012B0C4A07D1126ABFF34F8F511C88
:1032E0004A424A41104608BD03F0BFFA00B172B627
:1032F000126ABFF34F8F531C5A425A4103F0B5FA7A
:103300000028EFD062B6EDE70080FF0008B5EFF3CC
:103310001083012B0B4A06D1D269BFF34F8F02F005
:103320000102104608BD03F0A0FA00B172B6D269DE
:10333000BFF34F8F02F0010203F097FA0028F0D09C
:1033400062B6EEE70080FF0010B503F08EFA30B1F0
:103350004FF050230022C3F81421C3F8182103F0C2
:1033600093FA28B10122524BC3F8382AC3F87825C2
:103370004FF47F02D2F83031D2F83421BFF34F8FAF
:10338000C3F30B03092B05D1012A1EBF0122484BB1
:10339000C3F8782503F078FA18B10E22454BC3F82C
:1033A000E42E03F062FA30B10022414BC3F80C273F
:1033B0000122C3F810270022D30003F57F03D3F8BE
:1033C0000013BFF34F8F013108D0D3F8001301323F
:1033D000D3F80433B2F5807F0B60EDD1EFF31084A6
:1033E000FFF794FF00284DD0BFF34F8F324BD3F837
:1033F0000024012AFBD1C3F80425D3F80024012AB4
:10340000FBD1012C03D003F030FA00B172B6FFF704
:103410007DFF58B1294AD36923F00103D361BFF37B
:103420004F8F254AD2F80034012BFBD1FFF74EFF16
:1034300068B1224A136A23F0FF0343F020031362AA
:10344000BFF34F8F1C4AD2F80034012BFBD1012C63
:1034500003D003F00AFA00B162B60022164BC3F89B
:103460000425D3F80024012AFBD1BFF34F8F144960
:10347000144BCA6802F4E0621343CB60BFF34F8F72
:1034800000BFFDE7FFF722FF0028ADD10C4BD3F8BA
:103490008C2042F44062C3F88C20D3F8882042F498
:1034A0007002C3F88820BFF34F8FBFF36F8F10BD3A
:1034B0000040005000A00350009003500080FF0027
:1034C00000ED00E00400FA0530B50468ACB1B4FAD0
:1034D00084F30122C3F11F03DBB29A4024EA020203
:1034E000D0E8EF5FA54204D1C0E8EC2FBCF1000F9B
:1034F000F6D1EAD102480B7030BD0248FCE700BFAC
:103500000000AD0B0200AD0B10B50368CB40DB072C
:1035100010D401238B40026843EA0201D0E8EF4F48
:10352000944204D1C0E8EC1FBCF1000FF6D1F2D1F7
:10353000014810BD0148FCE70000AD0B0400AD0BD5
:10354000014BC3F804057047007001500146014863
:1035500000F0B6B81C000020044B1A7922B90122F1
:1035600018601A710248704702487047C00E002068
:103570000000AD0B0C00AD0B08B5084B1B6833B158
:103580000520FEF7E7FD10B90520FEF7C1FD4FF05D
:1035900050230122C3F8182508BD00BFC00E00202B
:1035A00010B510B1012847D010BD4FF05023D3F80B
:1035B0001814D3F81824C90322D502F00303022BF0
:1035C00005D0012B02D0002003F07AF901234FF03F
:1035D00050220220C2F8183508224FF482730021CD
:1035E00003F1502319601C68012402F15022146079
:1035F000164A126822B34FF05023C3F80403D3E7EE
:10360000D3F81424D207E1D5D3F81C2402F0030226
:10361000013A012AD7D80D4A12681AB10222C3F81A
:103620000423C1E7D3F80421002AFBD00022C3F809
:103630000421D3F80431B7E700224FF48073CEE7BA
:103640001A68002AFCD019601B68ADE7C00E002084
:10365000F8B54FF0502301250026D3F80443174F47
:1036600004B9F8BDB4FA84F0C0F11F00830003F57B
:1036700080739BB203F1502305FA00F21968D2B2AD
:1036800024EA02040029EBD01E601B684FF050238F
:10369000022AC3F808230DD1D3F81814D3F818144C
:1036A00001F00301012905D1C3F81825C3F804234B
:1036B0009960D5E73B68C0B29847D1E7C00E0020BB
:1036C0000079024B03EB0010FFF7FEBE2400002040
:1036D000036803F01F025B090260024818BF002064
:1036E000704700BF0025845070B50D4C00F10803F1
:1036F00034F813300546DA050E4607D5C3F34323E5
:1037000004EBC302526854F833309847A3682BB1D6
:1037100031462846E268BDE87040184770BD00BFDA
:1037200034000020024611F0010004D003490B6A66
:1037300013600B6203B90020704700BF002584505E
:1037400010B4134AC0B2083032F81030D9051CD575
:10375000C3F3432123F4F85322F81030002002F180
:103760000E0434F8023F13F4807F03D0C3F34323E5
:1037700099420AD001302028F3D1002342F8313099
:1037800004485DF8044BFFF7BFBE5DF8044B70477B
:10379000340000208C000020F0B5054600200126F2
:1037A000044607468C420BD1114BD3F87C2132B131
:1037B0000022C3F87C21D3F87C3140F00040F0BDFA
:1037C000E3B29B0003F580729B0806FA03F31D42E7
:1037D0000BD002F1A04202F55042D2F800C0BCF179
:1037E000000F02D01760126818430134DAE700BFF7
:1037F00000D00050CBB2024608460D49083331F8DC
:103800001330990611D599070FD4012110685B0B6D
:103810009940C0F80813126802EB8303D3F810250F
:1038200022F00302C3F810257047002103F0EAB824
:1038300034000020F7B5194ECDB2083536F81530F2
:103840000746DB070C4626D5FFF7D4FF36F81530C0
:103850009A0608D55A0B3B6803EB82030022C3F893
:103860001025C3F810252046FFF76AFF002301A8A2
:1038700026F815300194FFF72BFF019B00EB830026
:10388000D0F80022064B134043F00203C0F8003288
:10389000044803B0F0BD0448FBE700BF340000203B
:1038A000F0F8FCFF0000AD0B0400AD0B2DE9FF416B
:1038B000136807460C461646FBB1DFF84481CDB2CB
:1038C000083538F8152002F02202222A22D00022E0
:1038D0002046CDE900228DF80E208DF80F200DF145
:1038E0000E010DF10F0203F044F838F8153023F003
:1038F000020343F0010328F8153073684BB31A78BC
:103900005868DFF8FCC0E3B208333CF813108D07A9
:1039100002D5B0B138481FE021F02001C904C90C1C
:103920002CF8131068B1032AF4D870683D68406819
:1039300090F800E005EB8E058AB9C5F81025C5F8AA
:1039400010253CF8131021F01C0141EA82022CF8EA
:103950001320B3682BBB294804B0BDE8F081D5F82B
:10396000108541EA4E3128F00308C5F810853D68FE
:1039700041F0200105EB8E05D5F810052CF8131049
:1039800020F4473020F44070C5F810052002D5F827
:10399000107500F4F85040EA02403843C5F81005AD
:1039A000CFE72046D3E90067FFF7CAFE002ED2D04A
:1039B000134DD5E90023964203D19F4201D1002245
:1039C00009E010480DF10F01FFF77EFD0B4B984207
:1039D000C2D19DF80F20E4B205EBC20308345F604A
:1039E00035F8143045F8326043EA422343F48073DB
:1039F00025F81430AFE700BF0400AD0B0000AD0B9D
:103A0000340000208C0000202DE9FF4107460C46C1
:103A10001E4612B3DFF8D480CDB2083538F8153021
:103A2000980701D4990621D413F01C0F02D05378C3
:103A3000012B1BD001238DF80F3000232046CDE948
:103A400000230DF10F01931C013202F092FF38F8B0
:103A5000153043F0030328F81530002E44D0234DD1
:103A6000E1B2083135F81120930703D4204804B09F
:103A7000BDE8F081002096F800E03B6822F02002CB
:103A8000D20403EB8E03D20CC3F8100525F81120E5
:103A9000C3F8100596F801C04FEA8E08BCF1000F7C
:103AA00022D03868B6784044D0F810354FEA0C4C34
:103AB00023F4981323F4F853C0F81035230203F4C9
:103AC000F8530CF4403C3605D0F8107543EA0C036B
:103AD00006F48016334342EA4E323B4342F0200262
:103AE000C0F8103525F811200248C0E73400002046
:103AF0000400AD0B0000AD0B014BC3E9021270478F
:103B000034000020054BC9B2083133F81130990652
:103B100043BF5B0B0248137002487047340000201B
:103B20000000AD0B0400AD0B70B5154D064695F8C1
:103B300060401CBB2146402205F1100002F0C4FB8E
:103B4000214630682E6D8E420ED10023C0F87C31A4
:103B5000D0F87C3140F30730FEF7DAFA0123094848
:103B600085F86030AB6570BDCBB29B0003F5807209
:103B70007C2B04BF845083580131E4E70248F2E70C
:103B8000340000200000AD0B0C00AD0B034B93F88C
:103B90006000003818BF0120704700BF34000020CB
:103BA0000148FFF7B1BC00BF880000200148FFF7C3
:103BB0008BBC00BF8800002073B503680C46D3F8A7
:103BC00004130029A4BF4FF00041C3F804131E4999
:103BD000E3B2083331F8133099061AD513F0020610
:103BE00017D15B0B05689C0004F580716E50695815
:103BF00001682144D1F8104544F00104C1F8104592
:103C00002AB10122016802FA03F3C1F8043302B0B9
:103C100070BDC3F38203042B11D0052B11D001A872
:103C20000194FFF755FD019A0369D34003F00103A6
:103C3000991C204602B0BDE8704002F0E3BE0321AB
:103C4000F7E70221F5E700BF340000202DE9F34734
:103C5000534B544FD3F80403396DC0B240F00040C9
:103C6000FFF79AFD051E18DA00236846F96D0093E8
:103C70004FF00108FFF756FD97F85C30DA0757D48C
:103C8000396D4FF00040FFF787FD6846F96DFFF78B
:103C900049FD0028F0D125F000450124002D66D112
:103CA00002B0BDE8F08794FAA4F4B4FA84F4E00812
:103CB00004F1080337F8139004F007021DF80030F0
:103CC00008FA02F223EA02030DF8003001A8019479
:103CD000FFF7FEFC019B4FEA9901803350F8236007
:103CE000C9F3820A4B07D146C6F3014624D52046C4
:103CF0005146FFF7F9FC01A80194FFF7E9FC019B8D
:103D0000F6B2803350F82330C3F301439E4207D10B
:103D10000021204602F076FE3146204602F072FE77
:103D200001A80194FFF7D4FC019B08FA03F3036296
:103D3000009C002CB7D1A3E7022E0CD10321204612
:103D400002F060FE0AF00503012BE9D14946204646
:103D5000FFF7CAFCE4E70221204602F053FEBAF165
:103D6000030FF3D0032EDBD1BAF1020FEDE795FA82
:103D7000A5F3B3FA83F304FA03F29B0003F1A04323
:103D800003F55043D3F81005D3F81015C0F3042001
:103D9000C1F3014125EA0205FFF7A6FC7EE700BF5B
:103DA00000D00050340000200022034BC3F88425CB
:103DB000C3F80425704700BF00900350044AD2F8AE
:103DC0000834DB07FBD50160BFF35F8F704700BF8E
:103DD0000090035008B5C0F30B0383B90222094BCE
:103DE000C3F88425C3F804254FF0FF320260D3F8EE
:103DF0000024D207FBD5FFF7D7FF034808BD0348CF
:103E0000FCE700BF009003500000AD0B0A00AD0BB3
:103E1000012208B5054BC3F88425C3F80425FFF734
:103E2000CDFFBDE80840FFF7BFBF00BF00900350C3
:103E300038B5094B53F82040013053F82050A542C3
:103E400000D838BD636823B1204602F021FE083453
:103E5000F5E723689847FAE798700000012208B553
:103E6000094B03201A70FFF7E3FFFDF78BFF02F009
:103E70002BFE0420FFF7DCFFFCF7CCFA034A137B90
:103E800023F00103137308BDE90F00203001002067
:103E900008B50348034A0021121A02F011FE08BDBA
:103EA00010010020EC0F002008B50020FFF7C0FF34
:103EB000164B03F5006282F3088883F30A88002515
:103EC000E023134C84F82230E57725766576A576D5
:103ED00084F82050636A43F4E023636284F823503B
:103EE000FEF798F8FEF7AAF94FF0FF33A362E362FA
:103EF00002F0A8FD0120FFF79BFF0220FFF798FFCB
:103F00002B462A4629460348FEF776F9F00F002093
:103F100000ED00E05D3E0000074808B5074A08498B
:103F2000121A02F0CFFDBDE808400648064A0749CC
:103F3000121A02F0C7BD00BF000000200A010020D5
:103F4000607900000000002000000020607900007F
:103F5000024B1868984208BF002070479800002064
:103F6000034B1B680BB9FFF77BB80020704700BFFD
:103F7000C80E002030B570B10B4B5B6898420AD078
:103F8000036843B1D3E90421D0E90445121941EB98
:103F90000501C3E90421D0E9003213605A6000230F
:103FA000C0E9003330BD00BF980000202DE9F04784
:103FB000EFF31185202383F31288BFF36F8F244F13
:103FC0004FF0000838604FF00009FFF7C1FF214EA5
:103FD0003B68D6E9001E4FEAE37C50B1D0E90442C9
:103FE000A3427CEB020A16DAE41A62EB0C02C0E987
:103FF000044200245B184EEB0C02C6E900323C6020
:1040000002F069FD2146FEF7FDFF85F31188BFF33D
:104010006F8FBDE8F08761184EEBE473C0E9048947
:10402000C6E90013FFF7A6FF85F31188BFF36F8F72
:1040300083689847EFF31185202383F31288BFF339
:104040006F8F3B681B1B3B60FFF782FFC0E700BF21
:10405000C80E0020B001002010B50A4C23681BB127
:1040600001232360002010BD00F046F80028F7D09F
:104070000138062803D8044B53F8200010BD03482C
:1040800010BD00BFCC0E0020B0700000FE8FFFFFFF
:10409000BFF34F8F0549064BCA6802F4E062134331
:1040A000CB60BFF34F8F00BFFDE700BF00ED00E026
:1040B0000400FA0530B44FF0FE320025074B084CDF
:1040C00008494968C3F80024C3F80424C3F8082445
:1040D000C3F80C24C4F8005530BC084700108450C5
:1040E00000008450A0000020024BD0E90012C3E978
:1040F00000127047A000002038B500F02FF820B162
:10410000032400F063F8204638BD00F031F898B978
:1041100000F0ACF898B90F4DD5F828391B0EF02BEC
:1041200008D1D5F8242A0C4B9A420AD0072400F073
:1041300017F8E6E70624FAE70424204638BD0024F1
:10414000F5E7012000F092F804460028F7D1C5F801
:104150000C0AD8E7001084500000E02000207047CF
:1041600000207047014BC3F8040A704700108450C8
:1041700010B5114800F048F800B110BD0F4800F02C
:1041800043F80028F9D10E4C204600F03DF80028F5
:10419000F3D10C4B0C481C6000F036F801460028A7
:1041A000EBD100F02DF8044608B1204610BD00F018
:1041B0003FF82046FAE700BFB8000020B400002016
:1041C000B0000020A8000020AC00002008B508487E
:1041D00000F024F8074800F021F8074800F01EF826
:1041E000064800F01BF8BDE8084000F00BB800BF1F
:1041F000B8000020B4000020B0000020AC00002077
:1042000000207047704700BF08B5034B02681B6869
:1042100010689847002008BDD000002008B5034B67
:1042200002685B6810689847002008BDD000002035
:1042300070B5094C094D2069AB68984718B1084B17
:1042400008485B6898470021074AEB6811602069BD
:10425000BDE87040184700BFBC000020D00000201F
:10426000A0000020CC700000D00E0020F8B51A4D40
:104270001A4E0446B26828699047E8B9184F3B685F
:104280004CB1A3B1012B19D0013B3B602869F36805
:1042900098470020F8BD43B90121124AC2F8001521
:1042A0001149D1F81029002AFBD101333B60F36892
:1042B000286998470020F8BD0C48F8BD0A4AD2F892
:1042C0001039002BFBD1074A6FF07E40C2F8003551
:1042D000FFF748FF3B68D7E7BC000020D000002074
:1042E000D00E00200000845000108450E98FFFFFA2
:1042F00010B5044650B1636813F0685F05D0064AF4
:10430000934202D000236260236010BD034B044837
:104310005B689847EFE700BF2C5F5CA9A000002016
:10432000EC700000C8B143680D4A934213D013F0FB
:10433000685F0ED0012350E8002F194640E8001CAA
:104340009CF0000FF7D1012AF5D0BFF35F8F00205A
:10435000704704487047044870476FF4E040704766
:104360002C5F5CA9E98FFFFFEA8FFFFF034680B156
:10437000426809498A420AD012F0685F05D0BFF34B
:104380005F8F002210461A60704704487047044847
:1043900070476FF4E04070472C5F5CA9E98FFFFF26
:1043A000EA8FFFFF10B5044620B10023034A2360C3
:1043B000626010BD0248FFF77DFEF6E73A00003A62
:1043C0001471000030B10268034B04489A4208BFE0
:1043D0000020704702487047DD55AABB8208F000F4
:1043E0007108F00038B50D460446B0B1A022002196
:1043F000043002F0A2FB95B10822294604F16400C2
:1044000002F0A1FB082205F1200104F1840002F072
:104410009AFB0020034B236038BD0348FCE70348A8
:10442000FAE700BFDD55AABB7108F0008308F00071
:104430002DE9F74305460E4699461146FFF7C2FFA0
:104440000446002840F08480002E00F0858000297A
:1044500000F08480B9F1200F40F0828005F144041F
:10446000082205F10408204602F06DFB05F124073F
:1044700008223146404602F066FB06F12001082280
:10448000384602F060FB02A941F8049D4FF48070A9
:1044900002F04DFB002865D14FF48073324A0121B0
:1044A000136093600823314A00F034FB0121052397
:1044B00008462F4A00F02EFB0823424601211C200B
:1044C00000F028FB08233A460121032000F022FBDC
:1044D000224608230121022000F01CFB0823254A64
:1044E00001211A2000F016FB0523234A01211B207D
:1044F00000F010FB0823214A0121142000F00AFBE0
:1045000008231F4A0121152000F004FB082305F1B0
:1045100064020121162000F0FDFA082305F184024F
:104520000121172000F0F6FA0823164A01210B207A
:1045300000F0F0FA00F04AFB0446019800F0D8FAC7
:10454000114B002C18BF1C46A421284602F0F7FA94
:10455000204603B0BDE8F0830C4CF9E70C4CF7E7BC
:104560000C4CF5E7084CEFE7901084507871000090
:10457000F071000038710000DC7100009C710000D7
:10458000BC710000587100008408F0007608F0004B
:104590008008F0008108F000C2690C4B1A60826943
:1045A00043F8042C426943F8082C026943F80C2CA8
:1045B000C26843F8102C826843F8142C426843F810
:1045C000182C026843F81C2C704700BF5C168450FE
:1045D0000C4B1B68C3610C4B1B6883610B4B1B6846
:1045E00043610B4B1B6803610A4B1B68C3600A4B9A
:1045F0001B688360094B1B684360094B1B680360A1
:10460000704700BF5C16845058168450541684506E
:10461000501684504C1684504816845044168450CA
:104620004016845030B10268034B04489A4208BFD8
:104630000020704702487047DD55AABB0202F00017
:104640000002F00038B5044668B1051D7021284607
:1046500002F075FA28462022044902F06CFA002084
:10466000034B236038BD0348FCE700BF0472000021
:10467000DD55AABB0002F0002DE9F04385B01546D8
:104680006F46274B04460E460FCB87E80F002DB927
:104690004FF00009484605B0BDE8F0832046FFF71B
:1046A000C1FF81460028F5D1231D0193636AA3BB96
:1046B000236F8BB1C3F14008A84528BFA84604F179
:1046C000300031461844424602F035FA236F464422
:1046D00043442367A5EB0805226F402A06D104F165
:1046E0003001384600F0B4FB0023236705F03F0893
:1046F00035F03F0505D031462A46384600F0A8FB84
:104700002E44B8F1000FC3D04246314604F13000C8
:1047100002F011FAC4F87080BCE7DFF80890B9E73E
:10472000906E00000C02F0002DE9FF4104466F4638
:10473000134B0E460FCB87E80F002046FFF772FFA2
:104740008046B0B9CEB1636A251D01953BB90123FE
:10475000226F636204F13001384600F079FB2B468A
:10476000043E243453F8042B12BAA34246F8042F13
:10477000F8D1404604B0BDE8F081DFF80880F8E7E2
:10478000906E00000502F000084B1B681B0EF02B1A
:1047900008D1074B1A68074B9A4205D10020064BF7
:1047A000186070470520704706207047281984500C
:1047B000241A84500000E0200C1A8450002230B5E6
:1047C000134640F6FC754900023802F1A15404F585
:1047D000823490424FEA840402F10102CABF23608E
:1047E00025605B181E2AF0D1034A13600B44536006
:1047F000024B034A1A6030BD7810845084108450F4
:1048000020F80F001E4B30B51A4685B0196800918C
:104810000099CC07FAD500F1A15000F58230800054
:10482000016813680193019BD807FAD5154B164C04
:10483000186820231F3090FBF3F0144D0138002836
:1048400010DA00230130400153B14FF00042A0F1D3
:104850002001134204D1013888424FEA5202F8D1B4
:1048600005B030BD13680393039BDB07FAD54318EB
:1048700023602B680293029B002BE3D10138DEE713
:10488000B4108450AC108450E4108450DC10845078
:10489000F0B51D6885B001F01F040DB91F2C28D19B
:1048A000174D2E462F680197019FFF07FAD500F19B
:1048B000A15000F582308000006835680395039DA3
:1048C000ED07FAD51F2C00EB611018BFC9430D4D41
:1048D00018BF01F01F0128600B4800680290029881
:1048E0001CBF00FA01F111604FF0000108BF106019
:1048F000196010684300C00F136005B0F0BD00BF21
:10490000B4108450E4108450DC1084500C4B8901A6
:1049100018603F3020F03F004030586099600948EF
:10492000D9601961596199611C3382B019600268BC
:104930000192019AD207FAD5196002B0704700BF00
:1049400090108450B410845038B5A0F12003B3F512
:10495000426F05462CD88F2826D800F1470300F176
:104960006604DB064FEA541400D0013464013F347E
:10497000A409013411B1A1421AD30C464FF480505E
:10498000E300B0FBF3F0202828BF202002B1106024
:104990000122084B21461A60FFF710FF28462146E6
:1049A000FFF7B4FF002038BD00F11F046409DDE704
:1049B0000148F8E71C1884502221F000464BF0B55E
:1049C0001D4689B01C680194019CE407FAD5434B4D
:1049D000002413449B001A680B181E2B88BFC0F1DB
:1049E0001E011F320B1852095343B3F5806F84BF69
:1049F0004FF48061B1FBF2F1274688BF091ADFF856
:104A0000E4E000F1A150DFF8E0C000F58230A142FF
:104A100033DC2B680493049BDB07FAD5304B1B680F
:104A2000296805910599CF07FAD52E4C2E492360A8
:104A300000231E46934203F1010040D1194600268F
:104A400020F0010228488A423CD82968069106993C
:104A5000CE07FAD525490968286807900798C00746
:104A6000FAD5216000210C461F488B422DD1002031
:104A70001D499A422CD809B0F0BD2B680293029BC5
:104A8000DB07FAD503199B001B682E680396039E6B
:104A9000F607FAD5CEF800300023934203F1010364
:104AA00006D1164623F00103B34204D80134AEE721
:104AB000CCF80070F1E7CCF800700136F4E70E6036
:104AC0000346B7E706600131BDE704600131CCE77A
:104AD00008600133CDE700BFB410845024042114D2
:104AE0007C108450D4108450D81084507810845096
:104AF00008B540B1202801464FF0070228BF202109
:104B00000020FFF75BFF0022014B1A6008BD00BFC9
:104B10001C188450F0B5294D85B02C462E6800969F
:104B2000009EF607FAD500F1A15000F58230800012
:104B30000568206801900198C707FAD52048214FE1
:104B4000056002EB8306B24229D100275A1C1D4E94
:104B500022F001029A4227D823680293029BDE07C3
:104B6000FAD5194B0B449B001B681F335B099A4213
:104B700013D2216803910399C907FAD5002115447E
:104B8000056008469B1A0F4A8B4210D800205A1C19
:104B90000C4922F001029A420CD805B0F0BD52F83F
:104BA00004CBC7F800C0CEE737600133D2E710600E
:104BB0000131E9E708600133EDE700BFB41084502C
:104BC000D4108450D8108450240421142DE9F041CD
:104BD000814BA0B01D68986820331E461A68019268
:104BE000019AD707FAD57D4B7D4A1A603268029246
:104BF000029AD407FAD57B4A1A607B4A1446116898
:104C000003910399C907FAD5784A1168C1F3402185
:104C100037680497049FFF07FAD5754F1F60276810
:104C20000597059FFF07FAD51768002900F0CF8088
:104C3000B90540F1CC80316806910699CF07FAD5C5
:104C40006C491960216807910799C907FAD511685D
:104C5000C1F3402137680897089FFF07FAD5664FD0
:104C60001F6027680997099FFF07FAD51268002976
:104C700000F0AF80910540F1AC8032680A920A9A48
:104C8000D207FAD5564A1A6032680B920B9AD707A8
:104C9000FAD55A4A1A6031680C910C99CC07FAD5AA
:104CA0005749196031680D910D99C907FAD55549D1
:104CB000196031680E910E99CF07FAD552491960E3
:104CC00031680F910F99CC07FAD550491960504BB4
:104CD0001E46196810911099C907FAD53F4C4D4BE3
:104CE000236033681193119BDB07FAD54A4B23608D
:104CF00033681293129BDF07FAD5484B23603A4B77
:104D00009846196813911399C907FAD5324F38603C
:104D100033681493149BDB07FAD52260336815932C
:104D2000159BD807FAD53E4B236033681693169B24
:104D3000D907FAD53B4B236033681793179BDA07E3
:104D4000FAD5394B236033681893189BDB07FAD5E3
:104D5000364B236033681993199BD807FAD5344B27
:104D6000236033681A931A9BD907FAD5314B236015
:104D700033681B931B9BDA07FAD52F4B236000F097
:104D80001DFC08BBD8F800301C931C9BDB07F9D531
:104D90003D6033681D931D9BD907FAD5274B2360CF
:104DA00033681E931E9BDA07FAD5254B2360D8F88B
:104DB00000301F931F9BDB07F9D50C4B1B6813F4C6
:104DC000805F204B08BF184620B0BDE8F0811E4828
:104DD000FAE71E48F8E700BF901084508010845016
:104DE00000100251C01F7229B410845088108450E2
:104DF000C0CF0129C01F0E29C03F00294001024930
:104E0000003184A800001649400108A180440888A8
:104E1000B0108450C044708880077A41C0077E413A
:104E200000006A498006164940006E4900020021D0
:104E300000822021408220218082242140A161A182
:104E400000C861510308F1000108F1000208F100F7
:104E5000324B2DE9F74F80469246994644681A68CE
:104E6000002AFCD12E4B9B461A68002AFCD14FF039
:104E7000FF30019100F094FC802000F097FC0123AA
:104E80000720284A284DA2F59E722B60C2F83C01EB
:104E90001360636A254F264E3B60A36A2046336049
:104EA000D8F8003042F8043CD8F808309847019907
:104EB000D9F80030002BFBD1BAF1000F20D1042229
:104EC0001C4B1A60D9F80030002BFBD1DBF800A096
:104ED000BAF1000FFAD1D8F80C30204698473B6859
:104EE00063623368A362144BC3F800A0C3F844A103
:104EF000D9F80030002BFBD12B6003B0BDE8F08F58
:104F0000236A4020012B04BF0B4A13600B4B19602E
:104F1000C3F804A000F050FCD4E700BF101984507F
:104F2000201C84500019845018188450CC178450C9
:104F3000D0178450C817845084168450281C84507D
:104F4000544B10B5194698B01A680192019AD207CD
:104F5000FAD5514B514A1A600A680292029AD40754
:104F6000FAD54F4A1A600A680392039AD007FAD515
:104F70004C4818600A680492049AD207FAD54A4A43
:104F80001A600A680592059AD407FAD5474A1A604A
:104F90000A680692069AD207FAD5454A1A600A6844
:104FA0000792079AD407FAD5424A1A600A6808920B
:104FB000089AD207FAD5404A1A600A680992099AF3
:104FC000D407FAD53D4A1A600A680A920A9AD207AB
:104FD000FAD53B4A1A600A680B920B9AD407FAD5A5
:104FE000384A1A600A680C920C9AD207FAD5364AE7
:104FF0001A600A680D920D9AD407FAD5334A1A60DE
:105000000A680E920E9AD207FAD5314A1A600A68D7
:105010000F920F9AD407FAD52E4A1A600A68109296
:10502000109AD207FAD52C4A1A601A4B19461C68F6
:105030001194119CE407FAD5174B18600868129078
:105040001298C407FAD51A600A681392139AD00707
:10505000FAD5124A1A600A681492149AD207FAD53D
:105060001E4A1A600A681592159AD407FAD51C4A86
:105070001A600A681692169AD007FAD5194A1A6069
:105080000A681792179AD207FAD5174A1A6018B009
:1050900010BD00BFB0108450801084500093652173
:1050A00000043190409665900083612100C3302157
:1050B00000C364900081619000461021008111219D
:1050C0000041442100C320290C4610C8008631212C
:1050D00000C3602140C1282940966521001331900A
:1050E00040962529594614C840043249494B10B509
:1050F000194694B01A680092009AD207FAD5464B26
:10510000464A1A600A680192019AD407FAD5444ABD
:105110001A600A680292029AD007FAD541481860CC
:105120000A680392039AD207FAD53F4A1A600A68BE
:105130000492049AD407FAD53C4A1A600A68059288
:10514000059AD207FAD53A4A1A600A680692069A70
:10515000D407FAD5374A1A600A680792079AD20725
:10516000FAD5354A1A600A680892089AD407FAD51F
:10517000324A1A600A680992099AD207FAD5304A67
:105180001A600A680A920A9AD407FAD52D4A1A6058
:105190000A680B920B9AD207FAD52B4A1A600A6852
:1051A0000C920C9AD407FAD5284A1A600A680D9214
:1051B0000D9AD207FAD5264A1A600A680E920E9AFC
:1051C000D407FAD5234A1A600A680F920F9AD207B9
:1051D000FAD5214A1A600F4B19461C681094109C8E
:1051E000E407FAD50C4B1860086811901198C407B1
:1051F000FAD51A600A681292129AD007FAD5174A9D
:105200001A600A681392139AD207FAD5144A1A60E0
:1052100014B010BDB010845080108450809065216F
:1052200000040990409665908080612180200821CB
:10523000802064900081619000461021008111213E
:105240000041442180202029024610C800860921FF
:1052500080206021402128294096652140962529FB
:10526000594614C8504B10B51C4696B01A680192A6
:10527000019AD207FAD54D4B4D4A1A602268029224
:10528000029AD207FAD54B4A1A604B4A42EA80404A
:1052900022680392039AD207FAD518602268049212
:1052A000049AD007FAD5454A1A60A2F5800242EA6C
:1052B000814122680592059AD207FAD519602268C1
:1052C0000692069AD007FAD53D4A1A6022680792DC
:1052D000079AD107FAD53B4A1A6022680892089AC1
:1052E000D207FAD5384A1A6022680992099AD0077B
:1052F000FAD5364A1A6022680A920A9AD107FAD574
:10530000334A1A6022680B920B9AD207FAD5314AB7
:105310001A6022680C920C9AD007FAD52E4A1A60AD
:1053200022680D920D9AD107FAD52C4A1A6022688C
:105330000E920E9AD207FAD5294A1A6022680F9265
:105340000F9AD007FAD5274A1A6021681091109950
:10535000C907FAD51A60144B1A46196811911199A8
:10536000C807FAD5114B204919601168129112999A
:10537000C907FAD51D491960116813911399CC0713
:10538000FAD50B491960116814911499C807FAD518
:1053900017491960116815911599C907FAD5154A69
:1053A0001A6016B010BD00BFB01084508010845039
:1053B0004004419000862929D81001C8401441902A
:1053C00040142129401465210034409000310C9094
:1053D000C0400C90C030202940960D900041609054
:1053E000031645C80086112100416021594644C872
:1053F0004014459040142D90264870B5054688B05D
:1054000004680094009CE607FAD5234C2348046006
:10541000234C44EA83432C680194019CE407FAD5A9
:105420000360930143EA824242F0104444F4C044D2
:105430002B680293029BDE07FAD504602B68039366
:10544000039BDB07FAD5174B03608B0143EA8141CD
:1054500041F0104343F4C0432E680496049EF607BF
:10546000FAD503602B680593059BDE07FAD5046027
:1054700041F058412B680693069BDC07FAD5016082
:1054800042F058422B680793079BDB07FAD502606E
:1054900008B070BDB0108450C02102298010845023
:1054A0008071009880611890354B8EB019461A684B
:1054B0000092009AD207FAD5324B334A1A600A6832
:1054C0000192019AD007FAD5304A1A600A6802920E
:1054D000029AD207FAD52E4A1A600A680392039AF2
:1054E000D007FAD52B4A1A600A680492049AD207A8
:1054F000FAD5294A1A600A680592059AD007FAD5A2
:10550000264A1A600A680692069AD207FAD5244AF1
:105510001A600A680792079AD007FAD5214A1A60DA
:105520000A680892089AD207FAD51F4A1A600A68D0
:105530000992099AD007FAD51C4A1A600A680A9299
:105540000A9AD207FAD51A4A1A6008680B900B9883
:10555000C007FAD51A600A680C920C9AD007FAD5DF
:10556000144A1A600A680D920D9AD207FAD5124AA7
:105570000E211A6000200D230F220EB0FFF73CBF52
:10558000B010845080108450804301294063392139
:10559000807001298020542100D13490C040349083
:1055A000C0302029C0530D9000413890832308C893
:1055B00080E3102100413821CF4308C801232DE9A1
:1055C000F04192B0CDE90333624B1D461A68059253
:1055D000059AD207FAD5604B604C2360604B1946A0
:1055E0001A680692069AD707FAD55E4B1A68D6044F
:1055F00000F1A8802A680792079AD007FAD55A4A7C
:1056000022600A680892089AD207FAD51E68C6F383
:105610000036002E40F098801220FFF7F3F807467E
:105620001320FFF7EFF887428CBF12201320FFF7FB
:10563000E9F8471EFFF738FF03AB01AA39461220ED
:10564000FFF726F904AB804602AA39461320FFF77C
:105650001FF900EB4800022832D003283ED0012871
:1056600074D12B680993099BDB07FAD53F4B236064
:105670002B680A930A9BD807FAD53D4B23602B6809
:105680000F930F9BD907FAD53A4B23602B681093E1
:10569000109BDA07FAD5384B23602B681193119BC6
:1056A000DB07FAD5354B2360013F25D5102319229E
:1056B00018210020FFF7A0FE304612B0BDE8F081AF
:1056C0002B680B930B9BD907FAD52D4B23602B68C6
:1056D0000C930C9BDA07FAD52A4BCFE72B680D9376
:1056E0000D9BDB07FAD5284B23602B680E930E9B8E
:1056F000D807FAD5254BC1E703AB01AA39461220DA
:10570000FFF7C6F804AB044602AA39461320FFF798
:10571000BFF810EB440402D1FFF712FCC4E7FFF717
:10572000E5FC022C08D0032C09D0012C10D1172144
:105730001620FFF797FDB7E715211420F9E70F2191
:105740000E20F6E7124EB7E7124EB5E7124EB3E75A
:10575000124EB1E7B010845000084A5180108450B6
:10576000B41084508810845000084E5100065A49E5
:1057700040065E49000442410014424940042E495B
:10578000000652494006564900063A4940063E493D
:105790000608F1000708F1000408F1000508F1000F
:1057A000014B1860704700BF081A8450014B186005
:1057B000704700BF041A8450034A13681842FCD093
:1057C000024A106018467047001A8450081A845024
:1057D00070470020704730B5836804468B421546F9
:1057E00085B00ED96368C068194401AA00F026FE8E
:1057F00028B96268019B9B1A2B60029B6B6005B005
:1058000030BD6FF02100FAE770472DE9F7430E46EF
:1058100017469946044628B94FF0FF38404603B072
:10582000BDE8F0830029F7D0002AF5D0CB680D89B8
:1058300038461D44042329460DEB030200F05FFCAB
:1058400080460028E8D146F60812BDF80410738996
:10585000914225D1BDF806109942DDD10423384686
:105860000DEB0302294400F04AFC0028D4D146F68F
:105870000713BDF804209A42CED1C4E900679DF811
:105880002830A4F80890A3727389BDF806202B4431
:10589000E360738913442B44043563612561BDE7DC
:1058A000002BE4D0B8E72DE9F3410E4617461D461C
:1058B000044620B94FF0FF3002B0BDE8F081036824
:1058C000002BF7D04368002BF4D04FF6FF78D4E9D3
:1058D00004239A4216D223685B8923B1E36893427A
:1058E00004BF043323610423216960680DEB0302C4
:1058F00000F005FC0028DDD1A37A2BB1D4E90332F6
:105900009A4201D30120D7E72389BDF80610434509
:1059100001F1040203D0BDF804C09C450BD115B1C0
:10592000BDF804302B802369043333603980236948
:1059300013442361C0E7236913442361C7E748B1D7
:1059400003683BB143682BB1C068884294BF002014
:10595000012070474FF0FF30704773B50C46064684
:1059600011460223204601AA00F038FA0546E8B99C
:10597000019A1F2A0ED9A2F1200130462022236865
:10598000194400F096FC2368019A134423602846CA
:1059900002B070BD0146C2F12002304600F094FC16
:1059A000019A2168C2F120003044EAE76FF0020555
:1059B000EDE74FF4C07358433030704710B50446DC
:1059C00000F0E1FB4FF4C072A368303B02FB1030E3
:1059D00010BD70B50D46044600F094FE2A46A0F1B5
:1059E000080104232046BDE8704000F088BB13B5D1
:1059F0000446019100F086FE0423A0F108010DEB9E
:105A00000302204600F0C1FE02B010BDF7B5044607
:105A100000200D461746FAF795FD6946C0B2FCF71F
:105A200071F930B10125009800F068FB284603B0F9
:105A3000F0BD2C2303FB0544E368268900981E442F
:105A4000042331460DEB030200F059FB0546002804
:105A5000E8D146F60813BDF8042064899A420098FC
:105A600019D1BDF806309C4201D00325DBE70423A1
:105A7000A1190DEB030200F042FB0028D2D146F63B
:105A80000713BDF804209A42EFD1BDF80610214457
:105A900031443960C7E7002CF1D0E6E7FFF7FEBFDD
:105AA000FFF7FCBFFFF7FABFFFF7F8BFFFF7F6BF3E
:105AB000FFF7F4BFFFF7F2BFFFF7F0BFFFF7EEBF4E
:105AC000704770B513460E4615460021024604463F
:105AD000FBF75AFA50B92B460121204604F12C025B
